:100000000C942A000C943C000C943C000C943C0092
:100010000C943C000C943C000C943C000C943C0070
:100020000C943C000C943C000C943C000C943C0060
:100030000C943C000C943C000C943C000C943C0050
:100040000C943C000C943C000C943C000C943C0040
:100050000C943C0011241FBECFE5D8E0DEBFCDBF1D
:1000600022E0A0E6B0E001C01D92AA35B207E1F798
:100070000E9454030C94D7050C94000085E088BBC3
:100080008EB582608EBD08958AE088BB8EB5826091
:100090008EBD089589E088BB8EB582608EBD0895BF
:1000A00086E088BB8EB582608EBD089518BA8EB585
:1000B0008D7F8EBD0895829BFECF839BFCCF83B343
:1000C0000895CF93DF9386E690E00E94C705809164
:1000D0006600882309F4A5C0A7E6B0E0E6E6F0E0F4
:1000E0002CE692E78C3611F4908303C0823709F432
:1000F00020838D9131968111F5CF209166002223C6
:1001000009F48FC080E090E0D3E7C2E775E76CE6C2
:1001100050E040E0253709F07DC09C0121503109B5
:10012000F901EA59FF4FA081A23789F4FC01EA598D
:10013000FF4FE181E33729F5F901EA59FF4F608369
:10014000FC01EA59FF4F2281211153C05DC0A33742
:1001500059F4FC01EA59FF4FE181E23731F5F90129
:10016000EA59FF4F6083ECCFAC3659F4FC01EA59F1
:10017000FF4FE181E237D9F4F901EA59FF4F70836B
:10018000DFCFA23791F4FC01EA59FF4FE181E2375A
:1001900029F4F901EA59FF4FD083D2CFEC3681F62A
:1001A000F901EA59FF4F7083CBCFAC3699F4FC01CB
:1001B000EA59FF4FE181E33729F4F901EA59FF4F8A
:1001C000C083BECFEC3609F0BBCFF901EA59FF4F2F
:1001D000D083B6CFA33709F0B3CFFC01EA59FF4F64
:1001E000E181EC3609F0ACCFF901EA59FF4FC08349
:1001F000A7CFDC01AA59BF4FFC01E759FF4F2D9350
:10020000019621912111FBCFFC01EA59FF4F108289
:10021000852F942F0196FC01EA59FF4F208121116F
:1002200079CFDF91CF9108950F931F93CF93DF93F1
:10023000EC012FEF82E597E0215080409040E1F7FC
:1002400000C000000E9450008E01045D1E4F1BBDC7
:100250000ABD2FE788E391E0215080409040E1F70C
:1002600000C00000CE01C29799BD88BD805B9F4F42
:100270009BBD8ABD0E945B0080768036D9F70E94C4
:100280005B0080738033D9F70E945B0088718831EE
:10029000D9F70E943E00D9BDC8BD1BBD0ABD2FE7DE
:1002A00088E391E0215080409040E1F700C00000D9
:1002B000D9BDC8BDDBBDCABDDF91CF911F910F91E4
:1002C00008950F931F93CF93DF93EC010E94560084
:1002D0000E9461002FEF89E698E121508040904014
:1002E000E1F700C000000E9444008E0108531F4F38
:1002F00019BD08BD1BBD0ABD2FE788E391E0215061
:1003000080409040E1F700C00000D9BDC8BDDBBD12
:10031000CABD0E945B00827421F00E945B0082745F
:10032000E1F70E9456002FEF80E792E021508040D5
:100330009040E1F700C000000E943E0019BD08BDDA
:100340001BBD0ABD2FE788E391E02150804090401B
:10035000E1F700C00000CE01449699BD88BD9BBD69
:100360008ABD2FEF83EC99E0215080409040E1F767
:1003700000C000000E9450008E01045D1E4F1BBD96
:100380000ABD2FE788E391E0215080409040E1F7DB
:1003900000C00000CE01C29799BD88BD805B9F4F11
:1003A0009BBD8ABD2FEF80E792E0215080409040B6
:1003B000E1F700C000000E945B008076E1F70E9438
:1003C0005B0080768036D9F70E945B0080738033B3
:1003D000D9F70E945B0088718831D9F70E943E00EE
:1003E000D9BDC8BD1BBD0ABD2FE788E391E02150F0
:1003F00080409040E1F700C00000D9BDC8BDDBBD22
:10040000CABDDF91CF911F910F9108950F931F9354
:10041000CF93DF93EC010E9450008E01045D1E4FCC
:100420001BBD0ABD2FE788E391E02150804090403A
:10043000E1F700C00000CE01C29799BD88BD805B86
:100440009F4F9BBD8ABD0E945B0080768036D9F7A6
:100450000E945B0080738033D9F70E943E00D9BDB3
:10046000C8BD1BBD0ABD2FE788E391E02150804045
:100470009040E1F700C00000D9BDC8BDDBBDCABDDA
:10048000DF91CF911F910F9108950F931F93CF93F9
:10049000DF93EC010E944A008E01045D1E4F19BDDE
:1004A00008BD2FE788E391E0215080409040E1F7BC
:1004B00000C00000CE01C2979BBD8ABD805B9F4FEC
:1004C00099BD88BD0E945B0086708630D9F70E9476
:1004D0005B008C708C30D9F70E943E00DBBDCABD3A
:1004E00019BD08BD2FE788E391E02150804090407E
:1004F000E1F700C00000D9BDC8BDDBBDCABDDF91BA
:10050000CF911F910F9108950E9406028091600083
:1005100090916100FC01EA59FF4F2CE6208301967F
:10052000909361008093600008950E94450280913D
:10053000600090916100FC01EA59FF4F22E720839F
:100540000196909361008093600008950E940602D6
:100550008091600090916100FC01EA59FF4F2CE608
:10056000208301969093610080936000089599BD67
:1005700088BD9BBD8ABD0E943E0080916000909125
:100580006100FC01EA59FF4F23E720830196909315
:1005900061008093600010926200109263001092DC
:1005A00064001092650008950E9406028091600028
:1005B00090916100FC01EA59FF4F2CE620830196DF
:1005C000909361008093600008950E9406028091DC
:1005D000600090916100FC01EA59FF4F2CE62083F6
:1005E0000196909361008093600008950E94140129
:1005F0008091620090916300A0916400B0916500C9
:1006000080329E44A105B10578F080916000909100
:100610006100FC01EA59FF4F25E720830196909382
:100620006100809360000895809160009091610066
:10063000FC01EB59FF4F2CE620830895E091600008
:10064000F0916100EA59FF4F10820E946101089504
:100650002091600030916100F901EA59FF4F8081DB
:100660002F5F3F4F3093610020936000833739F450
:1006700079BD68BD7BBD6ABD0E943E000895853787
:1006800021F4CB010E94140108958C3621F4CB0192
:100690000E9406020895823721F4CB010E94450290
:1006A00008950E945600089583E08BBB1ABA18BAC9
:1006B0009FE097BB9FEF95BB14BA12BA90E391BB32
:1006C00092EA9FBD98E19EBD1DBC1CBC87BD88EE13
:1006D00086BD8CE291E09BBD8ABD99BD88BDC8995D
:1006E000FECF2FEF89E698E1215080409040E1F75E
:1006F00000C000000E943E0084EF91E099BD88BDDB
:100700009BBD8ABD2FEF86E791E02150804090404D
:10071000E1F700C000008CE291E099BD88BD9BBD6F
:100720008ABD0E945B00827421F00E945B0082748B
:10073000E1F7812C712CC12C0F2EF6E9EF2EF12C54
:10074000F02DCCE2D1E0612C912CBB24B394D12CC0
:10075000AB2C03C0C12E01C0712E8091620090911C
:100760006300A0916400B091650080322EE492078E
:10077000A105B10558F40196A11DB11D8093620039
:1007800090936300A0936400B09365000E945B00A7
:10079000982F9871983129F4D9BDC8BDDBBDCABD69
:1007A00009C083FF03C0F9BCE8BC04C084FF02C0D9
:1007B000FBBCEABC982F907F903F09F053C0D9BD95
:1007C000C8BDDBBDCABD062D192D17C085E88A95A9
:1007D000F1F700000E945B0081FDCA2C982F9E77E4
:1007E0009E3759F40F5F1F4F09359BE1190728F019
:1007F0008CE291E00E941E0394C0827439F71C2D94
:100800002FEF80E792E0215080409040E1F700C058
:1008100000000E945B008E7709F097C1C1100FC0E5
:10082000811004C0CE010E94840297CF21E0821281
:1008300094CFCE010E94A6028D2CCD2C8ECF1130EC
:1008400009F08BCF811005C0CE010E94D402CD2CBF
:1008500084CF81E088127ECFCE010E94E5028D2CEC
:10086000CD2C7BCF982F9F709F3009F053C0D9BDFE
:10087000C8BDDBBDCABD062D192D17C095E89A95D8
:10088000F1F700000E945B0086FD7A2C982F9E777E
:100890009E3759F40F5F1F4F09352BE1120728F0DF
:1008A0008CE291E00E941E033CC0827439F7172D40
:1008B0008FEF90E722E0815090402040E1F700C0A8
:1008C00000000E945B008E7709F043C171100FC0D9
:1008D000811004C0CE010E9495023FCF81E08812B2
:1008E0003CCFCE010E94B7028D2C7D2C36CF11302B
:1008F00009F033CF811005C0CE010E94D4027D2CB7
:100900002CCF91E0891228CFCE010E94E5028D2CD8
:100910007D2C23CF8E7709F020CFCE010E94F602E6
:100920001CCF10926100109260000E945B00982F13
:100930009871983139F48CE291E099BD88BD9BBDE6
:100940008ABD0EC0982F9F7029F084E690E099BD73
:1009500088BD06C0807F21F084E690E09BBD8ABD03
:100960000F2EF6E9EF2EF12CF02D412C512C3324D3
:100970003394612C942CA52CB32C03C0CC2E01C035
:100980007C2E0E945B00182F8871883139F48CE22C
:1009900091E099BD88BD9BBD8ABD09C013FF03C00E
:1009A000F9BCE8BC04C014FF02C0FBBCEABC812F48
:1009B000807F803F09F05DC08CE291E099BD88BDE9
:1009C0009BBD8ABDC42DD52D16C085E88A95F1F74B
:1009D00000000E945B00182F81FDCB2C812F8E77A9
:1009E0008E3749F42196C9359BE1D90720F00E9442
:1009F0005600C92DDA2D812F827439F7CC2D9FEF47
:100A000020E782E0915020408040E1F700C00000E4
:100A10000E945B008E7709F0A0C0C11013C0811046
:100A200006C06CE271E0832D0E942803AACF91E0FA
:100A30008912A7CF6CE271E084E00E942803862C23
:100A4000C62C9FCFC13009F09CCF811007C06CE24B
:100A500071E083E00E942803C62C93CF21E082122C
:100A60008DCF6CE271E086E00E942803862CC62CB4
:100A700088CF812F8F708F3009F05DC08CE291E0BC
:100A800099BD88BD9BBD8ABDC42DD52D16C085E8F6
:100A90008A95F1F700000E945B00182F86FD7B2CE1
:100AA000812F8E778E3749F42196C9359BE1D9077E
:100AB00020F00E945600C92DDA2D812F827439F75B
:100AC000C72D9FEF20E782E0915020408040E1F762
:100AD00000C000000E945B008E7709F042C07110D8
:100AE00013C0811006C06CE271E082E00E9428030E
:100AF00048CF91E0891245CF6CE271E085E00E9419
:100B00002803862C762C3DCFC13009F03ACF8110D6
:100B100007C06CE271E083E00E942803762C31CF9D
:100B200021E082122DCF6CE271E086E00E94280362
:100B3000862C762C26CF812F8E7709F022CF6CE27F
:100B400071E087E00E9428031CCFCC2009F471CE0D
:100B50000BC0772009F4C5CE0CC0CC2009F46ACFB5
:100B60000DC0772049F20FC0113009F475CE8B2CDF
:100B7000F4CD113009F4C8CE8B2CEFCDC13009F47F
:100B800070CF832CFECEC13071F2832CFACEDC0103
:100B9000FC01672F71917723E1F7329704C07C91B4
:100BA0006D9370836291AE17BF07C8F30895F894F0
:020BB000FFCF75
:00000001FF
