S01000006669726D776172652E73726563B7
S11300000C942A000C9434000C9434000C943400A6
S11300100C9434000C9434000C9434000C9434008C
S11300200C9434000C9434000C9434000C9434007C
S11300300C9434000C9434000C9434000C9434006C
S11300400C9434000C9434000C9434000C9434005C
S11300500C94340011241FBECFE5D8E0DEBFCDBF21
S11300600E94AB010C94DD020C94000085E088BB77
S11300708EB582608EBD08958AE088BB8EB582609D
S11300808EBD089589E088BB8EB582608EBD0895CB
S113009086E088BB8EB582608EBD089518BA8EB591
S11300A08D7F8EBD08950F931F93CF93DF93EC0143
S11300B02FEF83EC99E0215080409040E1F700C09D
S11300C000000E9448008E01045D1E4F1BBD0ABD46
S11300D02FE788E391E0215080409040E1F700C091
S11300E00000CE01C29799BD88BD805B9F4F9BBD28
S11300F08ABD83B380768036E1F783B3807380331F
S1130100E1F783B388718831E1F70E943600D9BDE5
S1130110C8BD1BBD0ABD2FE788E391E02150804094
S11301209040E1F700C00000D9BDC8BDDBBDCABD29
S1130130DF91CF911F910F9108950F931F93CF9348
S1130140DF93EC010E943C008E010C591F4F19BD36
S113015008BD1BBD0ABD2FE788E391E02150804014
S11301609040E1F700C00000D9BDC8BDDBBDCABDE9
S113017083B38F3FE9F30E94360019BD08BD1BBD50
S11301800ABD2FE788E391E0215080409040E1F7D9
S113019000C00000D9BDC8BDDBBDCABD2FEF84E3DC
S11301A09CE0215080409040E1F700C000000E9494
S11301B048008E01045D1E4F1BBD0ABD2FE788E376
S11301C091E0215080409040E1F700C00000CE0152
S11301D0C29799BD88BD805B9F4F9BBD8ABD83B389
S11301E08076E9F783B380768036E1F783B3807352
S11301F08033E1F783B388718831E1F70E943600D8
S1130200D9BDC8BD1BBD0ABD2FE788E391E02150CD
S113021080409040E1F700C00000D9BDC8BDDBBDFF
S1130220CABDDF91CF911F910F9108950F931F9332
S1130230CF93DF93EC010E9448008E01045D1E4FB2
S11302401BBD0ABD2FE788E391E021508040904018
S1130250E1F700C00000CE01C29799BD88BD805B64
S11302609F4F9BBD8ABD83B380768036E1F783B30D
S113027080738033E1F70E943600D9BDC8BD1BBD31
S11302800ABD2FE788E391E0215080409040E1F7D8
S113029000C00000D9BDC8BDDBBDCABDDF91CF9190
S11302A01F910F9108950F931F93CF93DF93EC0148
S11302B00E9442008E01045D1E4F19BD08BD2FE748
S11302C088E391E0215080409040E1F700C00000B5
S11302D0CE01C2979BBD8ABD805B9F4F99BD88BDEF
S11302E083B386708630E1F783B38C708C30E1F78A
S11302F00E943600DBBDCABD19BD08BD2FE788E3E7
S113030091E0215080409040E1F700C00000D9BD49
S1130310C8BDDBBDCABDDF91CF911F910F91089578
S113032099BD88BD9BBD8ABD0E9436000895CF93B8
S1130330DF93EC010E944E002FEF83ED90E32150F8
S113034080409040E1F700C00000CE010E949D0073
S1130350DF91CF91089583E08BBB1ABA18BA9FE05E
S113036097BB9FEF95BB14BA12BA90E391BB92EA84
S11303709FBD98E19EBD1DBC1CBC87BD88EE86BD9B
S11303808CE291E09BBD8ABD99BD88BDC899FECF22
S11303902FEF89E698E1215080409040E1F700C0BA
S11303A000000E94360084EF91E099BD88BD9BBD9A
S11303B08ABD2FEF86E791E0215080409040E1F71D
S11303C000C000008CE291E099BD88BD9BBD8ABD50
S11303D0812CB12CC12C0F2EF6E9EF2EF12CF02D2F
S11303E004E610E0CCE2D1E0912CA12C66246394C5
S11303F0712CD62C03C0C52C01C0B52C83B3982F07
S11304009871983129F4D9BDC8BDDBBDCABD13C0EC
S113041082FF03C019BD08BD0EC085FF03C01BBD0C
S11304200ABD09C083FF03C0F9BCE8BC04C084FF53
S113043002C0FBBCEABC982F907F903F09F050C0EB
S1130440D9BDC8BDDBBDCABD292D3A2D15C083B3A6
S113045081FDCD2C95E89A95F1F70000982F9E77B1
S11304609E3711F42F5F3F4F29359BE1390720F068
S1130470CE010E949701C2CF827449F75C2C2FEF02
S113048080E792E0215080409040E1F700C00000F6
S113049083B38E7709F07FC0C1100FC0811004C0F0
S11304A0CE010E941601AACF21E08212A7CFCE016D
S11304B00E941601872CC72CA1CF81E0C8129ECFC1
S11304C0811005C0CE010E941601C72C97CF91E080
S11304D0891291CFCE010E941601872CC72C8ECF92
S11304E0982F9F709F3009F04FC0D9BDC8BDDBBDA8
S11304F0CABD292D3A2D15C083B386FDBD2C95E8C0
S11305009A95F1F70000982F9E779E3711F42F5F8C
S11305103F4F29359BE1390720F0CE010E94970116
S11305206DCF827449F75B2C2FEF80E792E0215066
S113053080409040E1F700C0000083B38E7779F5E6
S1130540B1100FC0811004C0CE010E94530156CFD8
S113055021E0821253CFCE010E949001872CB72C48
S11305604DCF81E0B8124ACF811005C0CE010E9460
S11305701601B72C43CF91E089123FCFCE010E94E0
S11305801601872CB72C3ACF8E7709F037CFCE01DE
S11305900E94530033CFCC2009F489CF03C0BB2081
S11305A0D1F206C021E0C21609F494CF862C26CFDE
S11105B081E0B81619F3862C21CFF894FFCF02
S9030000FC
