S01000006669726D776172652E73726563B7
S11300000C942A000C9447000C9447000C9447006D
S11300100C9447000C9447000C9447000C94470040
S11300200C9447000C9447000C9447000C94A600D1
S11300300C9447000C9447000C9447000C94470020
S11300400C9447000C9447000C9447000C94470010
S11300500C94470011241FBECFE5D8E0DEBFCDBF0E
S113006011E0A0E6B0E0E6E5FDE002C005900D92E7
S1130070A631B107D9F723E0A6E1B1E001C01D9292
S1130080AE30B207E1F70E94ED030C94A9060C947C
S1130090000085E088BB8EB582608EBD08958AE03D
S11300A088BB8EB582608EBD089589E088BB8EB50D
S11300B082608EBD089586E088BB8EB582608EBD59
S11300C0089518BA8EB58D7F8EBD0895DC01CB01DD
S11300D0880F991FAA1FBB1F880F991FAA1FBB1F38
S11300E09C01AD01220F331F441F551F220F331FE4
S11300F0441F551F60E072E18AE790E00E94770692
S1130100CA01B90161507109810991090E94D70599
S11301100E941406272F332720BD69B988E18AB9C4
S113012086E880BD08955D9BFECF8CB90895CF937A
S1130130DF93EC018881882331F021960E9493009B
S113014089918111FBCFDF91CF9108951F920F9276
S11301500FB60F9211242F938F939F9380911601C2
S113016090911701843F21E0920728F4019690931F
S11301701701809316019F918F912F910F900FBEBD
S11301800F901F901895829BFECF839BFCCF83B367
S11301900895CF93DF938AE191E00E9499068091BC
S11301A01A01882389F0ABE1B1E0EAE1F1E02CE641
S11301B092E78C3611F4908303C0823709F42083CC
S11301C08D9131968111F5CF82E690E00E949700DF
S11301D08AE191E00E94970020911A01222309F4F8
S11301E096C080E090E0D3E7C2E765E77CE650E0A4
S11301F040E0253709F084C09C0121503109F90100
S1130200E65EFE4FA081A23789F4FC01E65EFE4F54
S1130210E181E33729F5F901E65EFE4F7083FC01C5
S1130220E65EFE4F228121115AC064C0A33759F4FF
S1130230FC01E65EFE4FE181E23731F5F901E65E4D
S1130240FE4F7083ECCFAC3659F4FC01E65EFE4FF2
S1130250E181E237D9F4F901E65EFE4F6083DFCF36
S1130260A23791F4FC01E65EFE4FE181E23729F406
S1130270F901E65EFE4FD083D2CFEC3681F6F90168
S1130280E65EFE4F6083CBCFAC3699F4FC01E65EAC
S1130290FE4FE181E33729F4F901E65EFE4FC083A6
S11302A0BECFEC3609F0BBCFF901E65EFE4FD0833A
S11302B0B6CFA33709F0B3CFFC01E65EFE4FE18170
S11302C0EC3629F4F901E65EFE4FC083A8CFE3378C
S11302D009F0A5CFF901E65EFE4F6083A0CFDC01F3
S11302E0A65EBE4FFC01E35EFE4F2D930196219165
S11302F02111FBCFFC01E65EFE4F1082852F942F67
S11303000196FC01E65EFE4F2081211172CF84E745
S113031090E00E9497008AE191E00E94970084E8AF
S113032090E00E949700DF91CF9108950F931F935F
S1130330CF93DF93EC012FEF82E597E021508040CB
S11303409040E1F700C000000E945B008E01045D54
S11303501E4F1BBD0ABD2FE788E391E0215080406A
S11303609040E1F700C00000CE01C29799BD88BD5E
S1130370805B9F4F9BBD8ABD0E94C3008076803600
S1130380D9F70E94C30080738033D9F70E94C30059
S113039088718831D9F70E944900D9BDC8BD1BBDF9
S11303A00ABD2FE788E391E0215080409040E1F7B7
S11303B000C00000D9BDC8BDDBBDCABDDF91CF916F
S11303C01F910F9108950F931F93CF93DF93EC0127
S11303D00E9461000E94C9002FEF89E698E1215034
S11303E080409040E1F700C000000E944F008E0161
S11303F008531F4F19BD08BD1BBD0ABD2FE788E375
S113040091E0215080409040E1F700C00000D9BD48
S1130410C8BDDBBDCABD0E94C300827421F00E9426
S1130420C3008274E1F70E9461002FEF80E792E03D
S1130430215080409040E1F700C000000E94490034
S113044019BD08BD1BBD0ABD2FE788E391E021500B
S113045080409040E1F700C00000CE01449699BD71
S113046088BD9BBD8ABD2FEF83EC99E0215080406D
S11304709040E1F700C000000E945B008E01045D23
S11304801E4F1BBD0ABD2FE788E391E02150804039
S11304909040E1F700C00000CE01C29799BD88BD2D
S11304A0805B9F4F9BBD8ABD2FEF80E792E0215078
S11304B080409040E1F700C000000E94C3008076B5
S11304C0E1F70E94C30080768036D9F70E94C3000A
S11304D080738033D9F70E94C30088718831D9F7BB
S11304E00E944900D9BDC8BD1BBD0ABD2FE788E3E2
S11304F091E0215080409040E1F700C00000D9BD58
S1130500C8BDDBBDCABDDF91CF911F910F91089586
S11305100F931F93CF93DF93EC010E945B008E0136
S1130520045D1E4F1BBD0ABD2FE788E391E02150F7
S113053080409040E1F700C00000CE01C29799BD11
S113054088BD805B9F4F9BBD8ABD0E94C30080769F
S11305508036D9F70E94C30080738033D9F70E9494
S11305604900D9BDC8BD1BBD0ABD2FE788E391E092
S1130570215080409040E1F700C00000D9BDC8BDC3
S1130580DBBDCABDDF91CF911F910F9108950F93E9
S11305901F93CF93DF93EC010E9455008E01045DFD
S11305A01E4F19BD08BD2FE788E391E0215080401C
S11305B09040E1F700C00000CE01C2979BBD8ABD08
S11305C0805B9F4F99BD88BD0E94C30086708630B2
S11305D0D9F70E94C3008C708C30D9F70E9449006F
S11305E0DBBDCABD19BD08BD2FE788E391E02150EA
S11305F080409040E1F700C00000D9BDC8BDDBBD1C
S1130600CABDDF91CF911F910F9108950E94880276
S11306108091180190911901FC01E65EFE4F2CE6D1
S11306202083019690931901809318018CE60E940F
S1130630930008950E94C7028091180190911901B6
S1130640FC01E65EFE4F22E7208301969093190198
S11306508093180182E70E94930008950E94880203
S11306608091180190911901FC01E65EFE4F2CE681
S11306702083019690931901809318018CE60E94BF
S11306809300089599BD88BD9BBD8ABD0E94490011
S11306908091180190911901FC01E65EFE4F23E759
S11306A020830196909319018093180183E70E9497
S11306B0930008950E948802809118019091190175
S11306C0FC01E65EFE4F2CE620830196909319010F
S11306D0809318018CE60E94930008950E9488027A
S11306E08091180190911901FC01E65EFE4F2CE601
S11306F02083019690931901809318018CE60E943F
S1130700930008950E949601809118019091190117
S1130710FC01E65EFE4F25E72083019690931901C4
S11307208093180185E70E9493000895E0911801D1
S1130730F0911901E65EFE4F10820E94E30185E606
S11307400E94930008951F93CF93DF93EB012091B0
S11307501601309117018091600090916100281773
S11307603907B8F12091180130911901F901E65EB9
S1130770FE4F10812F5F3F4F3093190120931801D2
S1130780812F0E949300133739F4D9BDC8BDDBBD56
S1130790CABD0E94490019C0153721F4CE010E9438
S11307A0960113C01C3621F4CE010E9488020DC0AC
S11307B0123721F4CE010E94C70207C00E946100D3
S11307C08EE990E00E949700FFCF109217011092DB
S11307D01601DF91CF911F91089583E08BBB1ABA64
S11307E018BA9FE097BB9FEF95BB14BA12BA90E377
S11307F091BB83BF12BE1CBE92EA9FBD98E19EBD11
S11308001DBC1CBC87BD88EE86BD8CE291E09BBDFF
S11308108ABD99BD88BD60E875E280E090E00E94E1
S113082066008BEE90E00E94970081E089BF789487
S1130830C899FECF8AEF90E00E9497002FEF84E3DF
S11308409CE0215080409040E1F700C000000E94ED
S1130850490084EF91E099BD88BD9BBD8ABD2FEF0F
S113086086E791E0215080409040E1F700C000000D
S11308708CE291E099BD88BD9BBD8ABD0E94C300F6
S1130880827421F00E94C3008274E1F7D12CA12C60
S1130890B12C0F2EF6E9EF2EF12CF02DCCE2D1E0A5
S11308A0612C712C88248394C12C982C03C0B12E04
S11308B001C0A12E0E94C300982F9871983129F489
S11308C0D9BDC8BDDBBDCABD09C083FF03C0F9BC27
S11308D0E8BC04C084FF02C0FBBCEABC982F907F34
S11308E0903F09F053C0D9BDC8BDDBBDCABD062DBC
S11308F0172D17C025E82A95F1F700000E94C300C0
S113090081FDB92C982F9E779E3759F40F5F1F4FA6
S113091009359BE1190728F08CE291E00E949603C7
S113092094C0827439F71B2D2FEF80E792E0215099
S113093080409040E1F700C000000E94C3008E7721
S113094009F023C1B1100FC0D11004C0CE010E9420
S11309500603B0CF21E0D212ADCFCE010E942E0308
S1130960DC2CBC2CA7CF113009F0A4CFD11005C0CA
S1130970CE010E945A03BC2C9DCF81E0D81297CFA0
S1130980CE010E946E03DC2CBC2C94CF982F9F7058
S11309909F3009F053C0D9BDC8BDDBBDCABD062D0B
S11309A0172D17C095E89A95F1F700000E94C3002F
S11309B086FDA92C982F9E779E3759F40F5F1F4F01
S11309C009352BE1120728F08CE291E00E9496038E
S11309D03CC0827439F71A2D8FEF90E722E08150E2
S11309E090402040E1F700C000000E94C3008E77D1
S11309F009F0CFC0A1100FC0D11004C0CE010E94D5
S1130A001A0358CF81E0D81255CFCE010E94420379
S1130A10DC2CAC2C4FCF113009F04CCFD11005C0D9
S1130A20CE010E945A03AC2C45CF91E0D91241CF9C
S1130A30CE010E946E03DC2CAC2C3CCF8E7709F0E7
S1130A4039CFCE010E94820335CF10921901109242
S1130A5018010E94C300982F9871983139F48CE2E0
S1130A6091E099BD88BD9BBD8ABD0EC0982F9F7033
S1130A7029F084E690E099BD88BD06C0807F21F00E
S1130A8084E690E09BBD8ABD0F2EF6E9EF2EF12C93
S1130A90F02DCCE2D1E0C12CD12C0E94C300982FC0
S1130AA09871983129F4D9BDC8BDDBBDCABD09C050
S1130AB083FF03C0F9BCE8BC04C084FF02C0FBBCD4
S1130AC0EABC982F907F903F51F5D9BDC8BDDBBDDE
S1130AD0CABD0C2D1D2D13C025E82A95F1F7000081
S1130AE00E94C300982F9E779E3749F40F5F1F4FD3
S1130AF009359BE1190718F00E946100FFCF827449
S1130B0059F72FEF80E792E0215080409040E1F7C1
S1130B1000C00000BE0181E00E94A303BECF982F55
S1130B209F709F3051F5D9BDC8BDDBBDCABD0C2D2A
S1130B301D2D13C025E82A95F1F700000E94C3007B
S1130B40982F9E779E3749F40F5F1F4F09359BE11D
S1130B50190718F00E946100FFCF827459F72FEF34
S1130B6080E792E0215080409040E1F700C000000F
S1130B70BE0182E00E94A30390CF8E7709F08DCF4F
S1130B80BE0187E00E94A30388CFBB2009F4E5CE11
S1130B9004C0AA2009F439CF05C0113009F4F0CEFD
S1130BA0D82C88CE113009F443CFD82C83CEE894C6
S1130BB009C097FB3EF490958095709561957F4FA1
S1130BC08F4F9F4F9923A9F0F92F96E9BB2793954F
S1130BD0F695879577956795B795F111F8CFFAF45F
S1130BE0BB0F11F460FF1BC06F5F7F4F8F4F9F4F90
S1130BF016C0882311F096E911C0772321F09EE8EE
S1130C00872F762F05C0662371F096E8862F70E053
S1130C1060E02AF09A95660F771F881FDAF7880F2D
S1130C209695879597F9089541D0A8F19E57A8F114
S1130C30985160F039F1983070F5092E9927660FB4
S1130C40771F881F991F0A94D1F71CC0BB27993FAF
S1130C504CF4B111B1E0B62B672F782F8827985F39
S1130C60B1F708C0869577956795B79508F4B16094
S1130C709395C1F7BB0F30F411F460FF03C06F5FAD
S1130C807F4F8F4F3EF490958095709561957F4F7F
S1130C908F4F9F4F0895689424C022C057FD9058E9
S1130CA0440F551F59F05F3F71F04795880F97FB2C
S1130CB0991F61F09F3F79F08795089512161306E6
S1130CC01406551FF2CF4695F1DF08C01616170615
S1130CD01806991FF1CF869571056105089408954A
S1130CE0E894BB2766277727CB0197F90895A1E2FB
S1130CF01A2EAA1BBB1BFD010DC0AA1FBB1FEE1F92
S1130D00FF1FA217B307E407F50720F0A21BB30BDC
S1130D10E40BF50B661F771F881F991F1A9469F758
S1130D2060957095809590959B01AC01BD01CF01B4
S1130D300895DC01FC01672F71917723E1F7329765
S1130D4004C07C916D9370836291AE17BF07C8F3A2
S1090D500895F894FFCFA2
S1130D5664000D0D52657665727365642044617492
S1130D66613A20000D0D536F6C76656420446174FE
S1130D76613A20000D0D536F6C76656420446174EE
S1130D86612050726163746963616C3A20000D0DD1
S1130D96456E6420537475636B2121210D0D0D2D51
S1130DA62D2D2D2D2D2D2D2D2D2D2D2D2D2D2D2D69
S1130DB62D2D2D2D2D2D2D2D2D2D2D2D2D2D2D2D59
S1130DC62D2D2D2D2D2D2D2D2D2D2D2D2D2D2D2D49
S1130DD62D2D2D2D2D2D0D0D0D0D000D4920616D83
S1130DE620726561647921210D0073746172742027
S1130DF6746F7572203A290D0D537475636B204414
S1090E066174613A200052
S9030000FC
