:100000000C942A000C947B000C94A0000C943C00EF
:100010000C943C000C943C000C943C000C943C0070
:100020000C943C000C943C000C943C000C943C0060
:100030000C943C000C943C000C943C000C943C0050
:100040000C943C000C943C000C943C000C943C0040
:100050000C943C0011241FBECFE5D8E0DEBFCDBF1D
:1000600020E0A0E6B0E001C01D92A836B207E1F79B
:100070000E94D9000C9417020C940000DC01CB0103
:10008000880F991FAA1FBB1F880F991FAA1FBB1F8C
:100090009C01AD01220F331F441F551F220F331F38
:1000A000441F551F60E072E18AE790E00E94F5016D
:1000B000CA01B90161507109810991090E94550174
:1000C0000E949201272F332720BD69B988E18AB9A0
:1000D00086E880BD0895C09AC198C29AC3988EB52B
:1000E00082608EBD0895C098C198C298C3988EB59D
:1000F0008D7F8EBD08951F920F920FB60F9211241F
:100100008F939F93AF93BF93809160009091610014
:10011000A0916200B09163000196A11DB11D809372
:10012000600090936100A0936200B0936300BF9160
:10013000AF919F918F910F900FBE0F901F901895C8
:100140001F920F920FB60F9211248F939F93AF932C
:10015000BF938091640090916500A0916600B0917A
:1001600067000196A11DB11D809364009093650006
:10017000A0936600B0936700BF91AF919F918F915C
:100180000F900FBE0F901F90189593B3E7E5FBE11A
:100190003197F1F700C0000083B39813F6CFE7E57D
:1001A000FBE13197F1F700C0000083B39813EDCF66
:1001B000089583E08BBB1ABA18BA9FE097BB9FEFF4
:1001C00095BB14BA12BA90E391BB92EA9FBD98E135
:1001D0009EBD1DBC1CBC87BD88EE86BD88EE93E02D
:1001E0009BBD8ABD99BD88BD60E875E280E090E066
:1001F0000E943E008BB7806C8BBF84B784BF15BE56
:1002000085B7856085BF80EC8ABF789400E213E0F3
:10021000C8EED3E0C899FECF2FEF83ED90E32150D5
:1002200080409040E1F700C000000E946B000E94F7
:10023000C50083FF04C00E94C50084FD2BC00E943E
:10024000C50083FF12C019BD08BD04C00E94C500CF
:10025000882341F00E94C50083FFF8CF0E94C500AB
:1002600084FFF4CFD9BDC8BD15C00E94C50084FF6E
:1002700011C01BBD0ABD04C00E94C500882341F007
:100280000E94C50083FFF8CF0E94C50084FFF4CF11
:10029000DBBDCABD0E94C5008111C9CF0E94730099
:1002A0000E94C5008831E1F7B5CFE89409C097FBFB
:1002B0003EF490958095709561957F4F8F4F9F4F3D
:1002C0009923A9F0F92F96E9BB279395F695879581
:1002D00077956795B795F111F8CFFAF4BB0F11F444
:1002E00060FF1BC06F5F7F4F8F4F9F4F16C08823EB
:1002F00011F096E911C0772321F09EE8872F762F21
:1003000005C0662371F096E8862F70E060E02AF061
:100310009A95660F771F881FDAF7880F969587954D
:1003200097F9089541D0A8F19E57A8F1985160F02F
:1003300039F1983070F5092E9927660F771F881FBD
:10034000991F0A94D1F71CC0BB27993F4CF4B111F7
:10035000B1E0B62B672F782F8827985FB1F708C0D8
:10036000869577956795B79508F4B1609395C1F731
:10037000BB0F30F411F460FF03C06F5F7F4F8F4FEE
:100380003EF490958095709561957F4F8F4F9F4F6C
:100390000895689424C022C057FD9058440F551FFB
:1003A00059F05F3F71F04795880F97FB991F61F0F7
:1003B0009F3F79F087950895121613061406551F6E
:1003C000F2CF4695F1DF08C0161617061806991FDA
:1003D000F1CF86957105610508940895E894BB27CF
:1003E00066277727CB0197F90895A1E21A2EAA1B59
:1003F000BB1BFD010DC0AA1FBB1FEE1FFF1FA217D5
:10040000B307E407F50720F0A21BB30BE40BF50BD1
:10041000661F771F881F991F1A9469F7609570955A
:10042000809590959B01AC01BD01CF010895F89492
:02043000FFCFFC
:00000001FF
