S01600003370692D6D617A65736F6C7665722E737265638D
S11300000C9457000C947F000C947F000C947F0098
S11300100C947F000C947F000C947F000C947F0060
S11300200C947F000C94940D0C947F000C947F002E
S11300300C947F000C94DF090C947F000C947F00D7
S11300400C947F000C947F000C947F000C947F0030
S11300500C947F000C947F000C947F000C947F0020
S11300600C947F000C947F00000000000000001F2F
S11300701F1F1F1F1F1F4C31362063646567726585
S11300806734003E6733323E3E63333200736F6C35
S1130090766572004D617A650033F720526F626FA6
S11300A0740020506F6C6F6C75005D0E5E0E112431
S11300B01FBECFEFD8E0DEBFCDBF11E0A0E0B1E0BE
S11300C0E4E5FBE202C005900D92AA34B107D9F72A
S11300D023E0AAE4B1E001C01D92A73BB207E1F717
S11300E010E0CCEAD0E004C02297FE010E94531431
S11300F0CA3AD107C9F70E9444020C949D150C9486
S1130100000060E088E690E00E94140B61E089E65C
S113011090E00E94140B62E08AE690E00E94140BC7
S113012063E08BE690E00E94140B64E08CE690E0C0
S11301300E94140B65E08DE690E00E94140B66E0CB
S11301408EE690E00E94140B0C94940BCF92DF92F5
S1130150EF92FF920F931F93CF93DF93CDB7DEB748
S11301602A970FB6F894DEBF0FBECDBF8C01D12CF9
S11301708AE0C82E95E6E92EF12CE1E3F1E0DE01F8
S113018011968C2D01900D928A95E1F7F8018191D9
S113019091918F01B7010E94A61381E090E08C0F2A
S11301A09D1F680F791FFB0180810E94170BD39458
S11301B0F5E0DF12E2CF2A960FB6F894DEBF0FBE49
S11301C0CDBFDF91CF911F910F91FF90EF90DF9002
S11301D0CF9008952F923F924F925F926F927F92A9
S11301E08F929F92AF92BF92CF92DF92EF92FF9243
S11301F00F931F93CF93DF93CDB7DEB72A970FB634
S1130200F894DEBF0FBECDBF8C01C12CD12C76017A
S1130210212C312C50E1452E57E2552E612C712CA6
S113022088249924881A990A61E0CE0101960E94D3
S11302301E0E805D97405C01AA2797FDA095BA2FFA
S1130240C80ED91EEA1EFB1EC701B601A301920106
S11302500E94F013B50162197309CB01880F991F2D
S1130260860F971F97FD0196FC01F595E795E20F20
S1130270F31FC50164E170E00E94BA13E60FF71F93
S11302800E171F070CF4F801CF01E815F9050CF45B
S1130290C401B80197FF03C0800F911F03C0681BFE
S11302A0790BC8010E94460D8B819C81843691058F
S11302B050F48D819E818436910528F48F81988530
S11302C08436910560F089819A81893C910538F4DE
S11302D089859A85893C910510F41501A5CF2A9644
S11302E00FB6F894DEBF0FBECDBFDF91CF911F9143
S11302F00F91FF90EF90DF90CF90BF90AF909F90C1
S11303008F907F906F905F904F903F902F900895C3
S11303100F931F93CF93DF93CDB7DEB72A970FB612
S1130320F894DEBF0FBECDBF80ED97E00E94590E5A
S11303300E94810082EA90E00E94BC0B61E080E0B0
S11303400E943C0C89E990E00E94BC0B83E890E099
S11303500E94510A88EE93E00E94DC0D0E94940BE7
S113036084E990E00E94BC0B61E080E00E943C0CB8
S11303708DE890E00E94BC0B88EE93E00E94DC0DB7
S113038080E10E94890D81111BC00E940F078C011E
S11303900E94940BB801882777FD8095982F0E94BE
S11303A0190C8BE391E00E94AB0B61E080E00E94AA
S11303B03C0C8EE391E00E94AB0B84E690E0DECF30
S11303C080E10E94750D88EE93E00E94DC0D0CEE36
S11303D01FEF0832110528F068ED7FEF88E290E006
S11303E004C068E270E088ED9FEF0E94460D81E052
S11303F00E94180E84E190E00E94DC0D0F5F1F4FF5
S11304000C33110531F760E070E080E090E00E9469
S1130410460D80E10E94890D81111AC061E0CE0170
S113042001960E941E0E8C010E94940BB80180E07C
S113043090E00E94190C61E080E00E943C0CCE0127
S113044001960E94A60084E690E00E94DC0DE1CFB4
S113045080E10E94750D0E94940B86E491E00E9455
S1130460AB0B86E790E00E94510A0E94400A81117A
S1130470FCCF2A960FB6F894DEBF0FBECDBFDF9136
S1130480CF911F910F9108950E9488018AEA90E00C
S11304900E945103FFCFCF93DF93CDB7DEB72A97E6
S11304A00FB6F894DEBF0FBECDBF61E0CE0101965A
S11304B00E941E0E89819A818139914010F080E159
S11304C001C080E02B813C812D32314010F08860E6
S11304D001C0877F2D813E812D32314010F0846030
S11304E001C08B7F2F8138852D32314010F082601E
S11304F001C08D7F29853A852139314010F0816012
S113050001C08E7F2A960FB6F894DEBF0FBECDBF12
S1130510DF91CF9108951F93CF93DF93C4E1D0E08F
S11305200E944B02182FFE016F9364E06A95F1F765
S11305306F913197C9F70E944B021813F1CF812FA5
S1130540DF91CF911F91089580E090E043E752E757
S11305506CE6DC01A154BE4F2C912223E1F1253736
S1130560C1F5FC01E254FE4F3081323729F4119673
S11305703C91333781F406C0333731F411963C9102
S11305803237A1F4608319C03C36B9F411963C911A
S1130590323731F411C0323739F03C3671F40CC0C3
S11305A0333731F03C3649F4408307C03C3611F40C
S11305B0508303C0333709F42083FC01E154FE4F18
S11305C02281222319F020830196F7CF108280E044
S11305D090E00196BECF08950F931F93CF93DF93BE
S11305E08FEB91E00E948D15EFEBF1E09CE622E7A2
S11305F08081882349F08C3611F4208303C082372C
S113060009F490833196F4CF0FEB11E0E8010990DF
S11306100020E9F72197CF5BD1400E94A402F801A2
S113062001900020E9F73197EF5BF140CE17DF0727
S113063069F7DF91CF911F910F910895BC018091CB
S1130640BD019091BE01FC01E154FE4F2081019651
S11306509093BE018093BD01233711F483E50BC051
S1130660253711F485E507C02C3611F48CE403C05A
S1130670223719F482E50C94C50460E070E080E050
S113068090E00E94460DFFCFE091BD01F091BE01C4
S1130690E154FE4F1082BC0184E40E94C5040C9412
S11306A0EC02CF93DF931F92CDB7DEB73C01A12CB0
S11306B0912CB12C85E7E82E9CE6F92E23E7D22E67
S11306C032E7C32EC3010E94EA000E948B02282F46
S11306D084FF6EC064E670E084E690E029830E94A3
S11306E0460D00E010E029812171C1F00E948B02C7
S11306F0282F80FF04C0B11002C0BB24B3942F3153
S113070099F70F5F1F4F0734110570F3C3010E945F
S113071044031092BE011092BD01E0C00E948B02FE
S113072082FD1FC1B11016C0A11010C08091BD017F
S11307309091BE01FC01E154FE4FF082019690932A
S1130740BE018093BD01B3018CE4BBC081E0A8125B
S1130750B9CF1BC0E1E0BE12B5CFA11013C0809188
S1130760BD019091BE01FC01E154FE4FF08201965F
S11307709093BE018093BD01B3018CE40E94C50433
S1130780B12CA0CFF1E0AF129DCF8091BD0190912B
S1130790BE01FC01E154FE4FF08201969093BE012C
S11307A08093BD01B3018CE40E94C504A12CE8CF61
S11307B080FF76C064E670E084E690E029830E94BE
S11307C0460D00E010E02981217189F00E948B021E
S11307D0282F84FF04C0911002C0992493942F31D0
S11307E099F70F5F1F4F0734110570F38FCF0E94E5
S11307F08B0282FDBAC0911025C0A11010C0809157
S1130800BD019091BE01FC01E154FE4FC0820196EE
S11308109093BE018093BD01B30182E552C081E093
S1130820A81250CF8091BD019091BE01FC01E1540A
S1130830FE4FD08201969093BE018093BD01B30117
S113084083E529C0E1E09E123DCFA11012C0809142
S1130850BD019091BE01FC01E154FE4FF08201966E
S11308609093BE018093BD01B3018CE40E94C50442
S113087015C0F1E0AF1226CF8091BD019091BE0169
S1130880FC01E154FE4FF08201969093BE018093E7
S1130890BD01B3018CE40E94C504A12C912C12CF9C
S11308A0811110CF8091BD019091BE01FC01E154F2
S11308B0FE4FE08201969093BE018093BD01B30187
S11308C085E50E94C504FECE0E948B02282F8F313D
S11308D0C1F02171C9F7C3010E941E03C3010E9424
S11308E0EA000E948B02282F84FF18C064E670E09F
S11308F084E690E029830E94460D00E010E02981FF
S1130900E8CF0F5F1F4F093883E1180710F360E049
S113091070E080E090E00E94460DFFCF80FF1EC093
S113092064E670E084E690E029830E94460D00E0CE
S113093010E02981217179F20E948B02282F8F31D6
S1130940C9F70F5F1F4F0938E3E11E0798F360E012
S113095070E080E090E00E94460DFFCF8111BECF91
S1130960BACFBB2009F411CF04C0992009F45ACF9F
S113097005C0F1E0BF1609F408CF04C081E0981661
S113098009F47ACFAA24A3949DCE8C3409F041C0F3
S113099081E190E00E94DC0D60E070E080E090E096
S11309A00E94460D8AE090E00E94DC0D68E37FEF30
S11309B088E39FEF0E94460D8AE090E00E94DC0DE0
S11309C060E070E080E090E00E94460D84E190E0F9
S11309D00E94DC0D6CE370E084EC9FEF0E94460DF6
S11309E080E084FD03C00E948B02FBCF84FF03C020
S11309F00E948B02FBCF81FD03C00E948B02FBCFC0
S1130A0060E070E080E090E00E94460D8AE090E0B3
S1130A109EC0823509F055C081E190E00E94DC0D52
S1130A2060E070E080E090E00E94460D8AE090E093
S1130A300E94DC0D68E37FEF88E39FEF0E94460D80
S1130A408AE090E00E94DC0D60E070E080E090E0DD
S1130A500E94460D84E190E00E94DC0D64EC7FEF7F
S1130A608CE390E00E94460D80E080FD03C00E946C
S1130A708B02FBCF80FF03C00E948B02FBCF83FD60
S1130A8003C00E948B02FBCF60E070E080E090E046
S1130A900E94460D8AE090E00E94DC0D64E670E05E
S1130AA08CE99FEF0E94460D8AE090E00E94DC0DE5
S1130AB060E070E080E090E00E94460D84E190E008
S1130AC0BBC0833509F4BAC0853509F047C089E154
S1130AD090E00E94DC0D60E070E080E090E00E9415
S1130AE0460D8AE090E00E94DC0D68E37FEF88E326
S1130AF09FEF0E94460D8AE090E00E94DC0D60E0CA
S1130B0070E080E090E00E94460D84E190E00E9455
S1130B10DC0D6CE370E084EC9FEF0E94460D80E0F6
S1130B2084FD03C00E948B02FBCF84FF03C00E949C
S1130B308B02FBCF81FD03C00E948B02FBCF60E0E0
S1130B4070E080E090E00E94460D84E190E00E9415
S1130B50DC0D6CE97FEF84E690E0A4CF843409F0E7
S1130B606DC060E070E080E090E00E94460D82E39A
S1130B7090E00E94DC0D84EF91E00E94DC0D6EECAD
S1130B807FEF8EEC9FEF0E94460D0E948B0290E057
S1130B90817199274197C9F360E070E080E090E0AB
S1130BA00E94460D82E390E00E94DC0D62E370E057
S1130BB082E390E00E94460D86E990E00E94DC0DFD
S1130BC060E070E080E090E00E94460D82E390E0F7
S1130BD00E94DC0D6CE370E084EC9FEF0E94460DF4
S1130BE082E390E00E94DC0D0E948B0284FDFCCF26
S1130BF00E948B0284FFFCCF0E948B0281FFFCCFFA
S1130C0060E070E080E090E00E94460D84E190E0B6
S1130C100E94DC0D6CE97FEF84E690E00E94460DB3
S1130C208AE090E00E94DC0D60E070E080E090E0FB
S1130C300E94460D82E390E00C94DC0D0895882315
S1130C4021F480917C008F7D03C080917C008062C0
S1130C5080937C00089580917C0090E025E0959538
S1130C6087952A95E1F78170089580917A0090E044
S1130C7036E0959587953A95E1F7817008950E943D
S1130C802B06882321F02091790030E004C02091C4
S1130C90780030917900C90108958032B0F497E862
S1130CA090937A0090917C00292F2064662311F0A0
S1130CB0906C02C0922F9F77907E982B90937C002B
S1130CC080917A00806480937A000895A0E0B0E077
S1130CD0ECE6F6E00C9424146B0160E00E944D06EF
S1130CE00E9435068823E1F7E601EE24FF248701FC
S1130CF080917A00806480937A000E94350688236C
S1130D00E1F70E943F06A0E0B0E0E80EF91E0A1FDA
S1130D101B1F219769F7C6019695879520E4C21693
S1130D20D10440F48E0D9F1D6C2D70E00E94A6131B
S1130D30CB010DC0BC0180E090E06E0D7F1D801FD3
S1130D40911F960140E050E00E94CE13C901CDB737
S1130D50DEB7E8E00C944014A3E0B0E0E2EBF6E088
S1130D600C942914BC0180E090E0209100013091A2
S1130D70010140E050E00E948A13182F69837A83AE
S1130D809B830E942B0669817A819B81882371F061
S1130D909B01412F592FCA01B90161587F4F8F4FD1
S1130DA09F4F2FEF30E040E050E00DC09B01412FFA
S1130DB0592FCA01B90161507E4F8F4F9F4F2FEFBA
S1130DC033E040E050E00E94CE13C9012396E3E0F3
S1130DD00C9445140E9466060E94AC0608951F9365
S1130DE0CF93DF930E942B06182F80E00E941F06EA
S1130DF086E06AE070E00E94EA06EC01812F0E941E
S1130E001F069E01220F331F2C0F3D1F2F5F3F4FE4
S1130E1036952795C901DF91CF911F9108950E94BE
S1130E20EF06089590914F01E0914B01F0914C0130
S1130E30992311F0849101C08081282F21542A31F3
S1130E4010F4805E0895803271F420914B0130914A
S1130E504C01A9014F5F5F4F50934C0140934B01EC
S1130E602115310509F70895EF92FF92CF93DF938F
S1130E700E941207C0E0D0E01BC09E01220F331F66
S1130E8093E0CC0FDD1F9A95E1F7C20FD31F99278A
S1130E9087FD9095C80FD91FE09780914B019091E1
S1130EA04C01019690934C0180934B010E941207D0
S1130EB0982F90539A3008F3CE01DF91CF91FF9091
S1130EC0EF90089510926F0083E28093800081E197
S1130ED0809381001092820080E197E290938900D0
S1130EE08093880010928B0010928A00229A789442
S1130EF0089580914A01882329F481E080934A016E
S1130F000E9462070895A0E0B0E0E9E8F7E00C94DD
S1130F1020148C015B01E42E0E94790710920201D7
S1130F2017FF04C01F77AAE0FA2E02C0FF24F3942F
S1130F30C0908100DD2428EFC222DD2488EC3F2DFF
S1130F40389FC001112480179107D8F4E80167E2A3
S1130F500131160710F0C0E1D7E2BE01769567951E
S1130F6080E090E06058794687469F4F9E0140E0BC
S1130F7050E00E94CE13890181E090E0C82AD92A6A
S1130F802CC098E2F99E902D112480E0892EE40172
S1130F904E01982EE4018016910608F4E801BE0182
S1130FA0769567959E0140E050E08F2D8A3039F4A4
S1130FB080E090E0605E734481449F4F06C080E00F
S1130FC090E060537D4E8C4E9F4F0E94CE1389015A
S1130FD052E0852E912CC828D9282F2D2A3039F497
S1130FE0CE0105966AE070E00E94A613EB0133E09F
S1130FF0C83ED30779F0BE0180E090E0950140E05F
S113100050E00E948A1328EE33E040E050E00E9452
S1131010F01301C0950110926F00C09281001093EB
S113102089000093880040918800509189006E2DBA
S1131030603108F06FE080E190E0861B9109BA010D
S113104002C0769567958A95E2F770938B0060935A
S11310508A00309352012093510186B38FEF86BBEF
S113106081E080936F00CDB7DEB7ECE00C943C14C4
S11310709B018F3F11F0442329F488EE93E0B901DA
S113108040E049C0813130F0582F5051503618F0AB
S11310905FE501C050E0852F6CE00E949A13A82FF1
S11310A0B0E0E4EFFFEFAE9FB001AF9F700DBE9FC5
S11310B0700D1124650F711D6C30710540F4FB0136
S11310C0EE0FFF1FE45FFE4F6081718102C060E09C
S11310D070E0873081F0082E02C0660F771F0A94F3
S11310E0E2F7823028F0CB0105966AE070E00CC08C
S11310F0605070480BC0CB01B6E0880F991FBA95B9
S1131100E1F7029665E070E00E94A613403108F012
S11311104FE0CB01B9010E9483070895A0E0B0E03D
S1131120E4E9F8E00C941F14B090030180914D01A0
S1131130882361F060914E01662341F08FEF70E0E7
S113114040E00E94380810924E0134C1C0ECDDE545
S1131150AA24A39414E0712E00ED17E0B4E0EB2E62
S1131160F12CA4EFCA2EA1E0DA2EFFE08F2E912CF1
S11311700E94120720914B0130914C012F5F3F4F89
S113118030934C0120934B018636F1F18736CCF431
S1131190823609F4AFC083367CF48E3349F18F3341
S11311A03CF4813209F487C08C3309F09BC022C01F
S11311B0813609F097C09BC0843601F185360CF561
S11311C01BC08F3609F447C0803744F48C3611F1C4
S11311D08D3661F1873609F085C019C0843709F46A
S11311E044C0863709F460C0823709F07BC039C037
S11311F0B394BECFBA94BCCFEE2435C0EE2482E0C3
S11312007BC0EE2484E078C0EE2485E075C0EE2433
S113121087E072C00E943407BC019093050180935B
S11312200401809106019091070137C00E941207C2
S11312308C3619F410924D0104C0A0924D01109205
S11312404E0180914B0190914C01019690934C0179
S113125080934B018DCF0E943407B82E80930301F5
S113126087CFEE24E39480E047C00E943407BC019A
S1131270CE010E94A613CB01880F991F53E0660F7D
S1131280771F5A95E1F7860F971F90930701809374
S1131290060160910401709105010E94A6137093E8
S11312A009016093080164CF0E94340790930B01F5
S11312B080930A015DCF709203011093070100939C
S11312C00601F0920501E0920401D0920901C09256
S11312D0080190920B0180920A0110924D0144E0A2
S11312E0B42E46CF10924C0110924B0163C0EE24F1
S11312F089E002C0EE248BE09CE0B99EB02C11245E
S1131300B80E0E9412078B3211F08332B9F4809127
S11313104B0190914C01019690934C0180934B01A9
S1131320B394EFCF80914B0190914C01019690932F
S11313304C0180934B01BA940E9412078D3291F3B1
S1131340C0910801D09109018153883058F4C091AB
S11313500601D09107010E943407BC01CE010E940E
S1131360A613EB018E010BC080914B0190914C01AF
S1131370019690934C0180934B01C00FD11F169599
S113138007950E9412078E3279F380914D018823CC
S113139039F0CE019695879580934E01C81BD109EB
S11313A0EE2011F0BB24BA948B2DBE0140910A01AA
S11313B00E943808CDB7DEB7EDE00C943B141F92C1
S11313C00F920FB60F9211242F933F934F935F9375
S11313D06F937F938F939F93AF93BF93EF93FF93F9
S11313E080915101909152019C01215030403093E1
S11313F0520120935101009711F510926F007894D7
S113140080918100887F81608093810080E197E2F0
S1131410909389008093880010928B0010928A0028
S113142081E08093020180914B0190914C010097DF
S113143031F080915001882311F40E948E08FF91AD
S1131440EF91BF91AF919F918F917F916F915F9138
S11314504F913F912F910F900FBE0F901F901895B1
S113146080910201882351F081E020914B01309159
S11314704C012115310519F480E0089581E00895A7
S11314800E94300A089510926F0090934C0180934B
S11314904B0181E080934F0110924E010E948E080F
S11314A008950E94430A089581E090E06F9364E0F8
S11314B06A95F1F76F910197C9F708950F931F93F8
S11314C0CF93DF931AB157985A98289AC0E0D0E086
S11314D00E94540A5C9A0E94540A09B15C980E94C2
S11314E0540A5C9A0E94540A5C9807FF11C024961F
S11314F09E0140E050E08091570190915801A091E5
S11315005901B0915A01281739074A075B0700F3BC
S11315101AB9DF91CF911F910F91089565B190E0B1
S1131520AC0141705070440F551F9C0126703070FF
S113153053E0220F331F5A95E1F7242B6D7C262BA1
S113154025B92BB18870907034E0880F991F3A95B3
S1131550E1F72F77282B2BB95C9A0E94540A5C98E8
S11315600E94540A0895A2E0B0E0E9EBFAE00C947A
S11315702514182F4A8369830E945E0B0E945E0A19
S1131580F4B005B1DAB0EBB0289869814A816623DA
S113159011F05A9A01C05A9884B1826384B9579A57
S11315A0413029F0812F82958F700E948E0A812FFD
S11315B08F700E948E0ADAB8EBB8F4B805B9229697
S11315C0E7E00C94411460E042E00E94B30A0895FD
S11315D061E042E00E94B30A0895EF92FF921F93E4
S11315E0DF93CF930F92CDB7DEB7660F660F660F0A
S11315F0482F592F7A0110E0812F860F8064698368
S11316000E94E30AF70184910E94E80A1F5F08948C
S1131610E11CF11C6981183079F70F90CF91DF91AB
S11316201F91FF90EF9008950E94ED0A08950E9483
S1131630E80A089560E041E00E94B30A089580E159
S113164097E2A0E0B0E08093570190935801A093F3
S11316505901B0935A01529A209A549A8EE190E01B
S11316600E94DC0D83E00E941A0B86E090E00E9449
S1131670DC0D83E00E941A0B82E090E00E94DC0DF6
S113168083E00E941A0B82E090E00E94DC0D82E06D
S11316900E941A0B82E090E00E94DC0D88E20E9416
S11316A0E30A88E00E94E30A81E00E94E30A86E0FC
S11316B00E94E30A8CE00E94E30A089580915B0192
S11316C0882329F481E080935B010E941F0B089515
S11316D081E00E94E30A80915301909154010097A4
S11316E011F1A0E0B0E208C0E0915301F09154017F
S11316F0E20FF31FB083AF5F2A2F30E08091240103
S113170090E001976091250170E0869FA001879F7A
S1131710500D969F500D1124241735072CF3109269
S113172056011092550108950E94680B0895EF9296
S1131730FF92CF93DF93E82EE7017E01F92EE701B4
S113174002C00E94E80A89918823D9F7DF91CF91DA
S1131750FF90EF9008950E94970B0895CF93DF9325
S1131760EC0103C00E94E80A2196FE0184918823BB
S1131770C9F7DF91CF9108950E94AE0B0895AAE0B6
S1131780B0E0E5ECFBE00C9422149B01AC011AE000
S1131790EAE0CE2ED12CE12CF12C5E010894A11CA0
S11317A0B11C022FCA01B901A70196010E94CE13F0
S11317B01150F501E10FF11D005D922F990F892F52
S11317C0880F880F890F081B0083211531054105F7
S11317D0510539F708C0F601E10FF11D80810E941F
S11317E0E80A1F5F04C06E010894C11CD11C1A30A2
S11317F090F32A96EAE00C943E14EF92FF920F9332
S11318001F937B018C0197FF0BC010950095F094FA
S1131810E094E11CF11C011D111D8DE20E94E80AF7
S1131820C801B7010E94BF0B1F910F91FF90EF9069
S113183008950E94FD0B0895A5E0B0E0E2E2FCE00B
S11318400C942914182F80E8898380EC8A8384E916
S11318508B8384ED8C83FE01E60FF11D8181810F62
S11318606D830E94E30A109356016D8160935501C4
S11318702596E3E00C9445140E941C0C0895FC0189
S113188011821082138212821582148216826830A9
S113189068F489E290E0918380838BE290E0938303
S11318A082838AE290E09583848311C06E30C0F411
S11318B083E290E09183808385E290E09383828346
S11318C084E290E09583848370E06850704081E006
S11318D090E002C0880F991F6A95E2F78683089505
S11318E06531B8F486E290E09183808388E290E0E9
S11318F09383828387E290E09583848370E06E50C3
S1131900704081E090E002C0880F991F6A95E2F769
S113191086830895FC01A481B5818681662321F024
S11319209C91982B9C9308959C91809589238C93EA
S11319300895FC016F3F31F4A281B3818C919681AB
S113194089270CC0A281B3818681662321F09C91F2
S1131950982B9C9308959C91809589238C9308954A
S1131960A7E0B0E0E6EBFCE00C942714282FF62E59
S11319708E010F5F1F4FC801622F0E943F0CC801E8
S11319806F2D0E94990CC80161E00E948A0C279671
S1131990E5E00C944314E0EBF0E083EF8083808176
S11319A084BDE1EBF0E082E08083808185BDE4EBDF
S11319B0F0E010828081E3EBF0E08083808188BDD9
S11319C088B587BD86E060E00E94B00C85E060E0E9
S11319D00E94B00C8BE060E00E94B00C83E060E0F9
S11319E00E94B00C089580915C01882329F481E061
S11319F080935C010E94CB0C0895CF93DF93EC019C
S1131A000E94F30CD7FF05C0D095C195DF4F81E04C
S1131A1001C080E0CF3FD10519F014F0CFEFD0E042
S1131A20882319F018BCC7BD02C0C8BD17BCDF911C
S1131A30CF910895CF93DF93EC010E94F30CD7FF6D
S1131A4005C0D095C195DF4F81E001C080E0CF3F54
S1131A50D10519F014F0CFEFD0E0882329F01092CB
S1131A60B400C093B30004C0C093B4001092B30098
S1131A70DF91CF910895CF93DF93EB010E94FD0C8A
S1131A80CE010E941A0DDF91CF9108950E943B0D63
S1131A90089584B18D7C84B985B1826385B985E06C
S1131AA090E06F9364E06A95F1F76F910197C9F73D
S1131AB0089580915D01882329F481E080935D017C
S1131AC00E94490D08951F93182F0E94590D83B148
S1131AD08123E9F38AE090E00E94DC0D83B1812345
S1131AE0B1F383B181231F9108950E94630D08957A
S1131AF0A1E0B0E0EEE7FDE00C942A1489830E9493
S1131B00590D93B19095898189232196E2E00C9433
S1131B1046140E94780D08956F9364E06A95F1F776
S1131B206F910197C9F708952F928F939F932FB6C2
S1131B3080916B0190916C01019680936B0190935D
S1131B406C0190E080916D01891F80936D019091EB
S1131B5073019C5F9093730180917201805197424D
S1131B60C0F0909373018093720180916E01909103
S1131B706F01019680936E0190936F0190E08091C4
S1131B807001891F8093700180917101891F809376
S1131B9071012FBE9F918F912F901895CF93DF9352
S1131BA0EC0105C088EE93E00E948C0D21972097EC
S1131BB0C9F7DF91CF9108950E94CE0D0895E0E713
S1131BC0F0E080818E7F8083A0EBB0E08C91836015
S1131BD08C93A1EBB0E08C91807F8C938C9182608C
S1131BE08C93B89A808181608083789408958091E1
S1131BF07401882329F481E0809374010E94DF0D2D
S1131C0008950E94F70DE0E7F0E080818E7F8083E5
S1131C1010926E0110926F01109270011092710176
S1131C201092730110927201808181608083089503
S1131C30682F85E791E00E94481308959C01462F80
S1131C4085E791E0B90120E00E94A61108950F9361
S1131C50DF93CF9300D000D00F92CDB7DEB79C01B5
S1131C60962FDE011196E6E2F1E085E001900D92F7
S1131C708150E1F7BE016F5F7F4F992329F085E71B
S1131C8091E045E00FEF04C085E791E045E003E112
S1131C900E94C10E85E791E00E94980E0E94010EF9
S1131CA00F900F900F900F900F90CF91DF910F91A5
S1131CB0089560E00E94270E0895089585E791E055
S1131CC00E946C1308956F9364E06A95F1F76F9125
S1131CD00197C9F70895A7E0B0E0E1E7FEE00C94AE
S1131CE028148C01FC011182108213821282158245
S1131CF0148217821682613118F080E1808702C055
S1131D00FC016087F801208BCE010196642F0E94AC
S1131D103F0C8F81F80181878B819C819387828717
S1131D208D819E81958784872796E4E00C944414E2
S1131D30FC01A485B585109779F08C919185892B48
S1131D408C93A285B3859C918185809589238C93FE
S1131D5088EC90E00E94630E0895FC01A485B5858B
S1131D60109771F08C919185892B8C93A285B38502
S1131D708C919185892B8C9388EC90E00E94630E62
S1131D800895A7E0B0E0E7ECFEE00C941A147C019F
S1131D901B01642F3901402F20E00E946B0E970134
S1131DA02F5B3F4FF9011082D701AE5BBF4F1C92EE
S1131DB0C7018D5B9F4FFC011082F7017786668611
S1131DC066242E010894411C511C6C015D014901DB
S1131DD029C0062D10E0F101E00FF11FC20160815E
S1131DE00E943F0C2F81F701E00FF11F218B8981A5
S1131DF09A81F801EE0FFF1FEE0DFF1D92A381A340
S1131E008332910511F4F40109C08632910511F46D
S1131E10F50104C08932910521F4F6018081822BF9
S1131E2080836394F7018085681698F22796E2E12F
S1131E300C943614A0E0B0E0E0E2FFE00C941F1430
S1131E40EC015B01FC01EF5BFF4F9080FC01EE5B5A
S1131E50FF4F8080FC01ED5BFF4F708080E009C084
S1131E60E82FF0E0EE0FFF1FEA0DFB1D1182108238
S1131E708F5F98858917A0F384B121E4E22EF12CB9
S1131E80EC0EFD1ED7019C91892B84B987B18E017C
S1131E900E5B1F4FF8019081892B87B98AB193E4B7
S1131EA0C92ED12CCC0EDD1ED6019C91892B8AB96A
S1131EB085B1F7019081892B85B988B1D8019C91AE
S1131EC0892B88B98BB1F6019081892B8BB98AE073
S1131ED090E00E94630E94B1D7018C918095892380
S1131EE084B997B1F80180818095892387B99AB123
S1131EF0D6018C91809589238AB995B1F7018081A7
S1131F008095892385B998B1D8018C9180958923CE
S1131F1088B99BB1F6018081809589238BB9C090E3
S1131F20B000E090B1008091B00083608093B00075
S1131F3082E08093B1000091B20080E090E039C06B
S1131F402091B200201B820F911D020FF3B0F914EF
S1131F5009F04DC096B0981409F049C029B127156D
S1131F6009F045C024C0212F30E0A901440F551FBA
S1131F70F501E40FF51F608171816115710599F414
S1131F804C0F5D1FDA0191964D915C919297DA01A5
S1131F904C912C0F3D1FD90151962C9151974223FE
S1131FA011F4918380831F5F28851217E0F2892C36
S1131FB09F2C2E853F858217930710F2C092B000A4
S1131FC0E092B10020E00FC0E22FF0E0EE0FFF1F1F
S1131FD0EA0DFB1D80819181009721F48E859F85F8
S1131FE0918380832F5F8885281770F305C0F3B031
S1131FF096B079B010E0D8CFCDB7DEB7EDE00C9451
S11320003B14EF92FF920F931F93CF93DF93FC0146
S11320109B0100917C0010917A00E7B0F8B08091A8
S11320207A0086FDFCCF80E00AC0A82FB0E0AA0F9A
S1132030BB1FA20FB31F11961C921E928F5F908537
S1132040891798F397B182A18095892387B998B1AC
S113205082A18095892388B987E880937A0070E00B
S113206029C0DF01A60FB11D51968C915197806450
S113207080937C0080917A00806480937A008091C0
S11320807A0086FDFCCFA62FB0E0AA0FBB1FA20FDB
S1132090B31F40917800509179008D919C911197D4
S11320A0840F951F11969C938E936F5F808568179C
S11320B0C0F27F5F81A1781710F460E0F7CF40E0B1
S11320C014C0C42FD0E0CC0FDD1FC20FD31F61A1F9
S11320D070E0CB0195958795A881B9818A0F9B1FE4
S11320E00E94A613798368834F5F8085481748F35D
S11320F000937C0010937A00F8B8E7B8CDB7DEB748
S1132100E6E00C944214A0E2B0E0E9E8F0E10C94BB
S113211025148C017B01D42E842F8150823018F435
S1132120C8010E94AD0ED80150968C915097882317
S113213089F4C801B7010E941A0FC8010E94980EC1
S1132140BD2DB230D9F5C801BE016F5F7F4F0E942B
S11321501A0F10C0C801B7010E940110C8010E94E3
S1132160980EED2DE23051F5C801BE016F5F7F4F2F
S11321700E94011060E0AE014F5F5F4F1BC0862FCD
S113218090E0880F991FF701E80FF91F840F951F3E
S1132190D8011E962D913C911F97DC018D919C9145
S11321A01197281B390B80819181820F931F918392
S11321B080836F5FF8018085681708F3A096E7E0D5
S11321C00C9441148F929F92AF92BF92CF92DF9260
S11321D0FF920F931F93CF93DF93EC01C62E072F2B
S11321E0F42E423011F0FF2051F48C819D81009730
S11321F009F4A0C08E819F81009709F49BC08F2DA4
S11322008150823050F488819981009709F492C0FA
S11322108A819B81009709F48DC0CE016C2D702FAB
S11322204F2D0E948310AC2CB02E00E010E08824C7
S113223099247AC08F2D813059F4EA81FB81E00F13
S1132240F11FC080D180E881F981E00FF11F0DC03A
S11322508C819D81FF2061F4EE81FF81E00FF11FED
S1132260C080D180800F911FFC01408151812BC01F
S1132270800F911FFC0180819181E881F981E00F39
S1132280F11F40815181CE84DF848417950710F4B7
S1132290A60104C04C0D5D1D481B590BEE81FF8146
S11322A0E00FF11F80819181EA81FB81E00FF11F32
S11322B020813181CE84DF848217930720F0C20EFF
S11322C0D31EC81AD90AC41AD50AD1F0F5016081FF
S11322D0718180E090E09A0140E050E0621B730B52
S11322E0840B950B28EE33E040E050E00E948A1303
S11322F0960140E050E00E94F01337FD0AC002C08E
S113230020E030E0F3E0293E3F072CF028EE33E0F4
S113231002C020E030E0F501219331935F0108947D
S1132320811C911C0E5F1F4F888590E088169906CA
S11323300CF480CFDF91CF911F910F91FF90DF902C
S1132340CF90BF90AF909F908F900895A5E0B0E09C
S1132350ECEAF1E10C941A144C01C62EE72E2D83FD
S11323600E94E210D40118964C901897DE2C642D2C
S113237070E080E090E028EE33E040E050E00E941E
S11323808A1369837A838B839C83EE24FF248701D9
S113239066247724882499245401552436C0F601F0
S11323A03081218142E0242E312CC20CD31CC9017E
S11323B0492F582F1A012D81222329F088EE93E00A
S11323C0821993091C0199EC291631042CF4A3E316
S11323D02A16310494F002C055245394B10188277D
S11323E077FD8095982FA80197010E948A13860E85
S11323F0971EA81EB91E620C731C88EE93E0A0E021
S1132400B0E0E80EF91E0A1F1B1F89819A81AB8177
S1132410BC81E816F9060A071B0709F65520F1F4F2
S1132420552408944108510824EF31E0429EC0012C
S1132430439E900D529E900D11242091B90130912C
S1132440BA0128173907B4F088EE93E0489E90014A
S1132450499E300D589E300D11240EC0930140E06A
S113246050E0C501B4010E94CE132093B90130930A
S1132470BA0102C020E030E0C9012596E2E10C94E3
S11324803614A7E6B0E0E7E4F2E10C941A148C01E8
S11324904B016A01A6962FAFA697DA018D919C9104
S11324A011970097E9F4F801808590E0880F991F4F
S11324B00E946614D60111969C938E93009709F49A
S11324C0E2C0FC0180E090E003C0119211920196F9
S11324D0D80118962C91189730E082179307ACF323
S11324E0F40180819181009789F0EE24FF245E013C
S11324F00894A11CB11CB1E46B2E712C6C0E7D1ED2
S1132500A1E24A2E512C4C0E5D1E23C0D801189610
S11325108C9190E0880F991F0E946614F4019183B6
S11325208083009709F4AFC0FC0180E090E0D801FB
S113253007C01E962D913C911F97219331930196CC
S113254018962C91189730E08217930794F38D0115
S1132550CCCFC801B501A6964FADA6970E948310B3
S1132560D80118968C911897E82FF0E0A596FFAF44
S1132570EEAFA5971301F501A3965FAE4EAEA397F8
S1132580930140E050E0A8965FAE4EAEA89737C0E6
S1132590E114F10461F0A896AEADBFADA8976D91BA
S11325A07C911197808191816817790760F480810B
S11325B09181A896AEADBFADA89711969C938E93CA
S11325C0E114F10449F0D9016D917C911197808156
S11325D091818617970728F480819181D9018D9381
S11325E09C934F5F5F4F2E5F3F4F3296A8968EAD00
S11325F09FADA8970296A8969FAF8EAFA897A59671
S1132600AEADBFADA5974A175B0714F20894E11C61
S1132610F11CBAE0EB16F10409F09BCF80E090E0E6
S11326202CC0F101419151911F01BC01660F771F2C
S1132630D601ED91FC911197E60FF71F20813181AE
S11326402417350710F451834083A396EEADFFADF4
S1132650A39741915191A396FFAFEEAFA397D401F5
S1132660ED91FC911197E60FF71F208131814217FC
S1132670530710F4518340830196F801208530E01C
S11326808217930774F2C959DF4FE2E10C943614B0
S11326901F93CF93DF93EC01162F862F8150823046
S11326A058F4AE014E5F5F4FCE01BE0121E00E949F
S11326B04112123019F00CC0662351F4BE016C5F54
S11326C07F4FAE014A5F5F4FCE0120E00E9441126E
S11326D0DF91CF911F910895CF93DF93EC018A810D
S11326E09B81009711F00E94FE148E819F810097B8
S11326F011F00E94FE1488819981009711F00E94C4
S1132700FE148C819D81009711F00E94FE14DF91CC
S1132710CF910895DB018F939F930E940F14BF9173
S1132720AF91A29F800D911DA39F900DB29F900D1C
S113273011240895991B79E004C0991F961708F095
S1132740961B881F7A95C9F780950895AA1BBB1B11
S113275051E107C0AA1FBB1FA617B70710F0A61B9D
S1132760B70B881F991F5A95A9F780959095BC01BE
S1132770CD01089597FB072E16F4009407D077FD3A
S113278009D00E94A61307FC05D03EF490958195CC
S11327909F4F0895709561957F4F0895A1E21A2E79
S11327A0AA1BBB1BFD010DC0AA1FBB1FEE1FFF1FF1
S11327B0A217B307E407F50720F0A21BB30BE40B41
S11327C0F50B661F771F881F991F1A9469F7609588
S11327D07095809590959B01AC01BD01CF01089542
S11327E0052E97FB1EF400940E94071457FD07D092
S11327F00E94CE1307FC03D04EF40C94071450959A
S11328004095309521953F4F4F4F5F4F08959095D8
S11328108095709561957F4F8F4F9F4F08950E94CB
S11328205714A59F900DB49F900DA49F800D911DEA
S1132830112408952F923F924F925F926F927F924C
S11328408F929F92AF92BF92CF92DF92EF92FF92BC
S11328500F931F93CF93DF93CDB7DEB7CA1BDB0B68
S11328600FB6F894DEBF0FBECDBF09942A8839880D
S113287048885F846E847D848C849B84AA84B98414
S1132880C884DF80EE80FD800C811B81AA81B98120
S1132890CE0FD11D0FB6F894DEBF0FBECDBFED0134
S11328A00895EE0FFF1F0590F491E02D0994A29F67
S11328B0B001B39FC001A39F700D811D1124911D10
S11328C0B29F700D811D1124911D0895CF93DF9344
S11328D08230910510F482E090E0E091B503F0912C
S11328E0B60320E030E0A0E0B0E0309739F1408159
S11328F0518148175907B8F04817590771F4828174
S11329009381109729F013969C938E9312972CC061
S11329109093B6038093B50327C02115310531F098
S11329204217530718F0A901DB0101C0EF019A0116
S1132930BD01DF010280F381E02DD7CF21153105E0
S1132940F9F0281B390B2430310580F48A819B81EE
S11329506115710521F0FB019383828304C0909378
S1132960B6038093B503FE01329644C0FE01E20F24
S1132970F31F8193919322503109398328833AC0FC
S11329802091B3033091B403232B41F420912D0102
S113299030912E013093B4032093B30320912B0183
S11329A030912C012115310541F42DB73EB74091EA
S11329B02F0150913001241B350BE091B303F091AA
S11329C0B403E217F307A0F42E1B3F0B28173907B3
S11329D078F0AC014E5F5F4F2417350748F04E0F77
S11329E05F1F5093B4034093B3038193919302C048
S11329F0E0E0F0E0CF01DF91CF910895CF93DF9332
S1132A00009709F487C0FC01329713821282C091A7
S1132A10B503D091B603209781F420813181280F2A
S1132A20391F8091B3039091B4038217930779F50A
S1132A30F093B403E093B3036DC0DE0120E030E013
S1132A40AE17BF0750F412964D915C9113979D01F8
S1132A504115510509F1DA01F3CFB383A283408113
S1132A605181840F951F8A179B0771F48D919C9156
S1132A701197840F951F02969183808312968D91EE
S1132A809C911397938382832115310529F4F09344
S1132A90B603E093B5033EC0D9011396FC93EE93BD
S1132AA012974D915D91A40FB51FEA17FB0779F4B6
S1132AB080819181840F951F0296D90111969C9370
S1132AC08E938281938113969C938E931297E0E068
S1132AD0F0E08A819B81009719F0FE01EC01F9CFA7
S1132AE0CE01029628813981820F931F2091B3036E
S1132AF03091B4032817390769F4309729F41092F8
S1132B00B6031092B50302C013821282D093B403A9
S1132B10C093B303DF91CF910895DC01FC01672FCB
S1132B2071917723E1F7329704C07C916D937083A0
S1132B306291AE17BF07C8F3089510E0CCEAD0E065
S1132B4004C0FE010E9453142296CE3AD107C9F75D
S1072B50F894FFCF23
S1132B54881301040400D007F4010F009C01B5019B
S1132B64CF01EA0107022602470269028E02B50276
S1132B74DE020A0302080E0F1011120000B703202C
S1132B8400200000010203040506FF6D5600507284
S10D2B94657373204200476F2100AF
S9030000FC
