S01000006669726D776172652E73726563B7
S11300000C942A000C9447000C9447000C9447006D
S11300100C9447000C9447000C9447000C94470040
S11300200C9447000C9447000C9447000C94A600D1
S11300300C9447000C9447000C9447000C94470020
S11300400C9447000C9447000C9447000C94470010
S11300500C94470011241FBECFE5D8E0DEBFCDBF0E
S113006011E0A0E6B0E0E8ECF0E102C005900D92EA
S1130070A431B107D9F723E0A4E1B1E001C01D9296
S1130080AC30B207E1F70E94A0050C9462080C940E
S1130090000085E088BB8EB582608EBD08958AE03D
S11300A088BB8EB582608EBD089589E088BB8EB50D
S11300B082608EBD089586E088BB8EB582608EBD59
S11300C0089518BA8EB58D7F8EBD0895DC01CB01DD
S11300D0880F991FAA1FBB1F880F991FAA1FBB1F38
S11300E09C01AD01220F331F441F551F220F331FE4
S11300F0441F551F60E072E18AE790E00E943008D7
S1130100CA01B90161507109810991090E949007DE
S11301100E94CD07272F332720BD69B988E18AB90A
S113012086E880BD08955D9BFECF8CB90895CF937A
S1130130DF93EC018881882331F021960E9493009B
S113014089918111FBCFDF91CF9108951F920F9276
S11301500FB60F9211242F938F939F9380911401C4
S113016090911501843F21E0920728F40196909321
S11301701501809314019F918F912F910F900FBEC1
S11301800F901F901895829BFECF839BFCCF83B367
S113019090E89A95F1F793B39813F5CFC99B03C0F0
S11301A083B38095089583B30895982F98719831F7
S11301B029F479BD68BD7BBD6ABD089581FF05C082
S11301C0685C710979BD68BD089586FF05C0685CE7
S11301D071097BBD6ABD089582FF05C06C58710921
S11301E079BD68BD089585FF05C06C5871097BBD54
S11301F06ABD089583FF05C06055710979BD68BD66
S1130200089584FF04C0605571097BBD6ABD0895DB
S1130210CF93DF9320911801222309F496C080E044
S113022090E0D3E7C2E765E77CE650E040E025379D
S113023009F084C09C0121503109F901E85EFE4FA8
S1130240A081A23789F4FC01E85EFE4FE181E33727
S113025029F5F901E85EFE4F7083FC01E85EFE4F6C
S1130260228121115AC064C0A33759F4FC01E85E0D
S1130270FE4FE181E23731F5F901E85EFE4F70830C
S1130280ECCFAC3659F4FC01E85EFE4FE181E23775
S1130290D9F4F901E85EFE4F6083DFCFA23791F411
S11302A0FC01E85EFE4FE181E23729F4F901E85EE2
S11302B0FE4FD083D2CFEC3681F6F901E85EFE4FD3
S11302C06083CBCFAC3699F4FC01E85EFE4FE1814C
S11302D0E33729F4F901E85EFE4FC083BECFEC3664
S11302E009F0BBCFF901E85EFE4FD083B6CFA33748
S11302F009F0B3CFFC01E85EFE4FE181EC3629F44E
S1130300F901E85EFE4FC083A8CFE33709F0A5CF1B
S1130310F901E85EFE4F6083A0CFDC01A85EBE4F0A
S1130320FC01E55EFE4F2D93019621912111FBCF37
S1130330FC01E85EFE4F1082852F942F0196FC018C
S1130340E85EFE4F2081211172CFDF91CF91089595
S1130350CF93409118014423B9F180E090E0C5E7C0
S113036070E060E001C0C9014C3639F59C012F5F93
S11303703F4FF901E85EFE4F40814C36F1F4FC0139
S1130380E85EFE4F52815C3671F7FC01E85EFE4F79
S1130390DF011197CC932481222349F0DF01FC0172
S11303A0E35EFE4F2D93019621912111FBCFFC01B9
S11303B0E85EFE4F1082872F962F0196FC01E85EBF
S11303C0FE4F40814111D0CFCF9108950F931F93D9
S11303D0CF93DF9388E191E00E9452088091180145
S11303E0882389F0A9E1B1E0E8E1F1E02CE692E7A5
S11303F08C3611F4908303C0823709F420838D91E5
S113040031968111F5CF80E690E00E94970088E153
S113041091E00E949700C8E1D1E0FE010190002024
S1130420E9F731978F01085111400E9408010E9499
S1130430A801FE0101900020E9F73197E851F1404D
S1130440E017F10751F782E790E00E94970088E1F6
S113045091E00E94970082E890E00E949700DF916B
S1130460CF911F910F910895EF92FF920F931F93D5
S1130470CF93DF93EC012FEF82E597E0215080408A
S11304809040E1F700C000000E944F007E0124ED7F
S1130490E21A2EEFF20AF9BCE8BCFBBCEABC8FE717
S11304A098E321E0815090402040E1F700C0000033
S11304B00E9461008FE798E321E081509040204042
S11304C0E1F700C000000E945B008E0108531F4F3B
S11304D019BD08BD1BBD0ABD8FEF90E722E0815016
S11304E090402040E1F700C00000D9BDC8BDDBBD8D
S11304F0CABD0E94C30080768036D9F70E94C3002B
S113050080738033D9F70E94C30088718831D9F78A
S11305108FE39CE90197F1F700C000000E945500A9
S1130520F9BCE8BCFBBCEABC9FE728E381E091503E
S113053020408040E1F700C000000E9461009FE776
S113054028E381E0915020408040E1F700C00000A2
S11305500E94490019BD08BD1BBD0ABD9FE728E3E1
S113056081E0915020408040E1F700C00000D9BDF7
S1130570C8BDDBBDCABDDF91CF911F910F91FF9024
S1130580EF9008950F931F93CF93DF93EC010E9494
S113059061002FE788E391E0215080409040E1F72B
S11305A000C000000E944F008E0108531F4F19BD68
S11305B008BD1BBD0ABD2FE788E391E021508040B0
S11305C09040E1F700C000000E9461000E94E60133
S11305D02FEF84E39CE0215080409040E1F700C07D
S11305E000000E944F0019BD08BD1BBD0ABD2FE7C6
S11305F088E391E0215080409040E1F700C0000082
S1130600D9BDC8BDDBBDCABD0E94C300827421F040
S11306100E94C3008274E1F70E9461002FE788E31F
S113062091E0215080409040E1F700C000000E941A
S11306304900CE018C599F4F99BD88BD9BBD8ABD91
S11306402FE788E391E0215080409040E1F700C01B
S11306500000D9BDC8BDDBBDCABD2FEF83EC99E056
S1130660215080409040E1F700C000000E944F00FC
S113067019BD08BD1BBD0ABD2FE788E391E02150D9
S113068080409040E1F700C000000E9461002FE725
S113069088E391E0215080409040E1F700C00000E1
S11306A00E945B0019BD08BD1BBD0ABD2FEF80E78A
S11306B092E0215080409040E1F700C00000D9BD95
S11306C0C8BDDBBDCABD2FEF80E792E0215080405A
S11306D09040E1F700C000000E94C3008076E1F77B
S11306E00E94C30080768036D9F70E94C3008073CD
S11306F08033D9F70E94C30088718831D9F78FE31A
S11307009CE90197F1F700C000000E945500CE015A
S1130710845D9E4F99BD88BD9BBD8ABD9FE728E33C
S113072081E0915020408040E1F700C000000E9429
S113073061009FE728E381E0915020408040E1F789
S113074000C000000E94490019BD08BD1BBD0ABDC0
S11307509FE728E381E0915020408040E1F700C00A
S11307600000D9BDC8BDDBBDCABDDF91CF911F91CB
S11307700F910895EF92FF920F931F93CF93DF93FE
S1130780EC010E944F007E0124EDE21A2EEFF20AE2
S1130790F9BCE8BCFBBCEABC8FE798E321E08150DC
S11307A090402040E1F700C000000E9461008FE704
S11307B098E321E0815090402040E1F700C0000020
S11307C00E945B008E0108531F4F19BD08BD1BBD5D
S11307D00ABD8FEF90E722E0815090402040E1F77E
S11307E000C00000D9BDC8BDDBBDCABD0E94C300A6
S11307F080768036D9F70E94C30080738033D9F79E
S11308000E94C30088718831D9F78FE39CE901976E
S1130810F1F700C000000E945500F9BCE8BCFBBC25
S1130820EABC9FE728E381E0915020408040E1F753
S113083000C000000E9461009FE728E381E091501E
S113084020408040E1F700C000000E94490019BD2B
S113085008BD1BBD0ABD9FE728E381E091502040FD
S11308608040E1F700C00000D9BDC8BDDBBDCABDF2
S1130870DF91CF911F910F91FF90EF900895EF9228
S1130880FF920F931F93CF93DF93EC010E944F00CD
S11308907E0124EDE21A2EEFF20AF9BCE8BCFBBC9F
S11308A0EABC8FE798E321E0815090402040E1F7D3
S11308B000C000000E9461008FE798E321E08150AE
S11308C090402040E1F700C000000E9455008E01D6
S11308D008531F4F19BD08BD1BBD0ABD8FEF90E71C
S11308E022E0815090402040E1F700C00000D9BDD3
S11308F0C8BDDBBDCABD0E94C30086708630D9F76F
S11309000E94C3008C708C30D9F70E94C300887198
S11309108831D9F78FE39CE90197F1F700C0000013
S11309200E945B00F9BCE8BCFBBCEABC9FE728E37F
S113093081E0915020408040E1F700C000000E9417
S113094061009FE728E381E0915020408040E1F777
S113095000C000000E94490019BD08BD1BBD0ABDAE
S11309609FE728E381E0915020408040E1F700C0F8
S11309700000D9BDC8BDDBBDCABDDF91CF911F91B9
S11309800F91FF90EF9008950E94BA038091160191
S113099090911701FC01E85EFE4F2CE6208301963E
S11309A0909317018093160108950E943F0480914B
S11309B0160190911701FC01E85EFE4F22E72083A7
S11309C00196909317018093160108950E94BA032B
S11309D08091160190911701FC01E85EFE4F2CE610
S11309E0208301969093170180931601089599BD71
S11309F088BD9BBD8ABD0E944900809116019091DB
S1130A001701FC01E85EFE4F23E7208301969093D3
S1130A1017018093160108950E94BA03809116016C
S1130A2090911701FC01E85EFE4F2CE620830196AD
S1130A30909317018093160108950E94BA03809140
S1130A40160190911701FC01E85EFE4F2CE620830D
S1130A500196909317018093160108950E94340221
S1130A608091160190911701FC01E85EFE4F25E785
S1130A702083019690931701809316010895E091C5
S1130A801601F0911701E85EFE4F10820E94C20227
S1130A9008951F93CF93DF93EB01209116013091BA
S1130AA01701F901E85EFE4F10812F5F3F4F30932D
S1130AB0170120931601812F0E949300133739F4F4
S1130AC0D9BDC8BDDBBDCABD0E94490035C01537BC
S1130AD021F4CE010E9434022FC01C3621F4CE0131
S1130AE00E94BA0329C0123721F4CE010E943F04A8
S1130AF023C00E9461002FE788E391E021508040E9
S1130B009040E1F700C000000E944F00C853DF4F3F
S1130B10D9BDC8BDDBBDCABD2FE788E391E0215034
S1130B2080409040E1F700C000000E9461008CE921
S1130B3090E00E949700FFCFDF91CF911F9108951D
S1130B4083E08BBB1ABA18BA9FE097BB9FEF95BBA3
S1130B5014BA12BA90E391BB83BF12BE1CBE92EAD0
S1130B609FBD98E19EBD1DBC1CBC87BD88EE86BDA3
S1130B7086E391E09BBD8ABD99BD88BD60E875E2BE
S1130B8080E090E00E94660089EE90E00E94970069
S1130B9081E089BF7894C899FECF88EF90E00E94E5
S1130BA097002FEF84E39CE0215080409040E1F7D0
S1130BB000C000000E9449008EEF91E099BD88BDFD
S1130BC09BBD8ABD2FEF86E791E021508040904085
S1130BD0E1F700C0000086E391E099BD88BD9BBDAC
S1130BE08ABD0E94C300827421F00E94C3008274F3
S1130BF0E1F710E0E12CF12CA12CB12CCC24C3940E
S1130C00912CDC2C03C0FC2E01C0EC2E0E94C300EE
S1130C10082F66E371E00E94D500802F807F803F1B
S1130C2009F056C026E331E039BD28BD3BBD2ABDDD
S1130C30CA2DDB2D13C00E94C300082F81FDFD2C9B
S1130C40802F8E778E3751F42196C9359BE1D907D1
S1130C5028F086E391E00E943F05A2C0802F8274B1
S1130C6051F7CF2D2FEF80E792E021508040904044
S1130C70E1F700C000000E94C3008E7709F03EC176
S1130C80F11011C0111105C086E391E00E94C40463
S1130C90BDCF113009F0BACF86E391E00E94E6049B
S1130CA0192DF92CB3CFC13009F0B0CF111106C002
S1130CB086E391E00E940C05F92CA8CF113009F0CD
S1130CC0A2CF86E391E00E941D05192DF92C9ECF39
S1130CD0802F8F708F3009F056C026E331E039BD84
S1130CE028BD3BBD2ABDCA2DDB2D13C00E94C30005
S1130CF0082F86FDED2C802F8E778E3751F42196A8
S1130D00C9359BE1D90728F086E391E00E943F05AD
S1130D1047C0802F827451F7CE2D2FEF80E792E0E9
S1130D20215080409040E1F700C000000E94C300C1
S1130D308E7709F0E7C0E11011C0111105C086E3F8
S1130D4091E00E94D50462CF113009F05FCF86E3B1
S1130D5091E00E94F704192DE92C58CFC13009F015
S1130D6055CF111106C086E391E00E940C05E92CD1
S1130D704DCF113009F049CF86E391E00E941D0563
S1130D80192DE92C43CF802F8E7709F03FCF86E3CE
S1130D9091E099BD88BD9BBD8ABD0E942E0536CFCA
S1130DA01092170110921601F12C00E00E94C3006A
S1130DB0182F66E371E00E94D500812F807F803F69
S1130DC009F044C026E331E039BD28BD3BBD2ABD4E
S1130DD0CF2DD02F2AC00E94C300182F8E778E37B4
S1130DE021F52196C9359BE1D907F8F00E946100ED
S1130DF02FE788E391E0215080409040E1F700C064
S1130E0000000E944F008EEF91E099BD88BD9BBD0C
S1130E108ABD2FE788E391E0215080409040E1F7BC
S1130E2000C000000E946100FFCF1274A1F62FEFF2
S1130E3080E792E0215080409040E1F700C000003C
S1130E4066E371E081E00E944905B0CF812F8F7085
S1130E508F3009F044C026E331E039BD28BD3BBDE5
S1130E602ABDCF2DD02F2AC00E94C300182F8E7701
S1130E708E3721F52196C9359BE1D907F8F00E94F8
S1130E8061002FE788E391E0215080409040E1F732
S1130E9000C000000E944F008EEF91E099BD88BD14
S1130EA09BBD8ABD2FE788E391E0215080409040AC
S1130EB0E1F700C000000E946100FFCF1274A1F6A8
S1130EC02FEF80E792E0215080409040E1F700C08E
S1130ED0000066E371E082E00E94490567CF1E7757
S1130EE009F064CF86E391E099BD88BD9BBD8ABDBE
S1130EF066E371E087E00E94490558CFFF2009F4BA
S1130F00CBCE04C0EE2009F422CF05C0C13009F4D1
S1130F10D8CE1C2D7BCEC13009F42ECF1C2D76CE1D
S1130F20E89409C097FB3EF490958095709561957F
S1130F307F4F8F4F9F4F9923A9F0F92F96E9BB2735
S1130F409395F695879577956795B795F111F8CFB1
S1130F50FAF4BB0F11F460FF1BC06F5F7F4F8F4F1C
S1130F609F4F16C0882311F096E911C0772321F012
S1130F709EE8872F762F05C0662371F096E8862FAA
S1130F8070E060E02AF09A95660F771F881FDAF701
S1130F90880F9695879597F9089541D0A8F19E57A3
S1130FA0A8F1985160F039F1983070F5092E99271D
S1130FB0660F771F881F991F0A94D1F71CC0BB279F
S1130FC0993F4CF4B111B1E0B62B672F782F8827E5
S1130FD0985FB1F708C0869577956795B79508F43B
S1130FE0B1609395C1F7BB0F30F411F460FF03C0F7
S1130FF06F5F7F4F8F4F3EF490958095709561950C
S11310007F4F8F4F9F4F0895689424C022C057FD8F
S11310109058440F551F59F05F3F71F04795880F62
S113102097FB991F61F09F3F79F0879508951216F9
S113103013061406551FF2CF4695F1DF08C01616A5
S113104017061806991FF1CF869571056105089456
S11310500895E894BB2766277727CB0197F908956D
S1131060A1E21A2EAA1BBB1BFD010DC0AA1FBB1FA8
S1131070EE1FFF1FA217B307E407F50720F0A21B1A
S1131080B30BE40BF50B661F771F881F991F1A9487
S113109069F760957095809590959B01AC01BD01B1
S11310A0CF010895DC01FC01672F71917723E1F7EB
S11310B0329704C07C916D9370836291AE17BF0721
S10B10C0C8F30895F894FFCF72
S11310C80D0D526576657273656420446174613AE6
S11310D820000D0D536F6C76656420446174613A89
S11310E820000D0D536F6C76656420446174612093
S11310F850726163746963616C3A20000D0D456E2A
S11311086420537475636B2121210D0D0D2D2D2D34
S11311182D2D2D2D2D2D2D2D2D2D2D2D2D2D2D2DF3
S11311282D2D2D2D2D2D2D2D2D2D2D2D2D2D2D2DE3
S11311382D2D2D2D2D2D2D2D2D2D2D2D2D2D2D2DD3
S11311482D2D2D2D0D0D0D0D000D4920616D2072D5
S11311586561647921210D00737461727420746F60
S11311687572203A290D0D537475636B20446174AC
S1071178613A2000B4
S9030000FC
