:100000000C942A000C943C000C943C000C943C0092
:100010000C943C000C943C000C943C000C943C0070
:100020000C943C000C943C000C943C000C943C0060
:100030000C943C000C943C000C943C000C943C0050
:100040000C943C000C943C000C943C000C943C0040
:100050000C943C0011241FBECFE5D8E0DEBFCDBF1D
:1000600021E0A0E6B0E001C01D92A83FB207E1F791
:100070000E9488020C9480040C94000085E088BBE8
:100080008EB582608EBD08958AE088BB8EB5826091
:100090008EBD089589E088BB8EB582608EBD0895BF
:1000A00086E088BB8EB582608EBD089518BA8EB585
:1000B0008D7F8EBD0895829BFECF839BFCCF83B343
:1000C000089588E690E00E94700468E670E080E39E
:1000D00091E00E94690408950F931F93CF93DF93DB
:1000E000EC012FEF82E597E0215080409040E1F74E
:1000F00000C000000E9450008E01045D1E4F1BBD19
:100100000ABD2FE788E391E0215080409040E1F75D
:1001100000C00000CE01C29799BD88BD805B9F4F93
:100120009BBD8ABD0E945B0080768036D9F70E9415
:100130005B0080738033D9F70E945B00887188313F
:10014000D9F70E943E00D9BDC8BD1BBD0ABD2FE72F
:1001500088E391E0215080409040E1F700C000002A
:10016000D9BDC8BDDBBDCABDDF91CF911F910F9135
:1001700008950F931F93CF93DF93EC010E945600D5
:100180000E9461002FEF89E698E121508040904065
:10019000E1F700C000000E9444000E945B008274EE
:1001A00021F00E945B008274E1F70E9456002FEF5D
:1001B00080E792E0215080409040E1F700C00000CD
:1001C0000E943E00CE01449699BD88BD9BBD8ABD6C
:1001D0002FEF83EC99E0215080409040E1F700C080
:1001E00000000E9450008E01045D1E4F1BBD0ABD21
:1001F0002FE788E391E0215080409040E1F700C074
:100200000000CE01C29799BD88BD805B9F4F9BBD0A
:100210008ABD2FEF80E792E0215080409040E1F7C7
:1002200000C000000E945B008076E1F70E945B0046
:1002300080768036D9F70E945B0080738033D9F7CF
:100240000E945B0088718831D9F70E943E00D9BDB9
:10025000C8BD1BBD0ABD2FE788E391E02150804057
:100260009040E1F700C00000D9BDC8BDDBBDCABDEC
:10027000DF91CF911F910F9108950F931F93CF930B
:10028000DF93EC010E9450008E01045D1E4F1BBDE8
:100290000ABD2FE788E391E0215080409040E1F7CC
:1002A00000C00000CE01C29799BD88BD805B9F4F02
:1002B0009BBD8ABD0E945B0080768036D9F70E9484
:1002C0005B0080738033D9F70E943E00D9BDC8BD62
:1002D0001BBD0ABD2FE788E391E02150804090408C
:1002E000E1F700C00000D9BDC8BDDBBDCABDDF91CC
:1002F000CF911F910F9108950F931F93CF93DF9389
:10030000EC010E944A008E01045D1E4F19BD08BD1C
:100310002FE788E391E0215080409040E1F700C052
:100320000000CE01C2979BBD8ABD805B9F4F99BDE7
:1003300088BD0E945B0086708630D9F70E945B0002
:100340008C708C30D9F70E943E00DBBDCABD19BD50
:1003500008BD2FE788E391E0215080409040E1F70D
:1003600000C00000D9BDC8BDDBBDCABDDF91CF91C3
:100370001F910F9108950E943D018091620090911C
:100380006300FC01E859FF4F2CE62083019690930F
:1003900063008093620008950E947C018091620056
:1003A00090916300FC01E859FF4F22E720830196FA
:1003B000909363008093620008950E943D018091B4
:1003C000620090916300FC01E859FF4F2CE6208306
:1003D00001969093630080936200089599BD88BD53
:1003E0009BBD8ABD0E943E00809162009091630097
:1003F000FC01E859FF4F23E72083019690936300A7
:100400008093620010926400109265001092660062
:100410001092670008950E943D01809162009091C2
:100420006300FC01E859FF4F2CE62083019690936E
:1004300063008093620008950E943D0180916200F4
:1004400090916300FC01E859FF4F2CE62083019650
:10045000909363008093620008950E946C008091E5
:10046000640090916500A0916600B0916700803DA6
:100470009740A105B10578F08091620090916300EA
:10048000FC01E859FF4F25E7208301969093630014
:100490008093620008958091620090916300FC0156
:1004A000E959FF4F2CE620830895E0916200F09116
:1004B0006300E859FF4F10820E94B900089520910F
:1004C000600030916100F901E05DFE4F40812F5FD7
:1004D0003F4F3093610020936000433739F499BD5A
:1004E00088BD9BBD8ABD0E943E000895453719F422
:1004F0000E946C000895423719F40E943D0108954E
:100500004C3619F40E947C0108950E94560008950B
:1005100083E08BBB1ABA18BA9FE097BB9FEF95BBDD
:1005200014BA12BA90E391BB92EA9FBD98E19EBDC6
:100530001DBC1CBC87BD88EE86BD8CE291E09BBDD6
:100540008ABD99BD88BDC899FECF2FEF89E698E195
:10055000215080409040E1F700C000000E943E0022
:1005600084EF91E099BD88BD9BBD8ABD2FEF86E7E2
:1005700091E0215080409040E1F700C000008CE203
:1005800091E099BD88BD9BBD8ABD0E945B008274CD
:1005900021F00E945B008274E1F7D12CA12CB12CD8
:1005A0000F2EF6E9EF2EF12CF02DCCE2D1E0612CEC
:1005B000712C99249394C12C892C03C0B12E01C0B5
:1005C000A12E8091640090916500A0916600B09189
:1005D0006700803D27E09207A105B10558F4019618
:1005E000A11DB11D8093640090936500A0936600E7
:1005F000B09367000E945B00982F9871983129F49E
:10060000D9BDC8BDDBBDCABD09C083FF03C0F9BCED
:10061000E8BC04C084FF02C0FBBCEABC982F907FFA
:10062000903F09F053C0D9BDC8BDDBBDCABD062D82
:10063000172D17C085E88A95F1F700000E945B002E
:1006400081FDB82C982F9E779E3759F40F5F1F4F6E
:1006500009359BE1190728F08CE291E00E945502D0
:1006600094C0827439F71B2D2FEF80E792E0215060
:1006700080409040E1F700C000000E945B008E7750
:1006800009F015C1B1100FC0D11004C0CE010E94F5
:10069000BB0197CF21E0D21294CFCE010E94DD01A1
:1006A000DC2CBC2C8ECF113009F08BCFD11005C0C3
:1006B000CE010E940B02BC2C84CF81E0D8127ECFE9
:1006C000CE010E941C02DC2CBC2C7BCF982F9F708B
:1006D0009F3009F053C0D9BDC8BDDBBDCABD062DD2
:1006E000172D17C095E89A95F1F700000E945B005E
:1006F00086FDA82C982F9E779E3759F40F5F1F4FC9
:1007000009352BE1120728F08CE291E00E94550296
:100710003CC0827439F71A2D8FEF90E722E08150A8
:1007200090402040E1F700C000000E945B008E77FF
:1007300009F0C1C0A1100FC0D11004C0CE010E94A9
:10074000CC013FCF81E0D8123CCFCE010E94EE0118
:10075000DC2CAC2C36CF113009F033CFD11005C0D2
:10076000CE010E940B02AC2C2CCF91E0D91228CFE5
:10077000CE010E941C02DC2CAC2C23CF8E7709F01A
:1007800020CFCE010E942D021CCF0E945B00982F2B
:100790009871983139F48CE291E099BD88BD9BBD88
:1007A0008ABD0EC0982F9F7029F084E690E099BD15
:1007B00088BD06C0807F21F084E690E09BBD8ABDA5
:1007C0000F2EF6E9EF2EF12CF02D0F2EFCE2CF2E9E
:1007D000DD24D394F02DA12CB12C0E945B00982F26
:1007E0009871983129F4D9BCC8BCDBBCCABC09C01B
:1007F00083FF03C0F9BCE8BC04C084FF02C0FBBC9B
:10080000EABC982F907F903F19F5D9BCC8BCDBBCDF
:10081000CABCCA2DDB2D082F0274182F1E7709C001
:100820001E3739F42196C9352BE1D20710F00E940A
:1008300056000111F5CF8FEF90E722E081509040F4
:100840002040E1F700C00000C6010E945F02C5CF52
:10085000982F9F709F3021F5D9BCC8BCDBBCCABCA7
:100860000A2D1B2DD82FD274C82FCE770AC0CE37B1
:1008700041F40F5F1F4F09358BE1180710F00E94FC
:100880005600D111F4CF9FEF20E782E09150204035
:100890008040E1F700C00000C6010E945F029DCFCA
:1008A0008E7709F09ACFC6010E945F0296CFBB20D7
:1008B00009F4F3CE04C0AA2009F447CF05C01130D3
:1008C00009F4FECED92C7DCE113009F451CFD92CAC
:1008D00078CEFB01DC0101900D920020E1F7089534
:1008E000DC01FC01672F71917723E1F7329704C097
:1008F0007C916D9370836291AE17BF07C8F3089522
:04090000F894FFCF99
:00000001FF
