S01000006669726D776172652E73726563B7
S11300000C942A000C9447000C9447000C9447006D
S11300100C9447000C9447000C9447000C94470040
S11300200C9447000C9447000C9447000C94A600D1
S11300300C9447000C9447000C9447000C94470020
S11300400C9447000C9447000C9447000C94470010
S11300500C94470011241FBECFE5D8E0DEBFCDBF0E
S113006011E0A0E6B0E0E8EFFCE002C005900D92DC
S1130070A431B107D9F723E0A4E1B1E001C01D9296
S1130080AC30B207E1F70E94CE030C947A060C94CC
S1130090000085E088BB8EB582608EBD08958AE03D
S11300A088BB8EB582608EBD089589E088BB8EB50D
S11300B082608EBD089586E088BB8EB582608EBD59
S11300C0089518BA8EB58D7F8EBD0895DC01CB01DD
S11300D0880F991FAA1FBB1F880F991FAA1FBB1F38
S11300E09C01AD01220F331F441F551F220F331FE4
S11300F0441F551F60E072E18AE790E00E944806C1
S1130100CA01B90161507109810991090E94A805C8
S11301100E94E505272F332720BD69B988E18AB9F4
S113012086E880BD08955D9BFECF8CB90895CF937A
S1130130DF93EC018881882331F021960E9493009B
S113014089918111FBCFDF91CF9108951F920F9276
S11301500FB60F9211242F938F939F9380911401C4
S113016090911501843F21E0920728F40196909321
S11301701501809314019F918F912F910F900FBEC1
S11301800F901F901895829BFECF839BFCCF83B367
S113019095E89A95F1F7000093B39813F4CF83B3DD
S11301A00895CF93DF9388E191E00E946A068091DD
S11301B01801882389F0A9E1B1E0E8E1F1E02CE637
S11301C092E78C3611F4908303C0823709F42083BC
S11301D08D9131968111F5CF80E690E00E949700D1
S11301E088E191E00E94970020911801222309F4EC
S11301F096C080E090E0D3E7C2E765E77CE650E094
S113020040E0253709F084C09C0121503109F901EF
S1130210E85EFE4FA081A23789F4FC01E85EFE4F40
S1130220E181E33729F5F901E85EFE4F7083FC01B3
S1130230E85EFE4F228121115AC064C0A33759F4ED
S1130240FC01E85EFE4FE181E23731F5F901E85E39
S1130250FE4F7083ECCFAC3659F4FC01E85EFE4FE0
S1130260E181E237D9F4F901E85EFE4F6083DFCF24
S1130270A23791F4FC01E85EFE4FE181E23729F4F4
S1130280F901E85EFE4FD083D2CFEC3681F6F90156
S1130290E85EFE4F6083CBCFAC3699F4FC01E85E98
S11302A0FE4FE181E33729F4F901E85EFE4FC08394
S11302B0BECFEC3609F0BBCFF901E85EFE4FD08328
S11302C0B6CFA33709F0B3CFFC01E85EFE4FE1815E
S11302D0EC3629F4F901E85EFE4FC083A8CFE3377A
S11302E009F0A5CFF901E85EFE4F6083A0CFDC01E1
S11302F0A85EBE4FFC01E55EFE4F2D930196219151
S11303002111FBCFFC01E85EFE4F1082852F942F54
S11303100196FC01E85EFE4F2081211172CF82E735
S113032090E00E94970088E191E00E94970082E8A3
S113033090E00E949700DF91CF9108950F931F934F
S1130340CF93DF93EC012FEF82E597E021508040BB
S11303509040E1F700C000000E945B008E01045D44
S11303601E4F1BBD0ABD2FE788E391E0215080405A
S11303709040E1F700C00000CE01C29799BD88BD4E
S1130380805B9F4F9BBD8ABD0E94C30080768036F0
S1130390D9F70E94C30080738033D9F70E94C30049
S11303A088718831D9F70E944900D9BDC8BD1BBDE9
S11303B00ABD2FE788E391E0215080409040E1F7A7
S11303C000C00000D9BDC8BDDBBDCABDDF91CF915F
S11303D01F910F9108950F931F93CF93DF93EC0117
S11303E00E9461000E94D1002FEF89E698E121501C
S11303F080409040E1F700C000000E944F008E0151
S113040008531F4F19BD08BD1BBD0ABD2FE788E364
S113041091E0215080409040E1F700C00000D9BD38
S1130420C8BDDBBDCABD0E94C300827421F00E9416
S1130430C3008274E1F70E9461002FEF80E792E02D
S1130440215080409040E1F700C000000E94490024
S113045019BD08BD1BBD0ABD2FE788E391E02150FB
S113046080409040E1F700C00000CE01449699BD61
S113047088BD9BBD8ABD2FEF83EC99E0215080405D
S11304809040E1F700C000000E945B008E01045D13
S11304901E4F1BBD0ABD2FE788E391E02150804029
S11304A09040E1F700C00000CE01C29799BD88BD1D
S11304B0805B9F4F9BBD8ABD2FEF80E792E0215068
S11304C080409040E1F700C000000E94C3008076A5
S11304D0E1F70E94C30080768036D9F70E94C300FA
S11304E080738033D9F70E94C30088718831D9F7AB
S11304F00E944900D9BDC8BD1BBD0ABD2FE788E3D2
S113050091E0215080409040E1F700C00000D9BD47
S1130510C8BDDBBDCABDDF91CF911F910F91089576
S11305200F931F93CF93DF93EC010E945B008E0126
S1130530045D1E4F1BBD0ABD2FE788E391E02150E7
S113054080409040E1F700C00000CE01C29799BD01
S113055088BD805B9F4F9BBD8ABD0E94C30080768F
S11305608036D9F70E94C30080738033D9F70E9484
S11305704900D9BDC8BD1BBD0ABD2FE788E391E082
S1130580215080409040E1F700C00000D9BDC8BDB3
S1130590DBBDCABDDF91CF911F910F9108950F93D9
S11305A01F93CF93DF93EC010E9455008E01045DED
S11305B01E4F19BD08BD2FE788E391E0215080400C
S11305C09040E1F700C00000CE01C2979BBD8ABDF8
S11305D0805B9F4F99BD88BD0E94C30086708630A2
S11305E0D9F70E94C3008C708C30D9F70E9449005F
S11305F0DBBDCABD19BD08BD2FE788E391E02150DA
S113060080409040E1F700C00000D9BDC8BDDBBD0B
S1130610CABDDF91CF911F910F9108950E9490025E
S11306208091160190911701FC01E85EFE4F2CE6C3
S113063020830196909317018093160108950E94D8
S1130640CF028091160190911701FC01E85EFE4FE4
S113065022E7208301969093170180931601089551
S11306600E9490028091160190911701FC01E85EAE
S1130670FE4F2CE620830196909317018093160178
S1130680089599BD88BD9BBD8ABD0E944900809193
S1130690160190911701FC01E85EFE4F23E72083C9
S11306A00196909317018093160108950E94900279
S11306B08091160190911701FC01E85EFE4F2CE633
S11306C020830196909317018093160108950E9448
S11306D090028091160190911701FC01E85EFE4F93
S11306E02CE62083019690931701809316010895B8
S11306F00E949E018091160190911701FC01E85E11
S1130700FE4F25E7208301969093170180931601ED
S11307100895E0911601F0911701E85EFE4F1082F2
S11307200E94EB0108951F93CF93DF93EB01209177
S1130730160130911701F901E85EFE4F10812F5F19
S11307403F4F3093170120931601812F0E9493008D
S1130750133739F4D9BDC8BDDBBDCABD0E944900F9
S113076019C0153721F4CE010E949E0113C01C3616
S113077021F4CE010E9490020DC0123721F4CE0163
S11307800E94CF0207C00E9461008CE990E00E94A1
S11307909700FFCFDF91CF911F91089583E08BBB2A
S11307A01ABA18BA9FE097BB9FEF95BB14BA12BA56
S11307B090E391BB83BF12BE1CBE92EA9FBD98E139
S11307C09EBD1DBC1CBC87BD88EE86BD8CE291E03D
S11307D09BBD8ABD99BD88BD60E875E280E090E06C
S11307E00E94660089EE90E00E94970081E089BF34
S11307F07894C899FECF88EF90E00E9497002FEF7D
S113080084E39CE0215080409040E1F700C0000068
S11308100E94490084EF91E099BD88BD9BBD8ABDCB
S11308202FEF86E791E0215080409040E1F700C02F
S113083000008CE291E099BD88BD9BBD8ABD0E94F9
S1130840C300827421F00E94C3008274E1F7D12CAA
S1130850A12CB12C0F2EF6E9EF2EF12CF02DCCE2C9
S1130860D1E0612C712C88248394C12C982C03C072
S1130870B12E01C0A12E0E94C300982F9871983107
S113088029F4D9BDC8BDDBBDCABD09C083FF03C0FF
S1130890F9BCE8BC04C084FF02C0FBBCEABC982FCE
S11308A0907F903F09F04FC0D9BDC8BDDBBDCABD24
S11308B0062D172D13C00E94C30081FDB92C982F5B
S11308C09E779E3759F40F5F1F4F09352BE11207AE
S11308D028F08CE291E00E94890390C0827459F759
S11308E01B2D8FEF90E722E0815090402040E1F7EC
S11308F000C000000E94C3008E7709F017C1B11038
S11309000FC0D11004C0CE010E940E03B4CF81E009
S1130910D812B1CFCE010E943003DC2CBC2CABCF5B
S1130920113009F0A8CFD11005C0CE010E945603A2
S1130930BC2CA1CF91E0D9129BCFCE010E946703BA
S1130940DC2CBC2C98CF982F9F709F3009F04FC09F
S1130950D9BDC8BDDBBDCABD062D172D13C00E946D
S1130960C30086FDA92C982F9E779E3759F40F5FFC
S11309701F4F09352BE1120728F08CE291E00E9409
S113098089033CC0827459F71A2D8FEF90E722E057
S1130990815090402040E1F700C000000E94C30055
S11309A08E7709F0C7C0A1100FC0D11004C0CE01CA
S11309B00E941F0360CF81E0D8125DCFCE010E9458
S11309C04103DC2CAC2C57CF113009F054CFD1109B
S11309D005C0CE010E945603AC2C4DCF91E0D91234
S11309E049CFCE010E946703DC2CAC2C44CF8E7718
S11309F009F041CFCE010E9478033DCF1092170138
S1130A00109216010E94C300982F9871983139F4FE
S1130A108CE291E099BD88BD9BBD8ABD0EC0982F24
S1130A209F7029F084E690E099BD88BD06C0807F60
S1130A3021F084E690E09BBD8ABD0F2EF6E9EF2EEF
S1130A40F12CF02DCCE2D1E0C12CD12C0E94C300BA
S1130A50982F9871983129F4D9BDC8BDDBBDCABDA2
S1130A6009C083FF03C0F9BCE8BC04C084FF02C012
S1130A70FBBCEABC982F907F903F31F5D9BDC8BD2F
S1130A80DBBDCABD0C2D1D2D0FC00E94C300982FC5
S1130A909E779E3749F40F5F1F4F09352BE11207EC
S1130AA018F00E946100FFCF827479F78FEF90E70E
S1130AB022E0815090402040E1F700C00000BE01D8
S1130AC081E00E949303C2CF982F9F709F3031F52D
S1130AD0D9BDC8BDDBBDCABD0C2D1D2D0FC00E94E4
S1130AE0C300982F9E779E3749F40F5F1F4F093537
S1130AF09BE1190718F00E946100FFCF827479F717
S1130B002FEF80E792E0215080409040E1F700C051
S1130B100000BE0182E00E94930398CF8E7709F013
S1130B2095CFBE0187E00E94930390CFBB2009F4C8
S1130B30F1CE04C0AA2009F441CF05C0113009F454
S1130B40FCCED82C98CE113009F44BCFD82C93CEB0
S1130B50E89409C097FB3EF4909580957095619553
S1130B607F4F8F4F9F4F9923A9F0F92F96E9BB2709
S1130B709395F695879577956795B795F111F8CF85
S1130B80FAF4BB0F11F460FF1BC06F5F7F4F8F4FF0
S1130B909F4F16C0882311F096E911C0772321F0E6
S1130BA09EE8872F762F05C0662371F096E8862F7E
S1130BB070E060E02AF09A95660F771F881FDAF7D5
S1130BC0880F9695879597F9089541D0A8F19E5777
S1130BD0A8F1985160F039F1983070F5092E9927F1
S1130BE0660F771F881F991F0A94D1F71CC0BB2773
S1130BF0993F4CF4B111B1E0B62B672F782F8827B9
S1130C00985FB1F708C0869577956795B79508F40E
S1130C10B1609395C1F7BB0F30F411F460FF03C0CA
S1130C206F5F7F4F8F4F3EF49095809570956195DF
S1130C307F4F8F4F9F4F0895689424C022C057FD63
S1130C409058440F551F59F05F3F71F04795880F36
S1130C5097FB991F61F09F3F79F0879508951216CD
S1130C6013061406551FF2CF4695F1DF08C0161679
S1130C7017061806991FF1CF86957105610508942A
S1130C800895E894BB2766277727CB0197F9089541
S1130C90A1E21A2EAA1BBB1BFD010DC0AA1FBB1F7C
S1130CA0EE1FFF1FA217B307E407F50720F0A21BEE
S1130CB0B30BE40BF50B661F771F881F991F1A945B
S1130CC069F760957095809590959B01AC01BD0185
S1130CD0CF010895DC01FC01672F71917723E1F7BF
S1130CE0329704C07C916D9370836291AE17BF07F5
S10B0CF0C8F30895F894FFCF46
S1130CF80D0D526576657273656420446174613ABA
S1130D0820000D0D536F6C76656420446174613A5C
S1130D1820000D0D536F6C76656420446174612066
S1130D2850726163746963616C3A20000D0D456EFD
S1130D386420537475636B2121210D0D0D2D2D2D08
S1130D482D2D2D2D2D2D2D2D2D2D2D2D2D2D2D2DC7
S1130D582D2D2D2D2D2D2D2D2D2D2D2D2D2D2D2DB7
S1130D682D2D2D2D2D2D2D2D2D2D2D2D2D2D2D2DA7
S1130D782D2D2D2D0D0D0D0D000D4920616D2072A9
S1130D886561647921210D00737461727420746F34
S1130D987572203A290D0D537475636B2044617480
S1070DA8613A200088
S9030000FC
