:100000000C9457000C947F000C947F000C947F009C
:100010000C947F000C947F000C947F000C947F0064
:100020000C947F000C94E80D0C947F000C947F00DE
:100030000C947F000C94330A0C947F000C947F0086
:100040000C947F000C947F000C947F000C947F0034
:100050000C947F000C947F000C947F000C947F0024
:100060000C947F000C947F00000000000000001F33
:100070001F1F1F1F1F1F4C31362063646567726589
:100080006734003E6733323E3E63333200736F6C39
:10009000766572004D617A650033F720526F626FAA
:1000A000740020506F6C6F6C7500B10EB20E11248D
:1000B0001FBECFEFD8E0DEBFCDBF11E0A0E0B1E0C2
:1000C000ECEFFBE202C005900D92AA34B107D9F71C
:1000D00023E0AAE4B1E001C01D92A73BB207E1F71B
:1000E00010E0CCEAD0E004C02297FE010E94A714E1
:1000F000CA3AD107C9F70E9444020C94F1150C9436
:10010000000060E088E690E00E94680B61E089E60C
:1001100090E00E94680B62E08AE690E00E94680B23
:1001200063E08BE690E00E94680B64E08CE690E070
:100130000E94680B65E08DE690E00E94680B66E027
:100140008EE690E00E94680B0C94E80BCF92DF9251
:10015000EF92FF920F931F93CF93DF93CDB7DEB74C
:100160002A970FB6F894DEBF0FBECDBF8C01D12CFD
:100170008AE0C82E95E6E92EF12CE1E3F1E0DE01FC
:1001800011968C2D01900D928A95E1F7F8018191DD
:1001900091918F01B7010E94FA1381E090E08C0FDA
:1001A0009D1F680F791FFB0180810E946B0BD39408
:1001B000F5E0DF12E2CF2A960FB6F894DEBF0FBE4D
:1001C000CDBFDF91CF911F910F91FF90EF90DF9006
:1001D000CF9008952F923F924F925F926F927F92AD
:1001E0008F929F92AF92BF92CF92DF92EF92FF9247
:1001F0000F931F93CF93DF93CDB7DEB72A970FB638
:10020000F894DEBF0FBECDBF8C01C12CD12C76017E
:10021000212C312C50E1452E57E2552E612C712CAA
:1002200088249924881A990A61E0CE0101960E94D7
:10023000720E805D97405C01AA2797FDA095BA2FAA
:10024000C80ED91EEA1EFB1EC701B601A30192010A
:100250000E944414B50162197309CB01880F991FDC
:10026000860F971F97FD0196FC01F595E795E20F24
:10027000F31FC50164E170E00E940E14E60FF71F42
:100280000E171F070CF4F801CF01E815F9050CF45F
:10029000C401B80197FF03C0800F911F03C0681B02
:1002A000790BC8010E949A0D8B819C81843691053F
:1002B00050F48D819E818436910528F48F81988534
:1002C0008436910560F089819A81893C910538F4E2
:1002D00089859A85893C910510F41501A5CF2A9648
:1002E0000FB6F894DEBF0FBECDBFDF91CF911F9147
:1002F0000F91FF90EF90DF90CF90BF90AF909F90C5
:100300008F907F906F905F904F903F902F900895C7
:100310000F931F93CF93DF93CDB7DEB72A970FB616
:10032000F894DEBF0FBECDBF80ED97E00E94AD0E0A
:100330000E94810082EA90E00E94100C61E080E05F
:100340000E94900C89E990E00E94100C83E890E0F4
:100350000E94A50A88EE93E00E94300E0E94E80BEE
:1003600084E990E00E94100C61E080E00E94900C13
:100370008DE890E00E94100C88EE93E00E94300E11
:1003800080E10E94DD0D81111BC00E9463078C017A
:100390000E94E80BB801882777FD8095982F0E946E
:1003A0006D0C8BE391E00E94FF0B61E080E00E9406
:1003B000900C8EE391E00E94FF0B84E690E0DECF8C
:1003C00080E10E94C90D88EE93E00E94300E0CEE91
:1003D0001FEF0832110528F068ED7FEF88E290E00A
:1003E00004C068E270E088ED9FEF0E949A0D81E002
:1003F0000E946C0E84E190E00E94300E0F5F1F4F50
:100400000C33110531F760E070E080E090E00E946D
:100410009A0D80E10E94DD0D81111AC061E0CE01CC
:1004200001960E94720E8C010E94E80BB80180E0D8
:1004300090E00E946D0C61E080E00E94900CCE0183
:1004400001960E94A60084E690E00E94300EE1CF63
:1004500080E10E94C90D0E94E80B86E491E00E94B1
:10046000FF0B86E790E00E94A50A0E94940A811182
:10047000FCCF2A960FB6F894DEBF0FBECDBFDF913A
:10048000CF911F910F9108950E94880180EA90E01A
:100490000E945103FFCFCF93DF93CDB7DEB72A97EA
:1004A0000FB6F894DEBF0FBECDBF61E0CE0101965E
:1004B0000E94720E89819A818139914010F080E109
:1004C00001C080E02B813C812D32314010F08860EA
:1004D00001C0877F2D813E812D32314010F0846034
:1004E00001C08B7F2F8138852D32314010F0826022
:1004F00001C08D7F29853A852139314010F0816016
:1005000001C08E7F2A960FB6F894DEBF0FBECDBF16
:10051000DF91CF9108951F93CF93DF93C4E1D0E093
:100520000E944B02182FFE016F9364E06A95F1F769
:100530006F913197C9F70E944B021813F1CF812FA9
:10054000DF91CF911F91089580E090E043E752E75B
:100550006CE6DC01A154BE4F2C912223E1F125373A
:10056000C1F5FC01E254FE4F3081323729F4119677
:100570003C91333781F406C0333731F411963C9106
:100580003237A1F4608319C03C36B9F411963C911E
:10059000323731F411C0323739F03C3671F40CC0C7
:1005A000333731F03C3649F4408307C03C3611F410
:1005B000508303C0333709F42083FC01E154FE4F1C
:1005C0002281222319F020830196F7CF108280E048
:1005D00090E00196BECF08950F931F93CF93DF93C2
:1005E0008FEB91E00E94E115EFEBF1E09CE622E752
:1005F0008081882349F08C3611F4208303C0823730
:1006000009F490833196F4CF0FEB11E0E8010990E3
:100610000020E9F72197CF5BD1400E94A402F801A6
:1006200001900020E9F73197EF5BF140CE17DF072B
:1006300069F7DF91CF911F910F910895BC018091CF
:10064000BD019091BE01FC01E154FE4F2081019655
:100650009093BE018093BD01233711F483E50BC055
:10066000253711F485E507C02C3611F48CE403C05E
:10067000223719F482E50C94C50460E070E080E054
:1006800090E00E949A0DFFCFE091BD01F091BE0174
:10069000E154FE4F1082BC0184E40E94C5040C9416
:1006A000EC02CF93DF931F92CDB7DEB73C01A12CB4
:1006B000912CB12C85E7E82E9CE6F92E23E7D22E6B
:1006C00032E7C32EC3010E94EA000E948B02282F4A
:1006D00084FF6EC064E670E084E690E029830E94A7
:1006E0009A0D00E010E029812171C1F00E948B0277
:1006F000282F80FF04C0B11002C0BB24B3942F3157
:1007000099F70F5F1F4F0734110570F3C3010E9463
:1007100044031092BE011092BD01E0C00E948B0202
:1007200082FD1FC1B11016C0A11010C08091BD0183
:100730009091BE01FC01E154FE4FF082019690932E
:10074000BE018093BD01B3018CE4BBC081E0A8125F
:10075000B9CF1BC0E1E0BE12B5CFA11013C080918C
:10076000BD019091BE01FC01E154FE4FF082019663
:100770009093BE018093BD01B3018CE40E94C50437
:10078000B12CA0CFF1E0AF129DCF8091BD0190912F
:10079000BE01FC01E154FE4FF08201969093BE0130
:1007A0008093BD01B3018CE40E94C504A12CE8CF65
:1007B00080FF76C064E670E084E690E029830E94C2
:1007C0009A0D00E010E02981217189F00E948B02CE
:1007D000282F84FF04C0911002C0992493942F31D4
:1007E00099F70F5F1F4F0734110570F38FCF0E94E9
:1007F0008B0282FDBAC0911025C0A11010C080915B
:10080000BD019091BE01FC01E154FE4FC0820196F2
:100810009093BE018093BD01B30182E552C081E097
:10082000A81250CF8091BD019091BE01FC01E1540E
:10083000FE4FD08201969093BE018093BD01B3011B
:1008400083E529C0E1E09E123DCFA11012C0809146
:10085000BD019091BE01FC01E154FE4FF082019672
:100860009093BE018093BD01B3018CE40E94C50446
:1008700015C0F1E0AF1226CF8091BD019091BE016D
:10088000FC01E154FE4FF08201969093BE018093EB
:10089000BD01B3018CE40E94C504A12C912C12CFA0
:1008A000811110CF8091BD019091BE01FC01E154F6
:1008B000FE4FE08201969093BE018093BD01B3018B
:1008C00085E50E94C504FECE0E948B02282F8F3141
:1008D000C1F02171C9F7C3010E941E03C3010E9428
:1008E000EA000E948B02282F84FF18C064E670E0A3
:1008F00084E690E029830E949A0D00E010E02981AF
:10090000E8CF0F5F1F4F093883E1180710F360E04D
:1009100070E080E090E00E949A0DFFCF80FF1EC043
:1009200064E670E084E690E029830E949A0D00E07E
:1009300010E02981217179F20E948B02282F8F31DA
:10094000C9F70F5F1F4F0938E3E11E0798F360E016
:1009500070E080E090E00E949A0DFFCF8111BECF41
:10096000BACFBB2009F411CF04C0992009F45ACFA3
:1009700005C0F1E0BF1609F408CF04C081E0981665
:1009800009F47ACFAA24A3949DCECF93DF93EB01F1
:100990008C3409F041C081E190E00E94300E60E0AB
:1009A00070E080E090E00E949A0D8AE090E00E9462
:1009B000300E68E37FEF88E39FEF0E949A0D8AE094
:1009C00090E00E94300E60E070E080E090E00E94D5
:1009D0009A0D82E390E00E94300E6CE370E084ECAC
:1009E0009FEF0E949A0D80E084FD03C00E948B025D
:1009F000FBCF84FF03C00E948B02FBCF81FD03C0AD
:100A00000E948B02FBCF60E070E080E090E00E94EB
:100A10009A0D8AE090E0EBC0823509F0A2C081E136
:100A200090E00E94300E60E070E080E090E00E9474
:100A30009A0D8AE090E00E94300E68E37FEF88E331
:100A40009FEF0E949A0D8AE090E00E94300E60E0D5
:100A500070E080E090E00E949A0D82E390E00E94B6
:100A6000300E64EC7FEF8CE390E00E949A0D80E002
:100A700080FD03C00E948B02FBCF80FF03C00E9459
:100A80008B02FBCF83FD03C00E948B02FBCF60E093
:100A900070E080E090E00E949A0D8AE090E00E9471
:100AA000300E64E670E08CE99FEF0E949A0D8AE0B8
:100AB00090E00E94300E60E070E080E090E00E94E4
:100AC0009A0D82E390E00E94300E60E570E080E5D0
:100AD00090E00E949A0D80E590E00E94EA0089E192
:100AE00090E00E94300E64E670E084E690E00E94A0
:100AF0009A0D84E690E00E94EA0089E190E00E946D
:100B0000300E68E770E088E790E00E949A0D88E771
:100B100090E00E94EA0089E190E00E94300E6CE8CB
:100B200070E08CE890E00E949A0D8CE890E00E94C2
:100B3000EA0089E190E00E94300E60EA70E080EA0D
:100B400090E00E949A0D80EA90E00E94EA0089E11C
:100B500090E00E94300EBE01CE01DF91CF910C9447
:100B60009A0D833509F4BFCF853509F047C089E177
:100B700090E00E94300E60E070E080E090E00E9423
:100B80009A0D8AE090E00E94300E68E37FEF88E3E0
:100B90009FEF0E949A0D8AE090E00E94300E60E084
:100BA00070E080E090E00E949A0D82E390E00E9465
:100BB000300E6CE370E084EC9FEF0E949A0D80E0B1
:100BC00084FD03C00E948B02FBCF84FF03C00E9400
:100BD0008B02FBCF81FD03C00E948B02FBCF60E044
:100BE00070E080E090E00E949A0D84E190E00E9425
:100BF000300E6CE97FEF84E690E057CF843409F043
:100C00006FC060E070E080E090E00E949A0D82E3A7
:100C100090E00E94300E84EF91E00E94300E6EEC66
:100C20007FEF8EEC9FEF0E949A0D0E948B0290E066
:100C3000817199274197C9F360E070E080E090E00E
:100C40000E949A0D82E390E00E94300E62E370E011
:100C500082E390E00E949A0D86E990E00E94300EB7
:100C600060E070E080E090E00E949A0D82E390E006
:100C70000E94300E6CE370E084EC9FEF0E949A0DAE
:100C800082E390E00E94300E0E948B0284FDFCCF34
:100C90000E948B0284FFFCCF0E948B0281FFFCCF5D
:100CA00060E070E080E090E00E949A0D84E190E0C6
:100CB0000E94300E6CE97FEF84E690E00E949A0D6E
:100CC0008AE090E00E94300E60E070E080E090E00A
:100CD0000E949A0D82E390E0DF91CF910C94300E48
:100CE000DF91CF910895882321F480917C008F7D3E
:100CF00003C080917C00806280937C000895809185
:100D00007C0090E025E0959587952A95E1F7817024
:100D1000089580917A0090E036E0959587953A9510
:100D2000E1F7817008950E947F06882321F02091C9
:100D3000790030E004C02091780030917900C90139
:100D400008958032B0F497E890937A0090917C00F7
:100D5000292F2064662311F0906C02C0922F9F7798
:100D6000907E982B90937C0080917A008064809391
:100D70007A000895A0E0B0E0E0ECF6E00C9478147E
:100D80006B0160E00E94A1060E9489068823E1F7BA
:100D9000E601EE24FF24870180917A00806480932D
:100DA0007A000E9489068823E1F70E949306A0E05A
:100DB000B0E0E80EF91E0A1F1B1F219769F7C60154
:100DC0009695879520E4C216D10440F48E0D9F1DA0
:100DD0006C2D70E00E94FA13CB010DC0BC0180E0C5
:100DE00090E06E0D7F1D801F911F960140E050E046
:100DF0000E942214C901CDB7DEB7E8E00C94941428
:100E0000A3E0B0E0E6E0F7E00C947D14BC0180E0E4
:100E100090E0209100013091010140E050E00E94FB
:100E2000DE13182F69837A839B830E947F06698172
:100E30007A819B81882371F09B01412F592FCA0130
:100E4000B90161587F4F8F4F9F4F2FEF30E040E047
:100E500050E00DC09B01412F592FCA01B9016150CB
:100E60007E4F8F4F9F4F2FEF33E040E050E00E94C6
:100E70002214C9012396E3E00C9499140E94BA0647
:100E80000E94000708951F93CF93DF930E947F066F
:100E9000182F80E00E94730686E06AE070E00E94EE
:100EA0003E07EC01812F0E9473069E01220F331F23
:100EB0002C0F3D1F2F5F3F4F36952795C901DF91BE
:100EC000CF911F9108950E944307089590914F017B
:100ED000E0914B01F0914C01992311F0849101C0F4
:100EE0008081282F21542A3110F4805E08958032A9
:100EF00071F420914B0130914C01A9014F5F5F4F7C
:100F000050934C0140934B012115310509F7089589
:100F1000EF92FF92CF93DF930E946607C0E0D0E08C
:100F20001BC09E01220F331F93E0CC0FDD1F9A954B
:100F3000E1F7C20FD31F992787FD9095C80FD91FDE
:100F4000E09780914B0190914C01019690934C0158
:100F500080934B010E946607982F90539A3008F3B4
:100F6000CE01DF91CF91FF90EF90089510926F0026
:100F700083E28093800081E180938100109282005F
:100F800080E197E2909389008093880010928B0013
:100F900010928A00229A7894089580914A018823B9
:100FA00029F481E080934A010E94B6070895A0E0E9
:100FB000B0E0EDEDF7E00C9474148C015B01E42ECD
:100FC0000E94CD071092020117FF04C01F77AAE00C
:100FD000FA2E02C0FF24F394C0908100DD2428EF94
:100FE000C222DD2488EC3F2D389FC00111248017D8
:100FF0009107D8F4E80167E20131160710F0C0E16B
:10100000D7E2BE017695679580E090E0605879461A
:1010100087469F4F9E0140E050E00E9422148901C4
:1010200081E090E0C82AD92A2CC098E2F99E902D40
:10103000112480E0892EE4014E01982EE4018016EF
:10104000910608F4E801BE01769567959E0140E09F
:1010500050E08F2D8A3039F480E090E0605E734478
:1010600081449F4F06C080E090E060537D4E8C4EDF
:101070009F4F0E942214890152E0852E912CC8288E
:10108000D9282F2D2A3039F4CE0105966AE070E078
:101090000E94FA13EB0133E0C83ED30779F0BE019A
:1010A00080E090E0950140E050E00E94DE1328EEE1
:1010B00033E040E050E00E94441401C095011092DA
:1010C0006F00C092810010938900009388004091C6
:1010D0008800509189006E2D603108F06FE080E14A
:1010E00090E0861B9109BA0102C0769567958A95B2
:1010F000E2F770938B0060938A0030935201209343
:10110000510186B38FEF86BB81E080936F00CDB72E
:10111000DEB7ECE00C9490149B018F3F11F0442358
:1011200029F488EE93E0B90140E049C0813130F004
:10113000582F5051503618F05FE501C050E0852F10
:101140006CE00E94EE13A82FB0E0E4EFFFEFAE9F3B
:10115000B001AF9F700DBE9F700D1124650F711D02
:101160006C30710540F4FB01EE0FFF1FE45FFE4F92
:101170006081718102C060E070E0873081F0082EEC
:1011800002C0660F771F0A94E2F7823028F0CB0185
:1011900005966AE070E00CC0605070480BC0CB014F
:1011A000B6E0880F991FBA95E1F7029665E070E006
:1011B0000E94FA13403108F04FE0CB01B9010E94C0
:1011C000D7070895A0E0B0E0E8EEF8E00C947314BF
:1011D000B090030180914D01882361F060914E0130
:1011E000662341F08FEF70E040E00E948C0810927F
:1011F0004E0134C1C0ECDDE5AA24A39414E0712EA5
:1012000000ED17E0B4E0EB2EF12CA4EFCA2EA1E024
:10121000DA2EFFE08F2E912C0E94660720914B0161
:1012200030914C012F5F3F4F30934C0120934B0185
:101230008636F1F18736CCF4823609F4AFC08336B6
:101240007CF48E3349F18F333CF4813209F487C04A
:101250008C3309F09BC022C0813609F097C09BC037
:10126000843601F185360CF51BC08F3609F447C072
:10127000803744F48C3611F18D3661F1873609F0F0
:1012800085C019C0843709F444C0863709F460C0AA
:10129000823709F07BC039C0B394BECFBA94BCCFBB
:1012A000EE2435C0EE2482E07BC0EE2484E078C0DA
:1012B000EE2485E075C0EE2487E072C00E948807A6
:1012C000BC019093050180930401809106019091E7
:1012D000070137C00E9466078C3619F410924D0141
:1012E00004C0A0924D0110924E0180914B0190914B
:1012F0004C01019690934C0180934B018DCF0E943D
:101300008807B82E8093030187CFEE24E39480E012
:1013100047C00E948807BC01CE010E94FA13CB018E
:10132000880F991F53E0660F771F5A95E1F7860FD4
:10133000971F9093070180930601609104017091BB
:1013400005010E94FA13709309016093080164CFAC
:101350000E94880790930B0180930A015DCF7092E1
:1013600003011093070100930601F0920501E0923A
:101370000401D0920901C092080190920B01809261
:101380000A0110924D0144E0B42E46CF10924C0158
:1013900010924B0163C0EE2489E002C0EE248BE082
:1013A0009CE0B99EB02C1124B80E0E9466078B32C7
:1013B00011F08332B9F480914B0190914C01019668
:1013C00090934C0180934B01B394EFCF80914B01EC
:1013D00090914C01019690934C0180934B01BA94EB
:1013E0000E9466078D3291F3C0910801D0910901E6
:1013F0008153883058F4C0910601D09107010E94B2
:101400008807BC01CE010E94FA13EB018E010BC0CC
:1014100080914B0190914C01019690934C018093E7
:101420004B01C00FD11F169507950E9466078E329B
:1014300079F380914D01882339F0CE0196958795F7
:1014400080934E01C81BD109EE2011F0BB24BA9441
:101450008B2DBE0140910A010E948C08CDB7DEB7EA
:10146000EDE00C948F141F920F920FB60F9211247F
:101470002F933F934F935F936F937F938F939F939C
:10148000AF93BF93EF93FF938091510190915201DD
:101490009C0121503040309352012093510100971C
:1014A00011F510926F00789480918100887F81609F
:1014B0008093810080E197E2909389008093880077
:1014C00010928B0010928A0081E08093020180913B
:1014D0004B0190914C01009731F08091500188238D
:1014E00011F40E94E208FF91EF91BF91AF919F919B
:1014F0008F917F916F915F914F913F912F910F90BD
:101500000FBE0F901F90189580910201882351F013
:1015100081E020914B0130914C012115310519F4E6
:1015200080E0089581E008950E94840A0895109251
:101530006F0090934C0180934B0181E080934F01A9
:1015400010924E010E94E20808950E94970A0895A1
:1015500081E090E06F9364E06A95F1F76F910197F5
:10156000C9F708950F931F93CF93DF931AB157983C
:101570005A98289AC0E0D0E00E94A80A5C9A0E947B
:10158000A80A09B15C980E94A80A5C9A0E94A80A5D
:101590005C9807FF11C024969E0140E050E08091C6
:1015A000570190915801A0915901B0915A01281703
:1015B00039074A075B0700F31AB9DF91CF911F91F2
:1015C0000F91089565B190E0AC0141705070440FE7
:1015D000551F9C012670307053E0220F331F5A951F
:1015E000E1F7242B6D7C262B25B92BB188709070E8
:1015F00034E0880F991F3A95E1F72F77282B2BB904
:101600005C9A0E94A80A5C980E94A80A0895A2E029
:10161000B0E0EDE0FBE00C947914182F4A83698365
:101620000E94B20B0E94B20AF4B005B1DAB0EBB07E
:10163000289869814A81662311F05A9A01C05A9804
:1016400084B1826384B9579A413029F0812F829501
:101650008F700E94E20A812F8F700E94E20ADAB82E
:10166000EBB8F4B805B92296E7E00C94951460E065
:1016700042E00E94070B089561E042E00E94070BE0
:101680000895EF92FF921F93DF93CF930F92CDB700
:10169000DEB7660F660F660F482F592F7A0110E0EC
:1016A000812F860F806469830E94370BF701849134
:1016B0000E943C0B1F5F0894E11CF11C69811830EB
:1016C00079F70F90CF91DF911F91FF90EF900895E0
:1016D0000E94410B08950E943C0B089560E041E098
:1016E0000E94070B089580E197E2A0E0B0E08093AC
:1016F000570190935801A0935901B0935A01529AFF
:10170000209A549A8EE190E00E94300E83E00E946D
:101710006E0B86E090E00E94300E83E00E946E0B1C
:1017200082E090E00E94300E83E00E946E0B82E027
:1017300090E00E94300E82E00E946E0B82E090E00A
:101740000E94300E88E20E94370B88E00E94370B1F
:1017500081E00E94370B86E00E94370B8CE00E94EC
:10176000370B089580915B01882329F481E08093F1
:101770005B010E94730B089581E00E94370B8091FA
:10178000530190915401009711F1A0E0B0E208C01C
:10179000E0915301F0915401E20FF31FB083AF5F6A
:1017A0002A2F30E08091240190E00197609125017B
:1017B00070E0869FA001879F500D969F500D1124C9
:1017C000241735072CF310925601109255010895F5
:1017D0000E94BC0B0895EF92FF92CF93DF93E82E07
:1017E000E7017E01F92EE70102C00E943C0B8991BE
:1017F0008823D9F7DF91CF91FF90EF9008950E9451
:10180000EB0B0895CF93DF93EC0103C00E943C0BD8
:101810002196FE0184918823C9F7DF91CF91089525
:101820000E94020C0895AAE0B0E0E9E1FCE00C940B
:1018300076149B01AC011AE0EAE0CE2ED12CE12C0B
:10184000F12C5E010894A11CB11C022FCA01B90140
:10185000A70196010E9422141150F501E10FF11D1C
:10186000005D922F990F892F880F880F890F081B11
:101870000083211531054105510539F708C0F601EE
:10188000E10FF11D80810E943C0B1F5F04C06E01BF
:101890000894C11CD11C1A3090F32A96EAE00C94EB
:1018A0009214EF92FF920F931F937B018C0197FF8D
:1018B0000BC010950095F094E094E11CF11C011D03
:1018C000111D8DE20E943C0BC801B7010E94130C50
:1018D0001F910F91FF90EF9008950E94510C089571
:1018E000A5E0B0E0E6E7FCE00C947D14182F80E85A
:1018F000898380EC8A8384E98B8384ED8C83FE0169
:10190000E60FF11D8181810F6D830E94370B1093CB
:1019100056016D81609355012596E3E00C9499146E
:101920000E94700C0895FC011182108213821282B1
:10193000158214821682683068F489E290E09183FF
:1019400080838BE290E0938382838AE290E09583A8
:10195000848311C06E30C0F483E290E09183808371
:1019600085E290E09383828384E290E09583848390
:1019700070E06850704081E090E002C0880F991FCD
:101980006A95E2F7868308956531B8F486E290E0BF
:101990009183808388E290E09383828387E290E062
:1019A0009583848370E06E50704081E090E002C0C7
:1019B000880F991F6A95E2F786830895FC01A48138
:1019C000B5818681662321F09C91982B9C93089584
:1019D0009C91809589238C930895FC016F3F31F48D
:1019E000A281B3818C91968189270CC0A281B38199
:1019F0008681662321F09C91982B9C9308959C915D
:101A0000809589238C930895A7E0B0E0EAE0FDE09B
:101A10000C947B14282FF62E8E010F5F1F4FC801E8
:101A2000622F0E94930CC8016F2D0E94ED0CC8011B
:101A300061E00E94DE0C2796E5E00C949714E0EB41
:101A4000F0E083EF8083808184BDE1EBF0E082E011
:101A50008083808185BDE4EBF0E010828081E3EB40
:101A6000F0E08083808188BD88B587BD86E060E036
:101A70000E94040D85E060E00E94040D8BE060E0B0
:101A80000E94040D83E060E00E94040D089580919F
:101A90005C01882329F481E080935C010E941F0D82
:101AA0000895CF93DF93EC010E94470DD7FF05C047
:101AB000D095C195DF4F81E001C080E0CF3FD105D7
:101AC00019F014F0CFEFD0E0882319F018BCC7BD8F
:101AD00002C0C8BD17BCDF91CF910895CF93DF93AB
:101AE000EC010E94470DD7FF05C0D095C195DF4F8F
:101AF00081E001C080E0CF3FD10519F014F0CFEFB5
:101B0000D0E0882329F01092B400C093B30004C041
:101B1000C093B4001092B300DF91CF910895CF939A
:101B2000DF93EB010E94510DCE010E946E0DDF91FB
:101B3000CF9108950E948F0D089584B18D7C84B952
:101B400085B1826385B985E090E06F9364E06A9522
:101B5000F1F76F910197C9F7089580915D0188238E
:101B600029F481E080935D010E949D0D08951F93EB
:101B7000182F0E94AD0D83B18123E9F38AE090E034
:101B80000E94300E83B18123B1F383B181231F9171
:101B900008950E94B70D0895A1E0B0E0E2EDFDE0E8
:101BA0000C947E1489830E94AD0D93B19095898128
:101BB00089232196E2E00C949A140E94CC0D08959A
:101BC0006F9364E06A95F1F76F910197C9F70895F3
:101BD0002F928F939F932FB680916B0190916C0100
:101BE000019680936B0190936C0190E080916D0160
:101BF000891F80936D01909173019C5F9093730195
:101C00008091720180519742C0F09093730180934C
:101C1000720180916E0190916F01019680936E0127
:101C200090936F0190E080917001891F8093700103
:101C300080917101891F809371012FBE9F918F91B7
:101C40002F901895CF93DF93EC0105C088EE93E0B9
:101C50000E94E00D21972097C9F7DF91CF91089559
:101C60000E94220E0895E0E7F0E080818E7F80835D
:101C7000A0EBB0E08C9183608C93A1EBB0E08C91F1
:101C8000807F8C938C9182608C93B89A80818160E4
:101C900080837894089580917401882329F481E0E9
:101CA000809374010E94330E08950E944B0EE0E76A
:101CB000F0E080818E7F808310926E0110926F0120
:101CC00010927001109271011092730110927201C2
:101CD0008081816080830895682F85E791E00E946C
:101CE0009C1308959C01462F85E791E0B90120E0FF
:101CF0000E94FA1108950F93DF93CF9300D000D084
:101D00000F92CDB7DEB79C01962FDE011196E6E269
:101D1000F1E085E001900D928150E1F7BE016F5F27
:101D20007F4F992329F085E791E045E00FEF04C04C
:101D300085E791E045E003E10E94150F85E791E01A
:101D40000E94EC0E0E94550E0F900F900F900F9076
:101D50000F90CF91DF910F91089560E00E947B0E6C
:101D60000895089585E791E00E94C01308956F9348
:101D700064E06A95F1F76F910197C9F70895A7E0BC
:101D8000B0E0E5ECFEE00C947C148C01FC011182C7
:101D90001082138212821582148217821682613198
:101DA00018F080E1808702C0FC016087F801208B79
:101DB000CE010196642F0E94930C8F81F8018187D8
:101DC0008B819C81938782878D819E819587848773
:101DD0002796E4E00C949814FC01A485B58510972F
:101DE00079F08C919185892B8C93A285B3859C91F8
:101DF0008185809589238C9388EC90E00E94B70EB2
:101E00000895FC01A485B585109771F08C9191859A
:101E1000892B8C93A285B3858C919185892B8C938A
:101E200088EC90E00E94B70E0895A7E0B0E0EBE1E7
:101E3000FFE00C946E147C011B01642F3901402FCC
:101E400020E00E94BF0E97012F5B3F4FF9011082E7
:101E5000D701AE5BBF4F1C92C7018D5B9F4FFC014A
:101E60001082F7017786668666242E010894411C4D
:101E7000511C6C015D01490129C0062D10E0F101E2
:101E8000E00FF11FC20160810E94930C2F81F701C6
:101E9000E00FF11F218B89819A81F801EE0FFF1F5E
:101EA000EE0DFF1D92A381A38332910511F4F4017D
:101EB00009C08632910511F4F50104C089329105FB
:101EC00021F4F6018081822B80836394F701808561
:101ED000681698F22796E2E10C948A14A0E0B0E02C
:101EE000E4E7FFE00C947314EC015B01FC01EF5B91
:101EF000FF4F9080FC01EE5BFF4F8080FC01ED5BAB
:101F0000FF4F708080E009C0E82FF0E0EE0FFF1F68
:101F1000EA0DFB1D118210828F5F98858917A0F34F
:101F200084B121E4E22EF12CEC0EFD1ED7019C9130
:101F3000892B84B987B18E010E5B1F4FF801908108
:101F4000892B87B98AB193E4C92ED12CCC0EDD1E22
:101F5000D6019C91892B8AB985B1F7019081892B93
:101F600085B988B1D8019C91892B88B98BB1F601CC
:101F70009081892B8BB98AE090E00E94B70E94B1D2
:101F8000D7018C918095892384B997B1F80180811C
:101F90008095892387B99AB1D6018C918095892340
:101FA0008AB995B1F70180818095892385B998B167
:101FB000D8018C918095892388B99BB1F6018081E5
:101FC000809589238BB9C090B000E090B1008091DA
:101FD000B00083608093B00082E08093B1000091F4
:101FE000B20080E090E039C02091B200201B820F47
:101FF000911D020FF3B0F91409F04DC096B098147A
:1020000009F049C029B1271509F045C024C0212F86
:1020100030E0A901440F551FF501E40FF51F608161
:1020200071816115710599F44C0F5D1FDA0191966C
:102030004D915C919297DA014C912C0F3D1FD90183
:1020400051962C915197422311F4918380831F5F05
:1020500028851217E0F2892C9F2C2E853F85821748
:10206000930710F2C092B000E092B10020E00FC0E0
:10207000E22FF0E0EE0FFF1FEA0DFB1D8081918142
:10208000009721F48E859F85918380832F5F8885BB
:10209000281770F305C0F3B096B079B010E0D8CF30
:1020A000CDB7DEB7EDE00C948F14EF92FF920F9353
:1020B0001F93CF93DF93FC019B0100917C00109153
:1020C0007A00E7B0F8B080917A0086FDFCCF80E01E
:1020D0000AC0A82FB0E0AA0FBB1FA20FB31F119612
:1020E0001C921E928F5F9085891798F397B182A1F9
:1020F0008095892387B998B182A18095892388B971
:1021000087E880937A0070E029C0DF01A60FB11D37
:1021100051968C915197806480937C0080917A00D5
:10212000806480937A0080917A0086FDFCCFA62F90
:10213000B0E0AA0FBB1FA20FB31F409178005091CF
:1021400079008D919C911197840F951F11969C9306
:102150008E936F5F80856817C0F27F5F81A17817CB
:1021600010F460E0F7CF40E014C0C42FD0E0CC0FF3
:10217000DD1FC20FD31F61A170E0CB01959587953C
:10218000A881B9818A0F9B1F0E94FA137983688303
:102190004F5F8085481748F300937C0010937A00C6
:1021A000F8B8E7B8CDB7DEB7E6E00C949614A0E235
:1021B000B0E0EDEDF0E10C9479148C017B01D42EAC
:1021C000842F8150823018F4C8010E94010FD80179
:1021D00050968C915097882389F4C801B7010E94CA
:1021E0006E0FC8010E94EC0EBD2DB230D9F5C801AA
:1021F000BE016F5F7F4F0E946E0F10C0C801B70114
:102200000E945510C8010E94EC0EED2DE23051F5F0
:10221000C801BE016F5F7F4F0E94551060E0AE01A4
:102220004F5F5F4F1BC0862F90E0880F991FF7010B
:10223000E80FF91F840F951FD8011E962D913C9130
:102240001F97DC018D919C911197281B390B808180
:102250009181820F931F918380836F5FF801808546
:10226000681708F3A096E7E00C9495148F929F925C
:10227000AF92BF92CF92DF92FF920F931F93CF93B3
:10228000DF93EC01C62E072FF42E423011F0FF2011
:1022900051F48C819D81009709F4A0C08E819F81AB
:1022A000009709F49BC08F2D8150823050F48881B3
:1022B0009981009709F492C08A819B81009709F463
:1022C0008DC0CE016C2D702F4F2D0E94D710AC2CDD
:1022D000B02E00E010E0882499247AC08F2D813040
:1022E00059F4EA81FB81E00FF11FC080D180E881C1
:1022F000F981E00FF11F0DC08C819D81FF2061F4F9
:10230000EE81FF81E00FF11FC080D180800F911F0F
:10231000FC01408151812BC0800F911FFC01808105
:102320009181E881F981E00FF11F40815181CE84D4
:10233000DF848417950710F4A60104C04C0D5D1DC1
:10234000481B590BEE81FF81E00FF11F80819181C5
:10235000EA81FB81E00FF11F20813181CE84DF848F
:102360008217930720F0C20ED31EC81AD90AC41AC6
:10237000D50AD1F0F5016081718180E090E09A0189
:1023800040E050E0621B730B840B950B28EE33E0AA
:1023900040E050E00E94DE13960140E050E00E94D1
:1023A000441437FD0AC002C020E030E0F3E0293ECB
:1023B0003F072CF028EE33E002C020E030E0F501CA
:1023C000219331935F010894811C911C0E5F1F4F74
:1023D000888590E0881699060CF480CFDF91CF9124
:1023E0001F910F91FF90DF90CF90BF90AF909F9083
:1023F0008F900895A5E0B0E0E0E0F2E10C946E1457
:102400004C01C62EE72E2D830E943611D40118965A
:102410004C901897DE2C642D70E080E090E028EE60
:1024200033E040E050E00E94DE1369837A838B83BF
:102430009C83EE24FF248701662477248824992432
:102440005401552436C0F6013081218142E0242E0A
:10245000312CC20CD31CC901492F582F1A012D81D0
:10246000222329F088EE93E0821993091C0199EC4C
:10247000291631042CF4A3E32A16310494F002C087
:1024800055245394B101882777FD8095982FA80192
:1024900097010E94DE13860E971EA81EB91E620CBD
:1024A000731C88EE93E0A0E0B0E0E80EF91E0A1F6E
:1024B0001B1F89819A81AB81BC81E816F9060A0746
:1024C0001B0709F65520F1F45524089441085108DA
:1024D00024EF31E0429EC001439E900D529E900D2C
:1024E00011242091B9013091BA0128173907B4F0AD
:1024F00088EE93E0489E9001499E300D589E300D25
:1025000011240EC0930140E050E0C501B4010E94C7
:1025100022142093B9013093BA0102C020E030E0C8
:10252000C9012596E2E10C948A14A7E6B0E0EBE934
:10253000F2E10C946E148C014B016A01A6962FAF48
:10254000A697DA018D919C9111970097E9F4F80113
:10255000808590E0880F991F0E94BA14D6011196C9
:102560009C938E93009709F4E2C0FC0180E090E018
:1025700003C0119211920196D80118962C911897C8
:1025800030E082179307ACF3F401808191810097CA
:1025900089F0EE24FF245E010894A11CB11CB1E473
:1025A0006B2E712C6C0E7D1EA1E24A2E512C4C0E0E
:1025B0005D1E23C0D80118968C9190E0880F991F5A
:1025C0000E94BA14F40191838083009709F4AFC08C
:1025D000FC0180E090E0D80107C01E962D913C914F
:1025E0001F9721933193019618962C91189730E0FC
:1025F0008217930794F38D01CCCFC801B501A6963D
:102600004FADA6970E94D710D80118968C911897B5
:10261000E82FF0E0A596FFAFEEAFA5971301F50107
:10262000A3965FAE4EAEA397930140E050E0A8960C
:102630005FAE4EAEA89737C0E114F10461F0A896E2
:10264000AEADBFADA8976D917C91119780819181BE
:102650006817790760F480819181A896AEADBFAD0F
:10266000A89711969C938E93E114F10449F0D90137
:102670006D917C911197808191818617970728F43D
:1026800080819181D9018D939C934F5F5F4F2E5F25
:102690003F4F3296A8968EAD9FADA8970296A8960A
:1026A0009FAF8EAFA897A596AEADBFADA5974A17C1
:1026B0005B0714F20894E11CF11CBAE0EB16F1047C
:1026C00009F09BCF80E090E02CC0F1014191519145
:1026D0001F01BC01660F771FD601ED91FC91119788
:1026E000E60FF71F208131812417350710F451833D
:1026F0004083A396EEADFFADA39741915191A39670
:10270000FFAFEEAFA397D401ED91FC911197E60FC7
:10271000F71F208131814217530710F45183408302
:102720000196F801208530E08217930774F2C959A9
:10273000DF4FE2E10C948A141F93CF93DF93EC01F7
:10274000162F862F8150823058F4AE014E5F5F4FB6
:10275000CE01BE0121E00E949512123019F00CC08A
:10276000662351F4BE016C5F7F4FAE014A5F5F4F3D
:10277000CE0120E00E949512DF91CF911F91089524
:10278000CF93DF93EC018A819B81009711F00E9427
:1027900052158E819F81009711F00E9452158881F9
:1027A0009981009711F00E9452158C819D810097AC
:1027B00011F00E945215DF91CF910895DB018F93A4
:1027C0009F930E946314BF91AF91A29F800D911DB2
:1027D000A39F900DB29F900D11240895991B79E04D
:1027E00004C0991F961708F0961B881F7A95C9F7A1
:1027F00080950895AA1BBB1B51E107C0AA1FBB1FF0
:10280000A617B70710F0A61BB70B881F991F5A957C
:10281000A9F780959095BC01CD01089597FB072EEF
:1028200016F4009407D077FD09D00E94FA1307FC34
:1028300005D03EF4909581959F4F089570956195D0
:102840007F4F0895A1E21A2EAA1BBB1BFD010DC0EC
:10285000AA1FBB1FEE1FFF1FA217B307E407F50750
:1028600020F0A21BB30BE40BF50B661F771F881F2C
:10287000991F1A9469F760957095809590959B01C2
:10288000AC01BD01CF010895052E97FB1EF4009405
:102890000E945B1457FD07D00E94221407FC03D04E
:1028A0004EF40C945B1450954095309521953F4F14
:1028B0004F4F5F4F089590958095709561957F4F2C
:1028C0008F4F9F4F08950E94AB14A59F900DB49F0A
:1028D000900DA49F800D911D112408952F923F9279
:1028E0004F925F926F927F928F929F92AF92BF9220
:1028F000CF92DF92EF92FF920F931F93CF93DF93CC
:10290000CDB7DEB7CA1BDB0B0FB6F894DEBF0FBE28
:10291000CDBF09942A88398848885F846E847D8475
:102920008C849B84AA84B984C884DF80EE80FD8077
:102930000C811B81AA81B981CE0FD11D0FB6F894ED
:10294000DEBF0FBECDBFED010895EE0FFF1F059056
:10295000F491E02D0994A29FB001B39FC001A39F01
:10296000700D811D1124911DB29F700D811D1124C8
:10297000911D0895CF93DF938230910510F482E08A
:1029800090E0E091B503F091B60320E030E0A0E0E4
:10299000B0E0309739F14081518148175907B8F0BC
:1029A0004817590771F482819381109729F0139683
:1029B0009C938E9312972CC09093B6038093B5038B
:1029C00027C02115310531F04217530718F0A9012E
:1029D000DB0101C0EF019A01BD01DF010280F3813B
:1029E000E02DD7CF21153105F9F0281B390B243004
:1029F000310580F48A819B816115710521F0FB010D
:102A00009383828304C09093B6038093B503FE0141
:102A1000329644C0FE01E20FF31F8193919322503E
:102A20003109398328833AC02091B3033091B4032C
:102A3000232B41F420912D0130912E013093B403CA
:102A40002093B30320912B0130912C0121153105E6
:102A500041F42DB73EB740912F0150913001241B16
:102A6000350BE091B303F091B403E217F307A0F440
:102A70002E1B3F0B2817390778F0AC014E5F5F4FD4
:102A80002417350748F04E0F5F1F5093B40340934F
:102A9000B3038193919302C0E0E0F0E0CF01DF91B6
:102AA000CF910895CF93DF93009709F487C0FC017D
:102AB000329713821282C091B503D091B60320974A
:102AC00081F420813181280F391F8091B3039091C7
:102AD000B4038217930779F5F093B403E093B3033B
:102AE0006DC0DE0120E030E0AE17BF0750F4129653
:102AF0004D915C9113979D014115510509F1DA0142
:102B0000F3CFB383A28340815181840F951F8A172D
:102B10009B0771F48D919C911197840F951F0296DC
:102B20009183808312968D919C91139793838283D6
:102B30002115310529F4F093B603E093B5033EC0A7
:102B4000D9011396FC93EE9312974D915D91A40FCA
:102B5000B51FEA17FB0779F480819181840F951FD7
:102B60000296D90111969C938E938281938113963C
:102B70009C938E931297E0E0F0E08A819B8100970E
:102B800019F0FE01EC01F9CFCE01029628813981BE
:102B9000820F931F2091B3033091B4032817390794
:102BA00069F4309729F41092B6031092B50302C06D
:102BB00013821282D093B403C093B303DF91CF91F9
:102BC0000895DC01FC01672F71917723E1F73297BB
:102BD00004C07C916D9370836291AE17BF07C8F3F8
:102BE000089510E0CCEAD0E004C0FE010E94A714D2
:0C2BF0002296CE3AD107C9F7F894FFCF27
:102BFC00881301040400D007F4010F009C01B501F7
:102C0C00CF01EA0107022602470269028E02B502D1
:102C1C00DE020A0302080E0F1011120000B7032087
:102C2C0000200000010203040506FF6D56005072DF
:0A2C3C00657373204200476F21000A
:00000001FF
