:100000000C942A000C9447000C9447000C94470071
:100010000C9447000C9447000C9447000C94470044
:100020000C9447000C9447000C9447000C94470034
:100030000C9447000C9447000C9447000C94470024
:100040000C9447000C9447000C9447000C94470014
:100050000C94470011241FBECFE5D8E0DEBFCDBF12
:1000600010E0A0E6B0E0E8E7FAE002C005900D92EB
:10007000A636B107D9F721E0A6E6B0E001C01D928F
:10008000A433B207E1F70E948D020C943A050C9458
:10009000000085E088BB8EB582608EBD08958AE041
:1000A00088BB8EB582608EBD089589E088BB8EB511
:1000B00082608EBD089586E088BB8EB582608EBD5D
:1000C000089518BA8EB58D7F8EBD0895829BFECFA0
:1000D000839BFCCF83B308950F931F93CF93DF933C
:1000E000EC012FEF81EE94E0215080409040E1F749
:1000F00000C000000E945B008E01045D1E4F1BBD0E
:100100000ABD2FE788E391E0215080409040E1F75D
:1001100000C00000CE01C29799BD88BD805B9F4F93
:100120009BBD8ABD0E94660080768036D9F70E940A
:10013000660080738033D9F70E9466008871883129
:10014000D9F70E944900D9BDC8BD1BBD0ABD2FE724
:1001500088E391E0215080409040E1F700C000002A
:10016000D9BDC8BDDBBDCABDDF91CF911F910F9135
:1001700008950F931F93CF93DF93EC010E946100CA
:100180002FEF89E698E1215080409040E1F700C0D0
:1001900000000E944F000E946600827421F00E94BD
:1001A00066008274E1F70E9461002FEF80E792E021
:1001B000215080409040E1F700C000000E944900BB
:1001C000CE01449699BD88BD9BBD8ABD2FEF83ECBF
:1001D00099E0215080409040E1F700C000000E946B
:1001E0005B008E01045D1E4F1BBD0ABD2FE788E337
:1001F00091E0215080409040E1F700C00000CE0126
:10020000C29799BD88BD805B9F4F9BBD8ABD2FEF74
:1002100080E792E0215080409040E1F700C000006C
:100220000E9466008076E1F70E9466008076803644
:10023000D9F70E94660080738033D9F70E94660068
:1002400088718831D9F70E944900D9BDC8BD1BBD4E
:100250000ABD2FE788E391E0215080409040E1F70C
:1002600000C00000D9BDC8BDDBBDCABDDF91CF91C4
:100270001F910F9108950F931F93CF93DF93EC017C
:100280000E945B008E01045D1E4F1BBD0ABD2FE75F
:1002900088E391E0215080409040E1F700C00000E9
:1002A000CE01C29799BD88BD805B9F4F9BBD8ABD23
:1002B0000E94660080768036D9F70E9466008073BF
:1002C0008033D9F70E944900D9BDC8BD1BBD0ABD06
:1002D0002FE788E391E0215080409040E1F700C093
:1002E0000000D9BDC8BDDBBDCABDDF91CF911F9154
:1002F0000F9108950F931F93CF93DF93EC010E940A
:1003000055008E01045D1E4F19BD08BD2FE788E31F
:1003100091E0215080409040E1F700C00000CE0104
:10032000C2979BBD8ABD805B9F4F99BD88BD0E94CF
:10033000660086708630D9F70E9466008C708C301B
:10034000D9F70E944900DBBDCABD19BD08BD2FE722
:1003500088E391E0215080409040E1F700C0000028
:10036000D9BDC8BDDBBDCABDDF91CF911F910F9133
:1003700008950E943B018091640090916500FC010A
:10038000E459FF4F2CE620830196909365008093FB
:10039000640008950E947A01809164009091650044
:1003A000FC01E459FF4F22E72083019690936500FA
:1003B0008093640008950E943B01809164009091B5
:1003C0006500FC01E459FF4F2CE6208301969093D1
:1003D000650080936400089599BD88BD9BBD8ABD6A
:1003E0000E9449008091640090916500FC01E459ED
:1003F000FF4F23E72083019690936500809364006C
:10040000109268001092690010926A0010926B00BE
:1004100008950E943B018091640090916500FC0169
:10042000E459FF4F2CE6208301969093650080935A
:10043000640008950E943B018091640090916500E2
:10044000FC01E459FF4F2CE6208301969093650050
:100450008093640008950E946C00809168009091E0
:100460006900A0916A00B0916B00803D9740A105A2
:10047000B10578F08091640090916500FC01E45929
:10048000FF4F25E7208301969093650080936400D9
:100490000895E0916400F0916500E459FF4F8CE607
:1004A000808308952091640030916500F901E4593A
:1004B000FF4F45E640832F5F3F4F30936500209309
:1004C00064000E94B9000895209162003091630099
:1004D000F901E053FF4F80812F5F3F4F309363005E
:1004E00020936200833739F479BD68BD7BBD6ABD56
:1004F0000E9449000895853721F4CB010E946C00C9
:100500000895823721F4CB010E943B0108958C3677
:1005100019F4CB010E947A01089583E08BBB1ABACB
:1005200018BA9FE097BB9FEF95BB14BA12BA90E33D
:1005300091BB92EA9FBD98E19EBD1DBC1CBC87BDCE
:1005400088EE86BD8CE291E09BBD8ABD99BD88BDD9
:10055000C899FECF2FEF89E698E121508040904066
:10056000E1F700C000000E94490084EF91E099BDCE
:1005700088BD9BBD8ABD2FEF86E791E0215080406A
:100580009040E1F700C000008CE291E099BD88BD89
:100590009BBD8ABD0E946600827421F00E946600A5
:1005A0008274E1F7812C712CC12C0F2EF6E9EF2E0D
:1005B000F12CF02DCCE2D1E0612C912CBB24B39432
:1005C000D12CAB2C03C0C12E01C0712E80916800CC
:1005D00090916900A0916A00B0916B00803D27E086
:1005E0009207A105B10558F40196A11DB11D809394
:1005F000680090936900A0936A00B0936B000E941A
:100600006600982F9871983129F4D9BDC8BDDBBD1B
:10061000CABD09C083FF03C0F9BCE8BC04C084FFA5
:1006200002C0FBBCEABC982F907F903F09F053C0FA
:10063000D9BDC8BDDBBDCABD062D192D17C085E8C3
:100640008A95F1F700000E94660081FDCA2C982F60
:100650009E779E3759F40F5F1F4F09359BE11907AD
:1006600028F08CE291E00E94520294C0827439F723
:100670001C2D2FEF80E792E0215080409040E1F761
:1006800000C000000E9466008E7709F0D1C1C11041
:100690000FC0811004C0CE010E94B90197CF21E0A4
:1006A000821294CFCE010E94DB018D2CCD2C8ECFF7
:1006B000113009F08BCF811005C0CE010E940902D4
:1006C000CD2C84CF81E088127ECFCE010E941A0209
:1006D0008D2CCD2C7BCF982F9F709F3009F053C06D
:1006E000D9BDC8BDDBBDCABD062D192D17C095E803
:1006F0009A95F1F700000E94660086FD7A2C982FEB
:100700009E779E3759F40F5F1F4F09352BE1120773
:1007100028F08CE291E00E9452023CC0827439F7CA
:10072000172D8FEF90E722E0815090402040E1F7B5
:1007300000C000000E9466008E7709F07DC1711034
:100740000FC0811004C0CE010E94CA013FCF81E0DA
:1007500088123CCFCE010E94EC018D2C7D2C36CF2F
:10076000113009F033CF811005C0CE010E9409027B
:100770007D2C2CCF91E0891228CFCE010E941A0245
:100780008D2C7D2C23CF8E7709F020CFCE010E94B7
:100790002B021CCF81E090E0909361008093600079
:1007A00080916400909165009C0121503109309343
:1007B000670020936600232BD1F021E030E0FC019C
:1007C000E459FF4FD901A053BF4F4DE650E062916D
:1007D0006D93E417F507D9F7820F931F0197909354
:1007E000610080936000109267001092660081E0C3
:1007F00090E0909365008093640082E090E0909395
:100800006300809362002FEF89E698E121508040D9
:100810009040E1F700C000000E94490084EF91E0A1
:1008200099BD88BD9BBD8ABD2FEF86E791E0215021
:1008300080409040E1F700C000008CE291E099BD5B
:1008400088BD9BBD8ABD0F2EF6E9EF2EF12CF02D51
:10085000412C512C33243394612C942CA52CB32C93
:1008600003C0CC2E01C07C2E0E946600182F887118
:10087000883139F48CE291E099BD88BD9BBD8ABD79
:1008800009C013FF03C0F9BCE8BC04C014FF02C0D8
:10089000FBBCEABC812F807F803F09F05DC08CE209
:1008A00091E099BD88BD9BBD8ABDC42DD52D16C0D4
:1008B00085E88A95F1F700000E946600182F81FDF7
:1008C000CB2C812F8E778E3749F42196C9359BE149
:1008D000D90720F00E946100C92DDA2D812F827482
:1008E00039F7CC2D9FEF20E782E0915020408040E7
:1008F000E1F700C000000E9466008E7709F0A0C0FA
:10090000C11013C0811006C06CE271E0832D0E94FB
:100910006402AACF91E08912A7CF6CE271E084E073
:100920000E946402862CC62C9FCFC13009F09CCF58
:10093000811007C06CE271E083E00E946402C62C63
:1009400093CF21E082128DCF6CE271E086E00E94AD
:100950006402862CC62C88CF812F8F708F3009F0CF
:100960005DC08CE291E099BD88BD9BBD8ABDC42D60
:10097000D52D16C085E88A95F1F700000E94660023
:10098000182F86FD7B2C812F8E778E3749F4219688
:10099000C9359BE1D90720F00E946100C92DDA2DED
:1009A000812F827439F7C72D9FEF20E782E09150A5
:1009B00020408040E1F700C000000E9466008E7772
:1009C00009F042C0711013C0811006C06CE271E0E2
:1009D00082E00E94640248CF91E0891245CF6CE228
:1009E00071E085E00E946402862C762C3DCFC130F8
:1009F00009F03ACF811007C06CE271E083E00E94F9
:100A00006402762C31CF21E082122DCF6CE271E0AE
:100A100086E00E946402862C762C26CF812F8E776A
:100A200009F022CF6CE271E087E00E9464021CCFE3
:100A3000CC2009F437CE0BC0772009F48BCE0CC044
:100A4000CC2009F46ACF0DC0772049F20FC01130D5
:100A500009F43BCE8B2CBACD113009F48ECE8B2C01
:100A6000B5CDC13009F470CF832CFECEC13071F208
:080A7000832CFACEF894FFCFAD
:060A780001000100010075
:00000001FF
