:100000000C942A000C9447000C9447000C94470071
:100010000C9447000C9447000C9447000C94470044
:100020000C9447000C9447000C9447000C94A600D5
:100030000C9447000C9447000C9447000C94470024
:100040000C9447000C9447000C9447000C94470014
:100050000C94470011241FBECFE5D8E0DEBFCDBF12
:1000600011E0A0E6B0E0ECE5FEE002C005900D92E4
:10007000A631B107D9F723E0A6E1B1E001C01D9296
:10008000AE30B207E1F70E94EC030C942C070C94FD
:10009000000085E088BB8EB582608EBD08958AE041
:1000A00088BB8EB582608EBD089589E088BB8EB511
:1000B00082608EBD089586E088BB8EB582608EBD5D
:1000C000089518BA8EB58D7F8EBD0895DC01CB01E1
:1000D000880F991FAA1FBB1F880F991FAA1FBB1F3C
:1000E0009C01AD01220F331F441F551F220F331FE8
:1000F000441F551F60E072E18AE790E00E94FA0613
:10010000CA01B90161507109810991090E945A0619
:100110000E949706272F332720BD69B988E18AB945
:1001200086E880BD08955D9BFECF8CB90895CF937E
:10013000DF93EC018881882331F021960E9493009F
:1001400089918111FBCFDF91CF9108951F920F927A
:100150000FB60F9211242F938F939F9380911601C6
:1001600090911701843F21E0920728F40196909323
:100170001701809316019F918F912F910F900FBEC1
:100180000F901F901895829BFECF839BFCCF83B36B
:100190000895CF93DF938AE191E00E941C0780913C
:1001A0001A01882389F0ABE1B1E0EAE1F1E02CE645
:1001B00092E78C3611F4908303C0823709F42083D0
:1001C0008D9131968111F5CF82E690E00E949700E3
:1001D0008AE191E00E94970020911A01222309F4FC
:1001E00096C080E090E0D3E7C2E765E77CE650E0A8
:1001F00040E0253709F084C09C0121503109F90104
:10020000E65EFE4FA081A23789F4FC01E65EFE4F58
:10021000E181E33729F5F901E65EFE4F7083FC01C9
:10022000E65EFE4F228121115AC064C0A33759F403
:10023000FC01E65EFE4FE181E23731F5F901E65E51
:10024000FE4F7083ECCFAC3659F4FC01E65EFE4FF6
:10025000E181E237D9F4F901E65EFE4F6083DFCF3A
:10026000A23791F4FC01E65EFE4FE181E23729F40A
:10027000F901E65EFE4FD083D2CFEC3681F6F9016C
:10028000E65EFE4F6083CBCFAC3699F4FC01E65EB0
:10029000FE4FE181E33729F4F901E65EFE4FC083AA
:1002A000BECFEC3609F0BBCFF901E65EFE4FD0833E
:1002B000B6CFA33709F0B3CFFC01E65EFE4FE18174
:1002C000EC3629F4F901E65EFE4FC083A8CFE33790
:1002D00009F0A5CFF901E65EFE4F6083A0CFDC01F7
:1002E000A65EBE4FFC01E35EFE4F2D930196219169
:1002F0002111FBCFFC01E65EFE4F1082852F942F6B
:100300000196FC01E65EFE4F2081211172CF84E749
:1003100090E00E9497008AE191E00E94970084E8B3
:1003200090E00E949700DF91CF9108950F931F9363
:10033000CF93DF93EC012FEF82E597E021508040CF
:100340009040E1F700C000000E945B008E01045D58
:100350001E4F1BBD0ABD2FE788E391E0215080406E
:100360009040E1F700C00000CE01C29799BD88BD62
:10037000805B9F4F9BBD8ABD0E94C3008076803604
:10038000D9F70E94C30080738033D9F70E94C3005D
:1003900088718831D9F70E944900D9BDC8BD1BBDFD
:1003A0000ABD2FE788E391E0215080409040E1F7BB
:1003B00000C00000D9BDC8BDDBBDCABDDF91CF9173
:1003C0001F910F9108950F931F93CF93DF93EC012B
:1003D0000E9461000E94C9002FEF89E698E1215038
:1003E00080409040E1F700C000000E944F008E0165
:1003F00008531F4F19BD08BD1BBD0ABD2FE788E379
:1004000091E0215080409040E1F700C00000D9BD4C
:10041000C8BDDBBDCABD0E94C300827421F00E942A
:10042000C3008274E1F70E9461002FEF80E792E041
:10043000215080409040E1F700C000000E94490038
:1004400019BD08BD1BBD0ABD2FE788E391E021500F
:1004500080409040E1F700C00000CE01449699BD75
:1004600088BD9BBD8ABD2FEF83EC99E02150804071
:100470009040E1F700C000000E945B008E01045D27
:100480001E4F1BBD0ABD2FE788E391E0215080403D
:100490009040E1F700C00000CE01C29799BD88BD31
:1004A000805B9F4F9BBD8ABD2FEF80E792E021507C
:1004B00080409040E1F700C000000E94C3008076B9
:1004C000E1F70E94C30080768036D9F70E94C3000E
:1004D00080738033D9F70E94C30088718831D9F7BF
:1004E0000E944900D9BDC8BD1BBD0ABD2FE788E3E6
:1004F00091E0215080409040E1F700C00000D9BD5C
:10050000C8BDDBBDCABDDF91CF911F910F9108958A
:100510000F931F93CF93DF93EC010E945B008E013A
:10052000045D1E4F1BBD0ABD2FE788E391E02150FB
:1005300080409040E1F700C00000CE01C29799BD15
:1005400088BD805B9F4F9BBD8ABD0E94C3008076A3
:100550008036D9F70E94C30080738033D9F70E9498
:100560004900D9BDC8BD1BBD0ABD2FE788E391E096
:10057000215080409040E1F700C00000D9BDC8BDC7
:10058000DBBDCABDDF91CF911F910F9108950F93ED
:100590001F93CF93DF93EC010E9455008E01045D01
:1005A0001E4F19BD08BD2FE788E391E02150804020
:1005B0009040E1F700C00000CE01C2979BBD8ABD0C
:1005C000805B9F4F99BD88BD0E94C30086708630B6
:1005D000D9F70E94C3008C708C30D9F70E94490073
:1005E000DBBDCABD19BD08BD2FE788E391E02150EE
:1005F00080409040E1F700C00000D9BDC8BDDBBD20
:10060000CABDDF91CF911F910F9108950E9488027A
:100610008091180190911901FC01E65EFE4F2CE6D5
:100620002083019690931901809318018CE60E9413
:10063000930008950E94C7028091180190911901BA
:10064000FC01E65EFE4F22E720830196909319019C
:100650008093180182E70E94930008950E94880207
:100660008091180190911901FC01E65EFE4F2CE685
:100670002083019690931901809318018CE60E94C3
:100680009300089599BD88BD9BBD8ABD0E94490015
:100690008091180190911901FC01E65EFE4F23E75D
:1006A00020830196909319018093180183E70E949B
:1006B000930008950E948802809118019091190179
:1006C000FC01E65EFE4F2CE6208301969093190113
:1006D000809318018CE60E94930008950E9488027E
:1006E0008091180190911901FC01E65EFE4F2CE605
:1006F0002083019690931901809318018CE60E9443
:10070000930008950E94960180911801909119011B
:10071000FC01E65EFE4F25E72083019690931901C8
:100720008093180185E70E9493000895E0911801D5
:10073000F0911901E65EFE4F10820E94E30185E60A
:100740000E94930008951F93CF93DF93EB01409194
:1007500016015091170120916000309161004217FD
:100760005307B0F12091180130911901F901E65EAB
:10077000FE4F10812F5F3F4F3093190120931801D6
:10078000812F0E949300133739F4D9BDC8BDDBBD5A
:10079000CABD0E94490018C0153721F4CE010E943D
:1007A000960112C01C3621F4CE010E9488020CC0B2
:1007B000123721F4CE010E94C70206C00E946100D8
:1007C0008EE990E00E949700109217011092160196
:1007D000DF91CF911F91089583E08BBB1ABA18BAAD
:1007E0009FE097BB9FEF95BB14BA12BA90E391BB01
:1007F00083BF12BE1CBE92EA9FBD98E19EBD1DBC88
:100800001CBC87BD88EE86BD8CE291E09BBD8ABD95
:1008100099BD88BD60E875E280E090E00E946600C6
:100820008BEE90E00E94970081E089BF7894C89990
:10083000FECF8AEF90E00E9497002FEF84E39CE0C8
:10084000215080409040E1F700C000000E94490024
:1008500084EF91E099BD88BD9BBD8ABD2FEF86E7EF
:1008600091E0215080409040E1F700C000008CE210
:1008700091E099BD88BD9BBD8ABD0E94C300827472
:1008800021F00E94C3008274E1F7812C712CC12CED
:100890000F2EF6E9EF2EF12CF02DCCE2D1E0612CF9
:1008A000912CBB24B394D12CAB2C03C0C12E01C01E
:1008B000712E0E94C300982F9871983129F4D9BDE8
:1008C000C8BDDBBDCABD09C083FF03C0F9BCE8BC1D
:1008D00004C084FF02C0FBBCEABC982F907F903F0D
:1008E00009F053C0D9BDC8BDDBBDCABD062D192D49
:1008F00017C025E82A95F1F700000E94C30081FD8A
:10090000CA2C982F9E779E3759F40F5F1F4F0935D9
:100910009BE1190728F08CE291E00E94960394C0B5
:10092000827439F71C2D2FEF80E792E02150804030
:100930009040E1F700C000000E94C3008E7709F0EC
:1009400097C1C1100FC0811004C0CE010E940603E0
:10095000B0CF21E08212ADCFCE010E942E038D2CAC
:10096000CD2CA7CF113009F0A4CF811005C0CE0146
:100970000E945A03CD2C9DCF81E0881297CFCE01E3
:100980000E946E038D2CCD2C94CF982F9F709F309A
:1009900009F053C0D9BDC8BDDBBDCABD062D192D98
:1009A00017C095E89A95F1F700000E94C30086FDF4
:1009B0007A2C982F9E779E3759F40F5F1F4F093579
:1009C0002BE1120728F08CE291E00E9496033CC0D4
:1009D000827439F7172D8FEF90E722E08150904015
:1009E0002040E1F700C000000E94C3008E7709F0AC
:1009F00043C171100FC0811004C0CE010E941A03C0
:100A000058CF81E0881255CFCE010E9442038D2C31
:100A10007D2C4FCF113009F04CCF811005C0CE0195
:100A20000E945A037D2C45CF91E0891241CFCE011F
:100A30000E946E038D2C7D2C3CCF8E7709F039CF30
:100A4000CE010E94820335CF109219011092180135
:100A50000E94C300982F9871983139F48CE291E08C
:100A600099BD88BD9BBD8ABD0EC0982F9F7029F08F
:100A700084E690E099BD88BD06C0807F21F084E6C1
:100A800090E09BBD8ABD0F2EF6E9EF2EF12CF02DE4
:100A9000412C512C33243394612C942CA52CB32C51
:100AA00003C0CC2E01C07C2E0E94C300182F887179
:100AB000883139F48CE291E099BD88BD9BBD8ABD37
:100AC00009C013FF03C0F9BCE8BC04C014FF02C096
:100AD000FBBCEABC812F807F803F09F05DC08CE2C7
:100AE00091E099BD88BD9BBD8ABDC42DD52D16C092
:100AF00085E88A95F1F700000E94C300182F81FD58
:100B0000CB2C812F8E778E3749F42196C9359BE106
:100B1000D90720F00E946100C92DDA2D812F82743F
:100B200039F7CC2D9FEF20E782E0915020408040A4
:100B3000E1F700C000000E94C3008E7709F0A0C05A
:100B4000C11013C0811006C06CE271E0832D0E94B9
:100B5000A303AACF91E08912A7CF6CE271E084E0F1
:100B60000E94A303862CC62C9FCFC13009F09CCFD6
:100B7000811007C06CE271E083E00E94A303C62CE1
:100B800093CF21E082128DCF6CE271E086E00E946B
:100B9000A303862CC62C88CF812F8F708F3009F04D
:100BA0005DC08CE291E099BD88BD9BBD8ABDC42D1E
:100BB000D52D16C085E88A95F1F700000E94C30084
:100BC000182F86FD7B2C812F8E778E3749F4219646
:100BD000C9359BE1D90720F00E946100C92DDA2DAB
:100BE000812F827439F7C72D9FEF20E782E0915063
:100BF00020408040E1F700C000000E94C3008E77D3
:100C000009F042C0711013C0811006C06CE271E09F
:100C100082E00E94A30348CF91E0891245CF6CE2A5
:100C200071E085E00E94A303862C762C3DCFC13075
:100C300009F03ACF811007C06CE271E083E00E94B6
:100C4000A303762C31CF21E082122DCF6CE271E02C
:100C500086E00E94A303862C762C26CF812F8E77E8
:100C600009F022CF6CE271E087E00E94A3031CCF61
:100C7000CC2009F471CE0BC0772009F4C5CE0CC08E
:100C8000CC2009F46ACF0DC0772049F20FC0113093
:100C900009F475CE8B2C0DCE113009F4C8CE8B2CF7
:100CA00008CEC13009F470CF832CFECEC13071F272
:100CB000832CFACEE89409C097FB3EF4909580957A
:100CC000709561957F4F8F4F9F4F9923A9F0F92F12
:100CD00096E9BB279395F695879577956795B79590
:100CE000F111F8CFFAF4BB0F11F460FF1BC06F5F76
:100CF0007F4F8F4F9F4F16C0882311F096E911C088
:100D0000772321F09EE8872F762F05C0662371F0A8
:100D100096E8862F70E060E02AF09A95660F771FBC
:100D2000881FDAF7880F9695879597F9089541D02F
:100D3000A8F19E57A8F1985160F039F1983070F5FC
:100D4000092E9927660F771F881F991F0A94D1F7DC
:100D50001CC0BB27993F4CF4B111B1E0B62B672FF3
:100D6000782F8827985FB1F708C0869577956795A3
:100D7000B79508F4B1609395C1F7BB0F30F411F447
:100D800060FF03C06F5F7F4F8F4F3EF4909580955B
:100D9000709561957F4F8F4F9F4F0895689424C041
:100DA00022C057FD9058440F551F59F05F3F71F016
:100DB0004795880F97FB991F61F09F3F79F08795C2
:100DC0000895121613061406551FF2CF4695F1DF4B
:100DD00008C0161617061806991FF1CF86957105DB
:100DE000610508940895E894BB2766277727CB010F
:100DF00097F90895A1E21A2EAA1BBB1BFD010DC095
:100E0000AA1FBB1FEE1FFF1FA217B307E407F507BA
:100E100020F0A21BB30BE40BF50B661F771F881F96
:100E2000991F1A9469F760957095809590959B012C
:100E3000AC01BD01CF010895DC01FC01672F719168
:100E40007723E1F7329704C07C916D9370836291B0
:0C0E5000AE17BF07C8F30895F894FFCF59
:100E5C0064000D0D5265766572736564204461748F
:100E6C00613A20000D0D536F6C76656420446174FB
:100E7C00613A20000D0D536F6C76656420446174EB
:100E8C00612050726163746963616C3A20000D0DCE
:100E9C00456E6420537475636B2121210D0D0D2D4E
:100EAC002D2D2D2D2D2D2D2D2D2D2D2D2D2D2D2D66
:100EBC002D2D2D2D2D2D2D2D2D2D2D2D2D2D2D2D56
:100ECC002D2D2D2D2D2D2D2D2D2D2D2D2D2D2D2D46
:100EDC002D2D2D2D2D2D0D0D0D0D000D4920616D80
:100EEC0020726561647921210D0073746172742024
:100EFC00746F7572203A290D0D537475636B204411
:060F0C006174613A20004F
:00000001FF
