:100000000C942A000C943C000C943C000C943C0092
:100010000C943C000C943C000C943C000C943C0070
:100020000C943C000C943C000C943C000C943C0060
:100030000C943C000C943C000C943C000C943C0050
:100040000C943C000C943C000C943C000C943C0040
:100050000C943C0011241FBECFE5D8E0DEBFCDBF1D
:1000600022E0A0E6B0E001C01D92A635B207E1F79C
:100070000E943C030C94A6050C94000085E088BB0C
:100080008EB582608EBD08958AE088BB8EB5826091
:100090008EBD089589E088BB8EB582608EBD0895BF
:1000A00086E088BB8EB582608EBD089518BA8EB585
:1000B0008D7F8EBD0895829BFECF839BFCCF83B343
:1000C0000895CF93DF9382E690E00E949605809199
:1000D0006200882309F4ACC0A3E6B0E0E2E6F0E0F9
:1000E0002CE692E78C3611F4908303C0823709F432
:1000F00020838D9131968111F5CF209162002223CA
:1001000009F496C080E090E0D3E7C2E765E77CE6BB
:1001100050E040E0253709F084C09C0121503109AE
:10012000F901EE59FF4FA081A23789F4FC01EE5985
:10013000FF4FE181E33729F5F901EE59FF4F708355
:10014000FC01EE59FF4F228121115AC064C0A33730
:1001500059F4FC01EE59FF4FE181E23731F5F90125
:10016000EE59FF4F7083ECCFAC3659F4FC01EE59D9
:10017000FF4FE181E237D9F4F901EE59FF4F608377
:10018000DFCFA23791F4FC01EE59FF4FE181E23756
:1001900029F4F901EE59FF4FD083D2CFEC3681F626
:1001A000F901EE59FF4F6083CBCFAC3699F4FC01D7
:1001B000EE59FF4FE181E33729F4F901EE59FF4F82
:1001C000C083BECFEC3609F0BBCFF901EE59FF4F2B
:1001D000D083B6CFA33709F0B3CFFC01EE59FF4F60
:1001E000E181EC3629F4F901EE59FF4FC083A8CF25
:1001F000E33709F0A5CFF901EE59FF4F6083A0CF97
:10020000DC01AE59BF4FFC01EB59FF4F2D93019616
:1002100021912111FBCFFC01EE59FF4F1082852F58
:10022000942F0196FC01EE59FF4F2081211172CFCE
:10023000DF91CF9108950F931F93CF93DF93EC013C
:100240002FEF82E597E0215080409040E1F700C019
:1002500000000E9450008E01045D1E4F1BBD0ABDB0
:100260002FE788E391E0215080409040E1F700C003
:100270000000CE01C29799BD88BD805B9F4F9BBD9A
:100280008ABD0E945B0080768036D9F70E945B00B1
:1002900080738033D9F70E945B0088718831D9F769
:1002A0000E943E00D9BDC8BD1BBD0ABD2FE788E333
:1002B00091E0215080409040E1F700C00000D9BD9E
:1002C000C8BDDBBDCABDDF91CF911F910F910895CD
:1002D0000F931F93CF93DF93EC010E9456000E946F
:1002E00061002FEF89E698E1215080409040E1F7CE
:1002F00000C000000E9444008E0108531F4F19BD2A
:1003000008BD1BBD0ABD2FE788E391E02150804066
:100310009040E1F700C00000D9BDC8BDDBBDCABD3B
:100320000E945B00827421F00E945B008274E1F7FE
:100330000E9456002FEF80E792E0215080409040CD
:10034000E1F700C000000E943E0019BD08BD1BBDC2
:100350000ABD2FE788E391E0215080409040E1F70B
:1003600000C00000CE01449699BD88BD9BBD8ABDEA
:100370002FEF83EC99E0215080409040E1F700C0DE
:1003800000000E9450008E01045D1E4F1BBD0ABD7F
:100390002FE788E391E0215080409040E1F700C0D2
:1003A0000000CE01C29799BD88BD805B9F4F9BBD69
:1003B0008ABD2FEF80E792E0215080409040E1F726
:1003C00000C000000E945B008076E1F70E945B00A5
:1003D00080768036D9F70E945B0080738033D9F72E
:1003E0000E945B0088718831D9F70E943E00D9BD18
:1003F000C8BD1BBD0ABD2FE788E391E021508040B6
:100400009040E1F700C00000D9BDC8BDDBBDCABD4A
:10041000DF91CF911F910F9108950F931F93CF9369
:10042000DF93EC010E9450008E01045D1E4F1BBD46
:100430000ABD2FE788E391E0215080409040E1F72A
:1004400000C00000CE01C29799BD88BD805B9F4F60
:100450009BBD8ABD0E945B0080768036D9F70E94E2
:100460005B0080738033D9F70E943E00D9BDC8BDC0
:100470001BBD0ABD2FE788E391E0215080409040EA
:10048000E1F700C00000D9BDC8BDDBBDCABDDF912A
:10049000CF911F910F9108950F931F93CF93DF93E7
:1004A000EC010E944A008E01045D1E4F19BD08BD7B
:1004B0002FE788E391E0215080409040E1F700C0B1
:1004C0000000CE01C2979BBD8ABD805B9F4F99BD46
:1004D00088BD0E945B0086708630D9F70E945B0061
:1004E0008C708C30D9F70E943E00DBBDCABD19BDAF
:1004F00008BD2FE788E391E0215080409040E1F76C
:1005000000C00000D9BDC8BDDBBDCABDDF91CF9121
:100510001F910F9108950E940D02809160009091AB
:100520006100FC01EE59FF4F2CE620830196909369
:1005300061008093600008950E944C0280916000E9
:1005400090916100FC01EE59FF4F22E72083019654
:10055000909361008093600008950E940D02809145
:10056000600090916100FC01EE59FF4F2CE6208362
:1005700001969093610080936000089599BD88BDB5
:100580009BBD8ABD0E943E008091600090916100F9
:10059000FC01EE59FF4F23E7208301969093610001
:1005A0008093600008950E940D02809160009091F8
:1005B0006100FC01EE59FF4F2CE6208301969093D9
:1005C00061008093600008950E940D028091600098
:1005D00090916100FC01EE59FF4F2CE620830196BB
:1005E000909361008093600008950E941B018091A8
:1005F000600090916100FC01EE59FF4F25E72083D8
:10060000019690936100809360000895E0916000EE
:10061000F0916100EE59FF4F10820E946801089529
:100620002091600030916100F901EE59FF4F808107
:100630002F5F3F4F3093610020936000833739F480
:1006400079BD68BD7BBD6ABD0E943E0008958537B7
:1006500021F4CB010E941B0108958C3621F4CB01BB
:100660000E940D020895823721F4CB010E944C02B2
:1006700008950E945600089583E08BBB1ABA18BAF9
:100680009FE097BB9FEF95BB14BA12BA90E391BB62
:1006900092EA9FBD98E19EBD1DBC1CBC87BD88EE43
:1006A00086BD8CE291E09BBD8ABD99BD88BDC8998D
:1006B000FECF2FEF84E39CE0215080409040E1F793
:1006C00000C000000E943E0084EF91E099BD88BD0B
:1006D0009BBD8ABD2FEF86E791E02150804090407E
:1006E000E1F700C000008CE291E099BD88BD9BBDA0
:1006F0008ABD0E945B00827421F00E945B008274BC
:10070000E1F7812C712CC12C0F2EF6E9EF2EF12C84
:10071000F02DCCE2D1E0612C912CBB24B394D12CF0
:10072000AB2C03C0C12E01C0712E0E945B00982F1C
:100730009871983129F4D9BDC8BDDBBDCABD09C0C7
:1007400083FF03C0F9BCE8BC04C084FF02C0FBBC4B
:10075000EABC982F907F903F09F053C0D9BDC8BD27
:10076000DBBDCABD062D192D17C025E82A95F1F766
:1007700000000E945B0081FDCA2C982F9E779E3757
:1007800059F40F5F1F4F09359BE1190728F08CE2E0
:1007900091E00E94060394C0827439F71C2D2FEF5C
:1007A00080E792E0215080409040E1F700C00000D7
:1007B0000E945B008E7709F097C1C1100FC08110B5
:1007C00004C0CE010E948B02B0CF21E08212ADCFD7
:1007D000CE010E94AD028D2CCD2CA7CF113009F097
:1007E000A4CF811005C0CE010E94D302CD2C9DCF95
:1007F00081E0881297CFCE010E94E4028D2CCD2C8F
:1008000094CF982F9F709F3009F053C0D9BDC8BDB9
:10081000DBBDCABD062D192D17C095E89A95F1F7D5
:1008200000000E945B0086FD7A2C982F9E779E37F1
:1008300059F40F5F1F4F09352BE1120728F08CE2A6
:1008400091E00E9406033CC0827439F7172D8FEFA8
:1008500090E722E0815090402040E1F700C0000086
:100860000E945B008E7709F043C171100FC08110A8
:1008700004C0CE010E949C0258CF81E0881255CF5F
:10088000CE010E94BE028D2C7D2C4FCF113009F07D
:100890004CCF811005C0CE010E94D3027D2C45CFE4
:1008A00091E0891241CFCE010E94E4028D2C7D2C73
:1008B0003CCF8E7709F039CFCE010E94F50235CFBB
:1008C00010926100109260000E945B00982F987156
:1008D000983139F48CE291E099BD88BD9BBD8ABD09
:1008E0000EC0982F9F7029F084E690E099BD88BDD6
:1008F00006C0807F21F084E690E09BBD8ABD0F2E6C
:10090000F6E9EF2EF12CF02D412C512C33243394A9
:10091000612C942CA52CB32C03C0CC2E01C07C2EB2
:100920000E945B00182F8871883139F48CE291E0C5
:1009300099BD88BD9BBD8ABD09C013FF03C0F9BC2A
:10094000E8BC04C014FF02C0FBBCEABC812F807F5E
:10095000803F09F05DC08CE291E099BD88BD9BBDF0
:100960008ABDC42DD52D16C085E88A95F1F7000003
:100970000E945B00182F81FDCB2C812F8E778E3744
:1009800049F42196C9359BE1D90720F00E94560011
:10099000C92DDA2D812F827439F7CC2D9FEF20E7F6
:1009A00082E0915020408040E1F700C000000E94AA
:1009B0005B008E7709F0A0C0C11013C0811006C083
:1009C0006CE271E0832D0E941003AACF91E089129E
:1009D000A7CF6CE271E084E00E941003862CC62C45
:1009E0009FCFC13009F09CCF811007C06CE271E04D
:1009F00083E00E941003C62C93CF21E082128DCF9A
:100A00006CE271E086E00E941003862CC62C88CF31
:100A1000812F8F708F3009F05DC08CE291E099BD1D
:100A200088BD9BBD8ABDC42DD52D16C085E88A958D
:100A3000F1F700000E945B00182F86FD7B2C812FB0
:100A40008E778E3749F42196C9359BE1D90720F07E
:100A50000E945600C92DDA2D812F827439F7C72DD7
:100A60009FEF20E782E0915020408040E1F700C0F6
:100A700000000E945B008E7709F042C0711013C025
:100A8000811006C06CE271E082E00E94100348CF42
:100A900091E0891245CF6CE271E085E00E9410037D
:100AA000862C762C3DCFC13009F03ACF811007C09B
:100AB0006CE271E083E00E941003762C31CF21E0DC
:100AC00082122DCF6CE271E086E00E941003862C2A
:100AD000762C26CF812F8E7709F022CF6CE271E041
:100AE00087E00E9410031CCFCC2009F471CE0BC00C
:100AF000772009F4C5CE0CC0CC2009F46ACF0DC014
:100B0000772049F20FC0113009F475CE8B2C0DCE31
:100B1000113009F4C8CE8B2C08CEC13009F470CF47
:100B2000832CFECEC13071F2832CFACEDC01FC01A5
:100B3000672F71917723E1F7329704C07C916D9311
:100B400070836291AE17BF07C8F30895F894FFCF82
:00000001FF
