S01600003370692D6D617A65736F6C7665722E737265638D
S11300000C9457000C947F000C947F000C947F0098
S11300100C947F000C947F000C947F000C947F0060
S11300200C947F000C94FB0B0C947F000C947F00C9
S11300300C947F000C9446080C947F000C947F0071
S11300400C947F000C947F000C947F000C947F0030
S11300500C947F000C947F000C947F000C947F0020
S11300600C947F000C947F00000000000000001F2F
S11300701F1F1F1F1F1F4C31362063646567726585
S11300806734003E6733323E3E63333200736F6C35
S1130090766572004D617A650033F720526F626FA6
S11300A0740020506F6C6F6C7500C40CC50C112467
S11300B01FBECFEFD8E0DEBFCDBF11E0A0E0B1E0BE
S11300C0E2E0F8E202C005900D92AA34B107D9F734
S11300D021E0AAE4B1E001C01D92A13CB207E1F71E
S11300E010E0CCEAD0E004C02297FE010E94BA12CC
S11300F0CA3AD107C9F70E9444020C94F4130C9431
S1130100000060E088E690E00E947B0961E089E6F7
S113011090E00E947B0962E08AE690E00E947B09FD
S113012063E08BE690E00E947B0964E08CE690E05B
S11301300E947B0965E08DE690E00E947B0966E001
S11301408EE690E00E947B090C94FB09CF92DF922B
S1130150EF92FF920F931F93CF93DF93CDB7DEB748
S11301602A970FB6F894DEBF0FBECDBF8C01D12CF9
S11301708AE0C82E95E6E92EF12CE1E3F1E0DE01F8
S113018011968C2D01900D928A95E1F7F8018191D9
S113019091918F01B7010E940D1281E090E08C0FC4
S11301A09D1F680F791FFB0180810E947E09D394F3
S11301B0F5E0DF12E2CF2A960FB6F894DEBF0FBE49
S11301C0CDBFDF91CF911F910F91FF90EF90DF9002
S11301D0CF9008952F923F924F925F926F927F92A9
S11301E08F929F92AF92BF92CF92DF92EF92FF9243
S11301F00F931F93CF93DF93CDB7DEB72A970FB634
S1130200F894DEBF0FBECDBF8C01C12CD12C76017A
S1130210212C312C50E1452E57E2552E612C712CA6
S113022088249924881A990A61E0CE0101960E94D3
S1130230850C805D97405C01AA2797FDA095BA2F95
S1130240C80ED91EEA1EFB1EC701B601A301920106
S11302500E945712B50162197309CB01880F991FC7
S1130260860F971F97FD0196FC01F595E795E20F20
S1130270F31FC50164E170E00E942112E60FF71F2D
S11302800E171F070CF4F801CF01E815F9050CF45B
S1130290C401B80197FF03C0800F911F03C0681BFE
S11302A0790BC8010E94AD0B8B819C81843691052A
S11302B050F48D819E818436910528F48F81988530
S11302C08436910560F089819A81893C910538F4DE
S11302D089859A85893C910510F41501A5CF2A9644
S11302E00FB6F894DEBF0FBECDBFDF91CF911F9143
S11302F00F91FF90EF90DF90CF90BF90AF909F90C1
S11303008F907F906F905F904F903F902F900895C3
S11303100F931F93CF93DF93CDB7DEB72A970FB612
S1130320F894DEBF0FBECDBF80ED97E00E94C00CF5
S11303300E94810082EA90E00E94230A61E080E04A
S11303400E94A30A89E990E00E94230A83E890E0CE
S11303500E94B80888EE93E00E94430C0E94FB09B7
S113036084E990E00E94230A61E080E00E94A30AED
S11303708DE890E00E94230A88EE93E00E94430CEB
S113038080E10E94F00B81111BC00E9476058C0154
S11303900E94FB09B801882777FD8095982F0E9459
S11303A0800A8BE391E00E94120A61E080E00E94DF
S11303B0A30A8EE391E00E94120A84E690E0DECF65
S11303C080E10E94DC0B88EE93E00E94430C0CEE6B
S11303D01FEF0832110528F068ED7FEF88E290E006
S11303E004C068E270E088ED9FEF0E94AD0B81E0ED
S11303F00E947F0C84E190E00E94430C0F5F1F4F2A
S11304000C33110531F760E070E080E090E00E9469
S1130410AD0B80E10E94F00B81111AC061E0CE01A6
S113042001960E94850C8C010E94FB09B80180E0B2
S113043090E00E94800A61E080E00E94A30ACE015D
S113044001960E94A60084E690E00E94430CE1CF4E
S113045080E10E94DC0B0E94FB0986E491E00E948B
S1130460120A86E790E00E94B8080E94A70881114A
S1130470FCCF2A960FB6F894DEBF0FBECDBFDF9136
S1130480CF911F910F9108950E94880184EB90E011
S11304900E944B02FFCFCF93DF93CDB7DEB72A97ED
S11304A00FB6F894DEBF0FBECDBF8C01B12C912CDA
S11304B0A12C82E3C82ED12CC8010E94EA0061E07D
S11304C0CE0101960E94850C89819A81853F9140D5
S11304D008F469C062E370E082E390E00E94AD0B2F
S11304E0E12CF12C89819A8161E0853F914068F18A
S11304F0CE0101960E94850CC6016F9364E06A9553
S1130500F1F76F910197C9F789859A85853F41E095
S1130510940720F0A11002C0AA24A39429813A814F
S1130520253F3140F8F2853F9140E0F24FEFE41A65
S1130530F40A89E8E81683E1F806A0F260E070E0C6
S113054080E090E00E94AD0BFFCF89859A85853FBE
S1130550914070F6CE0101960E94850C8D819E819A
S11305608D32914008F0A6C0A11009C0B11003C09B
S1130570B8018CE486C041E0B4129ECF0EC081E085
S1130580A8129ACFB11006C0B8018CE40E94780377
S1130590A12C92CF21E0B2128FCFB8018CE40E943B
S11305A07803B12CF5CF89859A85853F914008F46D
S11305B054C062E370E082E390E00E94AD0BE12C52
S11305C0F12C89819A8161E0853F9140B0F0CE01A0
S11305D001960E94850CC6016F9364E06A95F1F759
S11305E06F910197C9F789819A81853F914048F3BA
S11305F091104AC09924939447C089859A85853F70
S1130600914028F7CE0101960E94850C8D819E8130
S11306108D32914008F052C091100BC0B11003C04C
S1130620B80182E52EC041E0B41246CFB80183E59B
S11306300FC081E0981240CFB11005C0B8018CE41E
S11306400E94780308C021E0B21236CFB8018CE4CE
S11306500E947803B12C912C2FCF8B819C818C32FA
S1130660914008F029CF8D819E818C32914008F011
S113067023CF8F8198858C32914008F01DCFB8012B
S113068085E50E94780318CF89859A85853F914036
S113069008F497CF4FEFE41AF40A89E8E81683E1E7
S11306A0F80608F48ECF60E070E080E090E00E94ED
S11306B0AD0BFFCFAA2009F470CF04C0992009F430
S11306C0B5CF05C041E0A41609F467CF04C081E0AA
S11306D0981609F4BBCFBB24B394EECE8AE090E025
S11306E06F9364E06A95F1F76F910197C9F70895E4
S11306F0CF93DF93CDB7DEB72A970FB6F894DEBF5A
S11307000FBECDBF8C3409F05BC060E070E080E0C8
S113071090E00E94AD0B84E190E00E94430C6AE1FA
S11307207FEF8AE19FEF0E94AD0B8AE090E00E9488
S1130730430C60E070E080E090E00E94AD0B8AE042
S113074090E00E94430C6CE370E084EC9FEF0E9405
S1130750AD0B89819A81843F914040F461E0CE01E0
S113076001960E94850C0E946E03F3CF89819A81C1
S1130770853F914040F061E0CE0101960E94850CD6
S11307800E946E03F3CF8D819E818C32914058F488
S113079061E0CE0101960E94850C0E946E03F3CFA6
S11307A0833509F05BC082E390E00E94EA0084E6AE
S11307B090E00E94EA008CE890E00E94EA009DC06C
S11307C0823571F760E070E080E090E00E94AD0B4C
S11307D084E190E00E94430C6AE17FEF8AE19FEF9D
S11307E00E94AD0B8AE090E00E94430C60E070E050
S11307F080E090E00E94AD0B8AE090E00E94430C00
S113080064EC7FEF8CE390E00E94AD0B89859A85C0
S1130810843F914040F461E0CE0101960E94850C32
S11308200E946E03F3CF89859A85853F914040F0FD
S113083061E0CE0101960E94850C0E946E03F3CF05
S11308408D819E818C32914008F0ADCF61E0CE0164
S113085001960E94850C0E946E03F2CF853509F043
S11308604CC060E070E080E090E00E94AD0B84E159
S113087090E00E94430C6AE17FEF8AE19FEF0E94BF
S1130880AD0B8AE090E00E94430C60E070E080E0F1
S113089090E00E94AD0B8AE090E00E94430C64EC6F
S11308A07FEF8CE390E00E94AD0B89859A85843FAD
S11308B0914040F461E0CE0101960E94850C0E94B3
S11308C06E03F3CF89859A85853F914040F061E0BE
S11308D0CE0101960E94850C0E946E03F3CF8D8198
S11308E09E818C32914008F05ECF61E0CE0101968A
S11308F00E94850C0E946E03F2CF2A960FB6F894DC
S1130900DEBF0FBECDBFDF91CF910895882321F4C0
S113091080917C008F7D03C080917C0080628093F5
S11309207C00089580917C0090E025E09595879562
S11309302A95E1F78170089580917A0090E036E07D
S1130940959587953A95E1F7817008950E949204F0
S1130950882321F02091790030E004C020917800B0
S113096030917900C90108958032B0F497E89093EA
S11309707A0090917C00292F2064662311F0906CFA
S113098002C0922F9F77907E982B90937C00809149
S11309907A00806480937A000895A0E0B0E0E3EDEB
S11309A0F4E00C948B126B0160E00E94B4040E948A
S11309B09C048823E1F7E601EE24FF24870180915B
S11309C07A00806480937A000E949C048823E1F773
S11309D00E94A604A0E0B0E0E80EF91E0A1F1B1F47
S11309E0219769F7C6019695879520E4C216D1042C
S11309F040F48E0D9F1D6C2D70E00E940D12CB01F2
S1130A000DC0BC0180E090E06E0D7F1D801F911F22
S1130A10960140E050E00E943512C901CDB7DEB71F
S1130A20E8E00C94A712A3E0B0E0E9E1F5E00C944F
S1130A309012BC0180E090E020910001309101010E
S1130A4040E050E00E94F111182F69837A839B8360
S1130A500E94920469817A819B81882371F09B01B1
S1130A60412F592FCA01B90161587F4F8F4F9F4FB2
S1130A702FEF30E040E050E00DC09B01412F592F93
S1130A80CA01B90161507E4F8F4F9F4F2FEF33E062
S1130A9040E050E00E943512C9012396E3E00C9433
S1130AA0AC120E94CD040E94130508951F93CF93A6
S1130AB0DF930E949204182F80E00E94860486E04F
S1130AC06AE070E00E945105EC01812F0E948604C7
S1130AD09E01220F331F2C0F3D1F2F5F3F4F369572
S1130AE02795C901DF91CF911F9108950E94560562
S1130AF0089590914F01E0914B01F0914C0199239D
S1130B0011F0849101C08081282F21542A3110F4DE
S1130B10805E0895803271F420914B0130914C0134
S1130B20A9014F5F5F4F50934C0140934B01211536
S1130B30310509F70895EF92FF92CF93DF930E9456
S1130B407905C0E0D0E01BC09E01220F331F93E063
S1130B50CC0FDD1F9A95E1F7C20FD31F992787FDAC
S1130B609095C80FD91FE09780914B0190914C014B
S1130B70019690934C0180934B010E947905982F24
S1130B8090539A3008F3CE01DF91CF91FF90EF900C
S1130B90089510926F0083E28093800081E1809336
S1130BA081001092820080E197E290938900809303
S1130BB0880010928B0010928A00229A78940895EB
S1130BC080914A01882329F481E080934A010E949C
S1130BD0C9050895A0E0B0E0E0EFF5E00C948712B9
S1130BE08C015B01E42E0E94E0051092020117FFC4
S1130BF004C01F77AAE0FA2E02C0FF24F394C09029
S1130C008100DD2428EFC222DD2488EC3F2D389FAB
S1130C10C001112480179107D8F4E80167E201317B
S1130C20160710F0C0E1D7E2BE017695679580E023
S1130C3090E06058794687469F4F9E0140E050E01F
S1130C400E943512890181E090E0C82AD92A2CC07B
S1130C5098E2F99E902D112480E0892EE4014E0142
S1130C60982EE4018016910608F4E801BE017695F9
S1130C7067959E0140E050E08F2D8A3039F480E082
S1130C8090E0605E734481449F4F06C080E090E032
S1130C9060537D4E8C4E9F4F0E943512890152E065
S1130CA0852E912CC828D9282F2D2A3039F4CE012D
S1130CB005966AE070E00E940D12EB0133E0C83E35
S1130CC0D30779F0BE0180E090E0950140E050E068
S1130CD00E94F11128EE33E040E050E00E945712E8
S1130CE001C0950110926F00C09281001093890099
S1130CF00093880040918800509189006E2D6031E6
S1130D0008F06FE080E190E0861B9109BA0102C00F
S1130D10769567958A95E2F770938B0060938A00C5
S1130D20309352012093510186B38FEF86BB81E04B
S1130D3080936F00CDB7DEB7ECE00C94A3129B0157
S1130D408F3F11F0442329F488EE93E0B90140E089
S1130D5049C0813130F0582F5051503618F05FE5BA
S1130D6001C050E0852F6CE00E940112A82FB0E072
S1130D70E4EFFFEFAE9FB001AF9F700DBE9F700D0B
S1130D801124650F711D6C30710540F4FB01EE0FE9
S1130D90FF1FE45FFE4F6081718102C060E070E07C
S1130DA0873081F0082E02C0660F771F0A94E2F79D
S1130DB0823028F0CB0105966AE070E00CC06050E8
S1130DC070480BC0CB01B6E0880F991FBA95E1F7C4
S1130DD0029665E070E00E940D12403108F04FE089
S1130DE0CB01B9010E94EA050895A0E0B0E0EBEF61
S1130DF0F6E00C948612B090030180914D01882393
S1130E0061F060914E01662341F08FEF70E040E0A5
S1130E100E949F0610924E0134C1C0ECDDE5AA2465
S1130E20A39414E0712E00ED17E0B4E0EB2EF12C46
S1130E30A4EFCA2EA1E0DA2EFFE08F2E912C0E949F
S1130E40790520914B0130914C012F5F3F4F309336
S1130E504C0120934B018636F1F18736CCF482366F
S1130E6009F4AFC083367CF48E3349F18F333CF4FC
S1130E70813209F487C08C3309F09BC022C08136CB
S1130E8009F097C09BC0843601F185360CF51BC070
S1130E908F3609F447C0803744F48C3611F18D360F
S1130EA061F1873609F085C019C0843709F444C05C
S1130EB0863709F460C0823709F07BC039C0B39427
S1130EC0BECFBA94BCCFEE2435C0EE2482E07BC002
S1130ED0EE2484E078C0EE2485E075C0EE2487E03B
S1130EE072C00E949B05BC0190930501809304018C
S1130EF0809106019091070137C00E9479058C36D4
S1130F0019F410924D0104C0A0924D0110924E01AB
S1130F1080914B0190914C01019690934C018093E8
S1130F204B018DCF0E949B05B82E8093030187CF80
S1130F30EE24E39480E047C00E949B05BC01CE01EF
S1130F400E940D12CB01880F991F53E0660F771F83
S1130F505A95E1F7860F971F909307018093060136
S1130F6060910401709105010E940D1270930901B2
S1130F706093080164CF0E949B0590930B018093BA
S1130F800A015DCF709203011093070100930601DB
S1130F90F0920501E0920401D0920901C092080187
S1130FA090920B0180920A0110924D0144E0B42EFC
S1130FB046CF10924C0110924B0163C0EE2489E09D
S1130FC002C0EE248BE09CE0B99EB02C1124B80E34
S1130FD00E9479058B3211F08332B9F480914B0170
S1130FE090914C01019690934C0180934B01B394E2
S1130FF0EFCF80914B0190914C01019690934C015D
S113100080934B01BA940E9479058D3291F3C0917B
S11310100801D09109018153883058F4C091060128
S1131020D09107010E949B05BC01CE010E940D12C4
S1131030EB018E010BC080914B0190914C01019604
S113104090934C0180934B01C00FD11F16950795C7
S11310500E9479058E3279F380914D01882339F00D
S1131060CE019695879580934E01C81BD109EE2039
S113107011F0BB24BA948B2DBE0140910A010E9449
S11310809F06CDB7DEB7EDE00C94A2121F920F922B
S11310900FB60F9211242F933F934F935F936F9347
S11310A07F938F939F93AF93BF93EF93FF9380911D
S11310B05101909152019C012150304030935201D2
S11310C020935101009711F510926F00789480914C
S11310D08100887F81608093810080E197E2909312
S11310E089008093880010928B0010928A0081E01E
S11310F08093020180914B0190914C01009731F053
S113110080915001882311F40E94F506FF91EF911C
S1131110BF91AF919F918F917F916F915F914F910B
S11311203F912F910F900FBE0F901F9018958091B3
S11311300201882351F081E020914B0130914C0150
S11311402115310519F480E0089581E008950E9485
S11311509708089510926F0090934C0180934B016F
S113116081E080934F0110924E010E94F50608958C
S11311700E94AA08089581E090E06F9364E06A9564
S1131180F1F76F910197C9F708950F931F93CF93C8
S1131190DF931AB157985A98289AC0E0D0E00E9479
S11311A0BB085C9A0E94BB0809B15C980E94BB080A
S11311B05C9A0E94BB085C9807FF11C024969E01AC
S11311C040E050E08091570190915801A09159015D
S11311D0B0915A01281739074A075B0700F31AB977
S11311E0DF91CF911F910F91089565B190E0AC010B
S11311F041705070440F551F9C012670307053E0AD
S1131200220F331F5A95E1F7242B6D7C262B25B929
S11312102BB18870907034E0880F991F3A95E1F7EC
S11312202F77282B2BB95C9A0E94BB085C980E94EC
S1131230BB080895A2E0B0E0E0E2F9E00C948C125F
S1131240182F4A8369830E94C5090E94C508F4B017
S113125005B1DAB0EBB0289869814A81662311F0B0
S11312605A9A01C05A9884B1826384B9579A41301A
S113127029F0812F82958F700E94F508812F8F703D
S11312800E94F508DAB8EBB8F4B805B92296E7E09D
S11312900C94A81260E042E00E941A09089561E0EB
S11312A042E00E941A090895EF92FF921F93DF9380
S11312B0CF930F92CDB7DEB7660F660F660F482F38
S11312C0592F7A0110E0812F860F806469830E9470
S11312D04A09F70184910E944F091F5F0894E11C99
S11312E0F11C6981183079F70F90CF91DF911F912C
S11312F0FF90EF9008950E94540908950E944F09A9
S1131300089560E041E00E941A09089580E197E29F
S1131310A0E0B0E08093570190935801A093590145
S1131320B0935A01529A209A549A8EE190E00E9406
S1131330430C83E00E94810986E090E00E94430C04
S113134083E00E94810982E090E00E94430C83E0E4
S11313500E94810982E090E00E94430C82E00E9496
S1131360810982E090E00E94430C88E20E944A09CD
S113137088E00E944A0981E00E944A0986E00E94AE
S11313804A098CE00E944A09089580915B018823F0
S113139029F481E080935B010E948609089581E02D
S11313A00E944A098091530190915401009711F1D0
S11313B0A0E0B0E208C0E0915301F0915401E20FC3
S11313C0F31FB083AF5F2A2F30E08091240190E0B7
S11313D001976091250170E0869FA001879F500DC1
S11313E0969F500D1124241735072CF310925601A3
S11313F01092550108950E94CF090895EF92FF922B
S1131400CF93DF93E82EE7017E01F92EE70102C0B6
S11314100E944F0989918823D9F7DF91CF91FF90DA
S1131420EF9008950E94FE090895CF93DF93EC0195
S113143003C00E944F092196FE0184918823C9F7B5
S1131440DF91CF9108950E94150A0895AAE0B0E0B3
S1131450ECE2FAE00C9489129B01AC011AE0EAE098
S1131460CE2ED12CE12CF12C5E010894A11CB11CD0
S1131470022FCA01B901A70196010E943512115029
S1131480F501E10FF11D005D922F990F892F880F4F
S1131490880F890F081B008321153105410551056B
S11314A039F708C0F601E10FF11D80810E944F0950
S11314B01F5F04C06E010894C11CD11C1A3090F344
S11314C02A96EAE00C94A512EF92FF920F931F93D1
S11314D07B018C0197FF0BC010950095F094E0946C
S11314E0E11CF11C011D111D8DE20E944F09C80170
S11314F0B7010E94260A1F910F91FF90EF90089563
S11315000E94640A0895A5E0B0E0E9E8FAE00C94CA
S11315109012182F80E8898380EC8A8384E98B8376
S113152084ED8C83FE01E60FF11D8181810F6D83B3
S11315300E944A09109356016D81609355012596C6
S1131540E3E00C94AC120E94830A0895FC0111821A
S1131550108213821282158214821682683068F413
S113156089E290E0918380838BE290E0938382838D
S11315708AE290E09583848311C06E30C0F483E2E4
S113158090E09183808385E290E09383828384E278
S113159090E09583848370E06850704081E090E02F
S11315A002C0880F991F6A95E2F786830895653112
S11315B0B8F486E290E09183808388E290E093839C
S11315C0828387E290E09583848370E06E5070405C
S11315D081E090E002C0880F991F6A95E2F7868344
S11315E00895FC01A481B5818681662321F09C9134
S11315F0982B9C9308959C91809589238C930895AE
S1131600FC016F3F31F4A281B3818C9196818927CB
S11316100CC0A281B3818681662321F09C91982B12
S11316209C9308959C91809589238C930895A7E0B9
S1131630B0E0EDE1FBE00C948E12282FF62E8E0123
S11316400F5F1F4FC801622F0E94A60AC8016F2DA9
S11316500E94000BC80161E00E94F10A2796E5E0B0
S11316600C94AA12E0EBF0E083EF8083808184BDC8
S1131670E1EBF0E082E08083808185BDE4EBF0E083
S113168010828081E3EBF0E08083808188BD88B59F
S113169087BD86E060E00E94170B85E060E00E9451
S11316A0170B8BE060E00E94170B83E060E00E9460
S11316B0170B089580915C01882329F481E08093BD
S11316C05C010E94320B0895CF93DF93EC010E94DA
S11316D05A0BD7FF05C0D095C195DF4F81E001C0FB
S11316E080E0CF3FD10519F014F0CFEFD0E088238C
S11316F019F018BCC7BD02C0C8BD17BCDF91CF919B
S11317000895CF93DF93EC010E945A0BD7FF05C0D5
S1131710D095C195DF4F81E001C080E0CF3FD10576
S113172019F014F0CFEFD0E0882329F01092B40020
S1131730C093B30004C0C093B4001092B300DF910F
S1131740CF910895CF93DF93EB010E94640BCE01F8
S11317500E94810BDF91CF9108950E94A20B0895FE
S113176084B18D7C84B985B1826385B985E090E0CC
S11317706F9364E06A95F1F76F910197C9F7089543
S113178080915D01882329F481E080935D010E94AA
S1131790B00B08951F93182F0E94C00B83B18123AF
S11317A0E9F38AE090E00E94430C83B18123B1F312
S11317B083B181231F9108950E94CA0B0895A1E06B
S11317C0B0E0E5EEFBE00C94911289830E94C00B1B
S11317D093B19095898189232196E2E00C94AD120E
S11317E00E94DF0B08956F9364E06A95F1F76F919F
S11317F00197C9F708952F928F939F932FB68091E5
S11318006B0190916C01019680936B0190936C0134
S113181090E080916D01891F80936D019091730117
S11318209C5F909373018091720180519742C0F044
S1131830909373018093720180916E0190916F0176
S1131840019680936E0190936F0190E080917001F6
S1131850891F8093700180917101891F80937101A8
S11318602FBE9F918F912F901895CF93DF93EC010A
S113187005C088EE93E00E94F30B21972097C9F7E7
S1131880DF91CF9108950E94350C0895E0E7F0E0D0
S113189080818E7F8083A0EBB0E08C9183608C93F9
S11318A0A1EBB0E08C91807F8C938C9182608C93BF
S11318B0B89A8081816080837894089580917401BE
S11318C0882329F481E0809374010E94460C0895D2
S11318D00E945E0CE0E7F0E080818E7F80831092AE
S11318E06E0110926F0110927001109271011092AA
S11318F07301109272018081816080830895682F42
S113190085E791E00E94AF1108959C01462F85E779
S113191091E0B90120E00E940D1008950F93DF9328
S1131920CF9300D000D00F92CDB7DEB79C01962F95
S1131930DE011196E6E2F1E085E001900D9281501E
S1131940E1F7BE016F5F7F4F992329F085E791E0AE
S113195045E00FEF04C085E791E045E003E10E9414
S1131960280D85E791E00E94FF0C0E94680C0F90FF
S11319700F900F900F900F90CF91DF910F910895DA
S113198060E00E948E0C0895089585E791E00E941E
S1131990D31108956F9364E06A95F1F76F910197FD
S11319A0C9F70895A7E0B0E0E8EDFCE00C948F12CD
S11319B08C01FC011182108213821282158214821E
S11319C017821682613118F080E1808702C0FC0121
S11319D06087F801208BCE010196642F0E94A60A2D
S11319E08F81F80181878B819C81938782878D8188
S11319F09E81958784872796E4E00C94AB12FC01C2
S1131A00A485B585109779F08C919185892B8C9359
S1131A10A285B3859C918185809589238C9388ECDC
S1131A2090E00E94CA0C0895FC01A485B585109726
S1131A3071F08C919185892B8C93A285B3858C91BF
S1131A409185892B8C9388EC90E00E94CA0C0895B0
S1131A50A7E0B0E0EEE2FDE00C9481127C011B01F2
S1131A60642F3901402F20E00E94D20C97012F5B94
S1131A703F4FF9011082D701AE5BBF4F1C92C701E3
S1131A808D5B9F4FFC011082F70177866686662482
S1131A902E010894411C511C6C015D01490129C0AF
S1131AA0062D10E0F101E00FF11FC20160810E94D8
S1131AB0A60A2F81F701E00FF11F218B89819A81FA
S1131AC0F801EE0FFF1FEE0DFF1D92A381A38332D9
S1131AD0910511F4F40109C08632910511F4F50160
S1131AE004C08932910521F4F6018081822B808320
S1131AF06394F7018085681698F22796E2E10C94C6
S1131B009D12A0E0B0E0E7E8FDE00C948612EC0141
S1131B105B01FC01EF5BFF4F9080FC01EE5BFF4F2C
S1131B208080FC01ED5BFF4F708080E009C0E82FEE
S1131B30F0E0EE0FFF1FEA0DFB1D118210828F5F94
S1131B4098858917A0F384B121E4E22EF12CEC0EE0
S1131B50FD1ED7019C91892B84B987B18E010E5B40
S1131B601F4FF8019081892B87B98AB193E4C92E5C
S1131B70D12CCC0EDD1ED6019C91892B8AB985B15E
S1131B80F7019081892B85B988B1D8019C91892B63
S1131B9088B98BB1F6019081892B8BB98AE090E0EA
S1131BA00E94CA0C94B1D7018C918095892384B981
S1131BB097B1F80180818095892387B99AB1D601BC
S1131BC08C91809589238AB995B1F701808180959C
S1131BD0892385B998B1D8018C918095892388B9D6
S1131BE09BB1F6018081809589238BB9C090B000A8
S1131BF0E090B1008091B00083608093B00082E0F7
S1131C008093B1000091B20080E090E039C020914F
S1131C10B200201B820F911D020FF3B0F91409F0DA
S1131C204DC096B0981409F049C029B1271509F0A0
S1131C3045C024C0212F30E0A901440F551FF501F0
S1131C40E40FF51F608171816115710599F44C0FE2
S1131C505D1FDA0191964D915C919297DA014C9156
S1131C602C0F3D1FD90151962C915197422311F409
S1131C70918380831F5F28851217E0F2892C9F2CA3
S1131C802E853F858217930710F2C092B000E09230
S1131C90B10020E00FC0E22FF0E0EE0FFF1FEA0DCD
S1131CA0FB1D80819181009721F48E859F8591830E
S1131CB080832F5F8885281770F305C0F3B096B032
S1131CC079B010E0D8CFCDB7DEB7EDE00C94A21216
S1131CD0EF92FF920F931F93CF93DF93FC019B012D
S1131CE000917C0010917A00E7B0F8B080917A00FE
S1131CF086FDFCCF80E00AC0A82FB0E0AA0FBB1F6E
S1131D00A20FB31F11961C921E928F5F90858917A4
S1131D1098F397B182A18095892387B998B182A15C
S1131D208095892388B987E880937A0070E029C078
S1131D30DF01A60FB11D51968C9151978064809359
S1131D407C0080917A00806480937A0080917A008C
S1131D5086FDFCCFA62FB0E0AA0FBB1FA20FB31FB6
S1131D6040917800509179008D919C911197840F46
S1131D70951F11969C938E936F5F80856817C0F2B0
S1131D807F5F81A1781710F460E0F7CF40E014C0C2
S1131D90C42FD0E0CC0FDD1FC20FD31F61A170E0B0
S1131DA0CB0195958795A881B9818A0F9B1F0E94C5
S1131DB00D12798368834F5F8085481748F3009339
S1131DC07C0010937A00F8B8E7B8CDB7DEB7E6E048
S1131DD00C94A912A0E2B0E0E0EFFEE00C948C12A7
S1131DE08C017B01D42E842F8150823018F4C801D9
S1131DF00E94140DD80150968C915097882389F431
S1131E00C801B7010E94810DC8010E94FF0CBD2DBD
S1131E10B230D9F5C801BE016F5F7F4F0E94810DBA
S1131E2010C0C801B7010E94680EC8010E94FF0CCF
S1131E30ED2DE23051F5C801BE016F5F7F4F0E9466
S1131E40680E60E0AE014F5F5F4F1BC0862F90E0CD
S1131E50880F991FF701E80FF91F840F951FD80108
S1131E601E962D913C911F97DC018D919C911197A9
S1131E70281B390B80819181820F931F918380836A
S1131E806F5FF8018085681708F3A096E7E00C946B
S1131E90A8128F929F92AF92BF92CF92DF92FF923D
S1131EA00F931F93CF93DF93EC01C62E072FF42ECD
S1131EB0423011F0FF2051F48C819D81009709F488
S1131EC0A0C08E819F81009709F49BC08F2D815003
S1131ED0823050F488819981009709F492C08A81F4
S1131EE09B81009709F48DC0CE016C2D702F4F2D6E
S1131EF00E94EA0EAC2CB02E00E010E08824992455
S1131F007AC08F2D813059F4EA81FB81E00FF11FF3
S1131F10C080D180E881F981E00FF11F0DC08C8170
S1131F209D81FF2061F4EE81FF81E00FF11FC080ED
S1131F30D180800F911FFC01408151812BC0800F03
S1131F40911FFC0180819181E881F981E00FF11FEB
S1131F5040815181CE84DF848417950710F4A60153
S1131F6004C04C0D5D1D481B590BEE81FF81E00F31
S1131F70F11F80819181EA81FB81E00FF11F2081B3
S1131F803181CE84DF848217930720F0C20ED31EE2
S1131F90C81AD90AC41AD50AD1F0F5016081718131
S1131FA080E090E09A0140E050E0621B730B840BE8
S1131FB0950B28EE33E040E050E00E94F1119601C9
S1131FC040E050E00E94571237FD0AC002C020E0F2
S1131FD030E0F3E0293E3F072CF028EE33E002C066
S1131FE020E030E0F501219331935F010894811CD6
S1131FF0911C0E5F1F4F888590E0881699060CF49B
S113200080CFDF91CF911F910F91FF90DF90CF9000
S1132010BF90AF909F908F900895A5E0B0E0E3E16A
S1132020F0E10C9481124C01C62EE72E2D830E9400
S1132030490FD40118964C901897DE2C642D70E04B
S113204080E090E028EE33E040E050E00E94F1119F
S113205069837A838B839C83EE24FF24870166241F
S11320607724882499245401552436C0F6013081FC
S1132070218142E0242E312CC20CD31CC901492FEA
S1132080582F1A012D81222329F088EE93E082191A
S113209093091C0199EC291631042CF4A3E32A16A4
S11320A0310494F002C055245394B101882777FD7C
S11320B08095982FA80197010E94F111860E971E12
S11320C0A81EB91E620C731C88EE93E0A0E0B0E079
S11320D0E80EF91E0A1F1B1F89819A81AB81BC81FE
S11320E0E816F9060A071B0709F65520F1F45524EA
S11320F008944108510824EF31E0429EC001439EF8
S1132100900D529E900D11242091B9013091BA0185
S113211028173907B4F088EE93E0489E9001499E51
S1132120300D589E300D11240EC0930140E050E054
S1132130C501B4010E9435122093B9013093BA014C
S113214002C020E030E0C9012596E2E10C949D1222
S1132150A7E6B0E0EEEAF0E10C9481128C014B01A9
S11321606A01A6962FAFA697DA018D919C911197DB
S11321700097E9F4F801808590E0880F991F0E9488
S1132180CD12D60111969C938E93009709F4E2C068
S1132190FC0180E090E003C0119211920196D801F5
S11321A018962C91189730E082179307ACF3F4013A
S11321B080819181009789F0EE24FF245E010894C8
S11321C0A11CB11CB1E46B2E712C6C0E7D1EA1E21E
S11321D04A2E512C4C0E5D1E23C0D80118968C91AA
S11321E090E0880F991F0E94CD12F401918380839F
S11321F0009709F4AFC0FC0180E090E0D80107C06B
S11322001E962D913C911F97219331930196189618
S11322102C91189730E08217930794F38D01CCCF5B
S1132220C801B501A6964FADA6970E94EA0ED80143
S113223018968C911897E82FF0E0A596FFAFEEAFB3
S1132240A5971301F501A3965FAE4EAEA397930134
S113225040E050E0A8965FAE4EAEA89737C0E114B8
S1132260F10461F0A896AEADBFADA8976D917C91D5
S11322701197808191816817790760F48081918139
S1132280A896AEADBFADA89711969C938E93E1141A
S1132290F10449F0D9016D917C911197808191816C
S11322A08617970728F480819181D9018D939C9397
S11322B04F5F5F4F2E5F3F4F3296A8968EAD9FAD16
S11322C0A8970296A8969FAF8EAFA897A596AEAD95
S11322D0BFADA5974A175B0714F20894E11CF11CE3
S11322E0BAE0EB16F10409F09BCF80E090E02CC03B
S11322F0F101419151911F01BC01660F771FD60175
S1132300ED91FC911197E60FF71F2081318124177D
S1132310350710F451834083A396EEADFFADA39728
S113232041915191A396FFAFEEAFA397D401ED91E4
S1132330FC911197E60FF71F208131814217530753
S113234010F4518340830196F801208530E0821710
S1132350930774F2C959DF4FE2E10C949D121F9365
S1132360CF93DF93EC01162F862F8150823058F4DF
S1132370AE014E5F5F4FCE01BE0121E00E94A81066
S1132380123019F00CC0662351F4BE016C5F7F4F0C
S1132390AE014A5F5F4FCE0120E00E94A810DF919A
S11323A0CF911F910895CF93DF93EC018A819B8194
S11323B0009711F00E9465138E819F81009711F0A0
S11323C00E94651388819981009711F00E9465131A
S11323D08C819D81009711F00E946513DF91CF914C
S11323E00895DB018F939F930E947612BF91AF9162
S11323F0A29F800D911DA39F900DB29F900D11245B
S11324000895991B79E004C0991F961708F0961B4C
S1132410881F7A95C9F780950895AA1BBB1B51E1C3
S113242007C0AA1FBB1FA617B70710F0A61BB70B40
S1132430881F991F5A95A9F780959095BC01CD01E5
S1132440089597FB072E16F4009407D077FD09D062
S11324500E940D1207FC05D03EF4909581959F4F84
S11324600895709561957F4F0895A1E21A2EAA1BD5
S1132470BB1BFD010DC0AA1FBB1FEE1FFF1FA21730
S1132480B307E407F50720F0A21BB30BE40BF50B2D
S1132490661F771F881F991F1A9469F760957095B6
S11324A0809590959B01AC01BD01CF010895052E47
S11324B097FB1EF400940E946E1257FD07D00E94F1
S11324C0351207FC03D04EF40C946E1250954095CF
S11324D0309521953F4F4F4F5F4F089590958095CC
S11324E0709561957F4F8F4F9F4F08950E94BE1244
S11324F0A59F900DB49F900DA49F800D911D112454
S113250008952F923F924F925F926F927F928F9293
S11325109F92AF92BF92CF92DF92EF92FF920F936E
S11325201F93CF93DF93CDB7DEB7CA1BDB0B0FB678
S1132530F894DEBF0FBECDBF09942A883988488835
S11325405F846E847D848C849B84AA84B984C884CB
S1132550DF80EE80FD800C811B81AA81B981CE0FC2
S1132560D11D0FB6F894DEBF0FBECDBFED010895A7
S1132570EE0FFF1F0590F491E02D0994A29FB00186
S1132580B39FC001A39F700D811D1124911DB29FA3
S1132590700D811D1124911D0895CF93DF93823016
S11325A0910510F482E090E0E091BF01F091C00148
S11325B020E030E0A0E0B0E0309739F14081518173
S11325C048175907B8F04817590771F48281938165
S11325D0109729F013969C938E9312972CC0909386
S11325E0C0018093BF0127C02115310531F0421786
S11325F0530718F0A901DB0101C0EF019A01BD01E5
S1132600DF010280F381E02DD7CF21153105F9F0E8
S1132610281B390B2430310580F48A819B81611594
S1132620710521F0FB019383828304C09093C00160
S11326308093BF01FE01329644C0FE01E20FF31FF6
S11326408193919322503109398328833AC0209190
S1132650BD013091BE01232B41F420912D01309115
S11326602E013093BE012093BD0120912B013091A6
S11326702C012115310541F42DB73EB740912F01AE
S113268050913001241B350BE091BD01F091BE0146
S1132690E217F307A0F42E1B3F0B2817390778F035
S11326A0AC014E5F5F4F2417350748F04E0F5F1F94
S11326B05093BE014093BD018193919302C0E0E029
S11326C0F0E0CF01DF91CF910895CF93DF9300978E
S11326D009F487C0FC01329713821282C091BF01B2
S11326E0D091C001209781F420813181280F391FB6
S11326F08091BD019091BE018217930779F5F09303
S1132700BE01E093BD016DC0DE0120E030E0AE17F4
S1132710BF0750F412964D915C9113979D0141159A
S1132720510509F1DA01F3CFB383A28340815181CA
S1132730840F951F8A179B0771F48D919C911197B3
S1132740840F951F02969183808312968D919C919C
S11327501397938382832115310529F4F093C001E3
S1132760E093BF013EC0D9011396FC93EE931297F8
S11327704D915D91A40FB51FEA17FB0779F4808191
S11327809181840F951F0296D90111969C938E9383
S11327908281938113969C938E931297E0E0F0E0EC
S11327A08A819B81009719F0FE01EC01F9CFCE01DB
S11327B0029628813981820F931F2091BD013091A7
S11327C0BE012817390769F4309729F41092C00123
S11327D01092BF0102C013821282D093BE01C09333
S11327E0BD01DF91CF91089510E0CCEAD0E004C0A0
S11327F0FE010E94BA122296CE3AD107C9F7F89484
S1052800FFCF04
S1132802881301040400D007F4010F009C01B501F0
S1132812CF01EA0107022602470269028E02B502CB
S1132822DE020A0302080E0F1011120000C1012079
S113283200200000010203040506FF6D56005072D9
S10D2842657373204200476F210004
S9030000FC
