:100000000C9457000C947F000C947F000C947F009C
:100010000C947F000C947F000C947F000C947F0064
:100020000C947F000C94EF0B0C947F000C947F00D9
:100030000C947F000C943A080C947F000C947F0081
:100040000C947F000C947F000C947F000C947F0034
:100050000C947F000C947F000C947F000C947F0024
:100060000C947F000C947F00000000000000001F33
:100070001F1F1F1F1F1F4C31362063646567726589
:100080006734003E6733323E3E63333200736F6C39
:10009000766572004D617A650033F720526F626FAA
:1000A000740020506F6C6F6C7500B80CB90C112483
:1000B0001FBECFEFD8E0DEBFCDBF11E0A0E0B1E0C2
:1000C000EAEEF7E202C005900D92AA34B107D9F723
:1000D00021E0AAE4B1E001C01D92A13CB207E1F722
:1000E00010E0CCEAD0E004C02297FE010E94AE12DC
:1000F000CA3AD107C9F70E9444020C94E8130C9441
:10010000000060E088E690E00E946F0961E089E607
:1001100090E00E946F0962E08AE690E00E946F0919
:1001200063E08BE690E00E946F0964E08CE690E06B
:100130000E946F0965E08DE690E00E946F0966E01D
:100140008EE690E00E946F090C94EF09CF92DF9247
:10015000EF92FF920F931F93CF93DF93CDB7DEB74C
:100160002A970FB6F894DEBF0FBECDBF8C01D12CFD
:100170008AE0C82E95E6E92EF12CE1E3F1E0DE01FC
:1001800011968C2D01900D928A95E1F7F8018191DD
:1001900091918F01B7010E94011281E090E08C0FD4
:1001A0009D1F680F791FFB0180810E947209D39403
:1001B000F5E0DF12E2CF2A960FB6F894DEBF0FBE4D
:1001C000CDBFDF91CF911F910F91FF90EF90DF9006
:1001D000CF9008952F923F924F925F926F927F92AD
:1001E0008F929F92AF92BF92CF92DF92EF92FF9247
:1001F0000F931F93CF93DF93CDB7DEB72A970FB638
:10020000F894DEBF0FBECDBF8C01C12CD12C76017E
:10021000212C312C50E1452E57E2552E612C712CAA
:1002200088249924881A990A61E0CE0101960E94D7
:10023000790C805D97405C01AA2797FDA095BA2FA5
:10024000C80ED91EEA1EFB1EC701B601A30192010A
:100250000E944B12B50162197309CB01880F991FD7
:10026000860F971F97FD0196FC01F595E795E20F24
:10027000F31FC50164E170E00E941512E60FF71F3D
:100280000E171F070CF4F801CF01E815F9050CF45F
:10029000C401B80197FF03C0800F911F03C0681B02
:1002A000790BC8010E94A10B8B819C81843691053A
:1002B00050F48D819E818436910528F48F81988534
:1002C0008436910560F089819A81893C910538F4E2
:1002D00089859A85893C910510F41501A5CF2A9648
:1002E0000FB6F894DEBF0FBECDBFDF91CF911F9147
:1002F0000F91FF90EF90DF90CF90BF90AF909F90C5
:100300008F907F906F905F904F903F902F900895C7
:100310000F931F93CF93DF93CDB7DEB72A970FB616
:10032000F894DEBF0FBECDBF80ED97E00E94B40C05
:100330000E94810082EA90E00E94170A61E080E05A
:100340000E94970A89E990E00E94170A83E890E0EA
:100350000E94AC0888EE93E00E94370C0E94EF09DF
:1003600084E990E00E94170A61E080E00E94970A09
:100370008DE890E00E94170A88EE93E00E94370C07
:1003800080E10E94E40B81111BC00E946A058C0170
:100390000E94EF09B801882777FD8095982F0E9469
:1003A000740A8BE391E00E94060A61E080E00E94FB
:1003B000970A8EE391E00E94060A84E690E0DECF81
:1003C00080E10E94D00B88EE93E00E94370C0CEE87
:1003D0001FEF0832110528F068ED7FEF88E290E00A
:1003E00004C068E270E088ED9FEF0E94A10B81E0FD
:1003F0000E94730C84E190E00E94370C0F5F1F4F46
:100400000C33110531F760E070E080E090E00E946D
:10041000A10B80E10E94E40B81111AC061E0CE01C2
:1004200001960E94790C8C010E94EF09B80180E0CE
:1004300090E00E94740A61E080E00E94970ACE0179
:1004400001960E94A60084E690E00E94370CE1CF5E
:1004500080E10E94D00B0E94EF0986E491E00E94A7
:10046000060A86E790E00E94AC080E949B08811172
:10047000FCCF2A960FB6F894DEBF0FBECDBFDF913A
:10048000CF911F910F9108950E94880180E590E01F
:100490000E944B02FFCFCF93DF93CDB7DEB72A97F1
:1004A0000FB6F894DEBF0FBECDBF8C01B12CA12CCE
:1004B000912C82E3C82ED12CC8010E94EA0061E091
:1004C000CE0101960E94790C89819A8181399140EF
:1004D00008F47AC0B801C8010E94A10B892CE12C54
:1004E000F12C89819A818139914070F161E0CE01CE
:1004F00001960E94790CC6016F9364E06A95F1F74A
:100500006F910197C9F789859A85813941E09407F0
:1005100020F0811002C08824839429813A812139F6
:100520003140F8F281399140E0F24FEFE41AF40AD9
:1005300089E8E81683E1F806A0F260E070E080E068
:1005400090E00E94A10BFFCF89859A858139914067
:1005500068F6982C84E190E00E94370C61E0CE01AF
:1005600001960E94790C8B819C818139914008F021
:10057000C7C08D819E818139914008F0C1C08F81B3
:1005800098858139914008F0BBC0811009C0B11035
:1005900003C0B8018CE49BC041E0B4128DCF0EC003
:1005A00081E0881289CFB11006C0B8018CE40E94A6
:1005B000A003912C81CF21E0B2127ECFB8018CE450
:1005C0000E94A003B12CF5CF89859A85813991408D
:1005D00008F465C0B801C8010E94A10B8A2CE12C67
:1005E000F12C89819A8181399140B8F061E0CE0186
:1005F00001960E94790CC6016F9364E06A95F1F749
:100600006F910197C9F789819A818139914048F3A7
:10061000811060C0882483945DC089859A85813962
:10062000914020F7A82C84E190E00E94370C61E013
:10063000CE0101960E94790C8B819C818139914079
:1006400008F062C08D819E818139914008F05CC0C4
:100650008F8198858139914008F056C081100BC078
:10066000B11003C0B80182E532C041E0B41224CF1A
:10067000B80183E50FC081E088121ECFB11005C01C
:10068000B8018CE40E94A00308C021E0B21214CF8C
:10069000B8018CE40E94A003B12CA12C0DCF8B815A
:1006A0009C818039914008F007CF8D819E818039EF
:1006B000914008F001CF8F8198858039914008F0F2
:1006C000FBCEB801C8010E94A10BB80185E50E94CC
:1006D000A003F2CE89859A858139914008F481CFB3
:1006E0004FEFE41AF40A89E8E81683E1F80608F403
:1006F00078CF60E070E080E090E00E94A10BFFCF37
:10070000882009F45BCF04C0882009F4B1CF06C06B
:1007100041E0841609F452CF982C05C081E0881678
:1007200009F4B6CFA82CBB24B394C6CE8AE090E0DF
:100730006F9364E06A95F1F76F910197C9F7089597
:100740000F931F93CF93DF93CDB7DEB72A970FB6E2
:10075000F894DEBF0FBECDBF8B018C34F1F560E5A0
:1007600070E080EB9FEF0E94A10B89819A81843613
:10077000910540F461E0CE0101960E94790C0E943F
:100780009603F3CF8B819C818436910540F461E020
:10079000CE0101960E94790C0E949603F3CF8D81C1
:1007A0009E818436910540F461E0CE0101960E945D
:1007B000790C0E949603F3CF8F819885843691053A
:1007C00040F461E0CE0101960E94790C0E949603EC
:1007D000F3CFC8010E94EA0082C08235D1F560EBF8
:1007E0007FEF80E590E00E94A10B89859A85843691
:1007F000910540F461E0CE0101960E94790C0E94BF
:100800009603F3CF8F8198858436910540F461E09B
:10081000CE0101960E94790C0E949603F3CF8D8140
:100820009E818436910540F461E0CE0101960E94DC
:10083000790C0E949603F3CF8B819C8184369105BD
:1008400040F661E0CE0101960E94790C0E94960369
:10085000F3CF833539F460E570E080E590E00E94E5
:10086000A10B3DC08535D9F560EB7FEF80E590E0C9
:100870000E94A10B89859A858436910540F461E038
:10088000CE0101960E94790C0E949603F3CF8F81CE
:1008900098858436910540F461E0CE0101960E946E
:1008A000790C0E949603F3CF8D819E818436910549
:1008B00040F461E0CE0101960E94790C0E949603FB
:1008C000F3CF8F8198858436910508F082CF61E05F
:1008D000CE0101960E94790C0E949603F2CF2A96CF
:1008E0000FB6F894DEBF0FBECDBFDF91CF911F9141
:1008F0000F910895882321F480917C008F7D03C09F
:1009000080917C00806280937C00089580917C00BF
:1009100090E025E0959587952A95E1F781700895F7
:1009200080917A0090E036E0959587953A95E1F7C9
:10093000817008950E948604882321F02091790017
:1009400030E004C02091780030917900C901089509
:100950008032B0F497E890937A0090917C00292F30
:100960002064662311F0906C02C0922F9F77907ED6
:10097000982B90937C0080917A00806480937A0019
:100980000895A0E0B0E0E7ECF4E00C947F126B0176
:1009900060E00E94A8040E9490048823E1F7E60129
:1009A000EE24FF24870180917A00806480937A008E
:1009B0000E9490048823E1F70E949A04A0E0B0E02E
:1009C000E80EF91E0A1F1B1F219769F7C6019695AD
:1009D000879520E4C216D10440F48E0D9F1D6C2D26
:1009E00070E00E940112CB010DC0BC0180E090E0DC
:1009F0006E0D7F1D801F911F960140E050E00E9408
:100A00002912C901CDB7DEB7E8E00C949B12A3E030
:100A1000B0E0EDE0F5E00C948412BC0180E090E0E1
:100A2000209100013091010140E050E00E94E51169
:100A3000182F69837A839B830E94860469817A8157
:100A40009B81882371F09B01412F592FCA01B90165
:100A500061587F4F8F4F9F4F2FEF30E040E050E0C5
:100A60000DC09B01412F592FCA01B90161507E4F22
:100A70008F4F9F4F2FEF33E040E050E00E9429124C
:100A8000C9012396E3E00C94A0120E94C1040E94C5
:100A9000070508951F93CF93DF930E948604182FB4
:100AA00080E00E947A0486E06AE070E00E944505DA
:100AB000EC01812F0E947A049E01220F331F2C0F1C
:100AC0003D1F2F5F3F4F36952795C901DF91CF918D
:100AD0001F9108950E944A05089590914F01E09159
:100AE0004B01F0914C01992311F0849101C0808158
:100AF000282F21542A3110F4805E0895803271F439
:100B000020914B0130914C01A9014F5F5F4F5093F1
:100B10004C0140934B012115310509F70895EF92DF
:100B2000FF92CF93DF930E946D05C0E0D0E01BC021
:100B30009E01220F331F93E0CC0FDD1F9A95E1F742
:100B4000C20FD31F992787FD9095C80FD91FE09733
:100B500080914B0190914C01019690934C018093B0
:100B60004B010E946D05982F90539A3008F3CE01E7
:100B7000DF91CF91FF90EF90089510926F0083E284
:100B80008093800081E1809381001092820080E157
:100B900097E2909389008093880010928B001092C6
:100BA0008A00229A7894089580914A01882329F432
:100BB00081E080934A010E94BD050895A0E0B0E065
:100BC000E4EEF5E00C947B128C015B01E42E0E94B4
:100BD000D4051092020117FF04C01F77AAE0FA2E75
:100BE00002C0FF24F394C0908100DD2428EFC222CC
:100BF000DD2488EC3F2D389FC00111248017910718
:100C0000D8F4E80167E20131160710F0C0E1D7E23D
:100C1000BE017695679580E090E0605879468746FA
:100C20009F4F9E0140E050E00E942912890181E01F
:100C300090E0C82AD92A2CC098E2F99E902D112460
:100C400080E0892EE4014E01982EE4018016910681
:100C500008F4E801BE01769567959E0140E050E0FA
:100C60008F2D8A3039F480E090E0605E73448144D7
:100C70009F4F06C080E090E060537D4E8C4E9F4FAA
:100C80000E942912890152E0852E912CC828D9286A
:100C90002F2D2A3039F4CE0105966AE070E00E94CB
:100CA0000112EB0133E0C83ED30779F0BE0180E0CA
:100CB00090E0950140E050E00E94E51128EE33E01D
:100CC00040E050E00E944B1201C0950110926F006D
:100CD000C0928100109389000093880040918800A1
:100CE000509189006E2D603108F06FE080E190E056
:100CF000861B9109BA0102C0769567958A95E2F73D
:100D000070938B0060938A003093520120935101BD
:100D100086B38FEF86BB81E080936F00CDB7DEB7DF
:100D2000ECE00C9497129B018F3F11F0442329F4BF
:100D300088EE93E0B90140E049C0813130F0582F8E
:100D40005051503618F05FE501C050E0852F6CE03F
:100D50000E94F511A82FB0E0E4EFFFEFAE9FB001C5
:100D6000AF9F700DBE9F700D1124650F711D6C300B
:100D7000710540F4FB01EE0FFF1FE45FFE4F608141
:100D8000718102C060E070E0873081F0082E02C0FF
:100D9000660F771F0A94E2F7823028F0CB010596A0
:100DA0006AE070E00CC0605070480BC0CB01B6E048
:100DB000880F991FBA95E1F7029665E070E00E94EE
:100DC0000112403108F04FE0CB01B9010E94DE056D
:100DD0000895A0E0B0E0EFEEF6E00C947A12B09047
:100DE000030180914D01882361F060914E016623DB
:100DF00041F08FEF70E040E00E94930610924E01A8
:100E000034C1C0ECDDE5AA24A39414E0712E00EDFA
:100E100017E0B4E0EB2EF12CA4EFCA2EA1E0DA2EFD
:100E2000FFE08F2E912C0E946D0520914B01309197
:100E30004C012F5F3F4F30934C0120934B0186367E
:100E4000F1F18736CCF4823609F4AFC083367CF4F6
:100E50008E3349F18F333CF4813209F487C08C33EF
:100E600009F09BC022C0813609F097C09BC0843630
:100E700001F185360CF51BC08F3609F447C0803769
:100E800044F48C3611F18D3661F1873609F085C056
:100E900019C0843709F444C0863709F460C082372A
:100EA00009F07BC039C0B394BECFBA94BCCFEE2456
:100EB00035C0EE2482E07BC0EE2484E078C0EE24CE
:100EC00085E075C0EE2487E072C00E948F05BC01EA
:100ED0009093050180930401809106019091070190
:100EE00037C00E946D058C3619F410924D0104C074
:100EF000A0924D0110924E0180914B0190914C01B6
:100F0000019690934C0180934B018DCF0E948F05E9
:100F1000B82E8093030187CFEE24E39480E047C08E
:100F20000E948F05BC01CE010E940112CB01880FE7
:100F3000991F53E0660F771F5A95E1F7860F971FA9
:100F4000909307018093060160910401709105015F
:100F50000E940112709309016093080164CF0E94FE
:100F60008F0590930B0180930A015DCF709203016E
:100F70001093070100930601F0920501E09204012D
:100F8000D0920901C092080190920B0180920A014F
:100F900010924D0144E0B42E46CF10924C011092B5
:100FA0004B0163C0EE2489E002C0EE248BE09CE09C
:100FB000B99EB02C1124B80E0E946D058B3211F031
:100FC0008332B9F480914B0190914C01019690933A
:100FD0004C0180934B01B394EFCF80914B019091E2
:100FE0004C01019690934C0180934B01BA940E945E
:100FF0006D058D3291F3C0910801D09109018153A3
:10100000883058F4C0910601D09107010E948F05E5
:10101000BC01CE010E940112EB018E010BC0809138
:101020004B0190914C01019690934C0180934B01A0
:10103000C00FD11F169507950E946D058E3279F36A
:1010400080914D01882339F0CE0196958795809344
:101050004E01C81BD109EE2011F0BB24BA948B2D90
:10106000BE0140910A010E949306CDB7DEB7EDE0C4
:101070000C9496121F920F920FB60F9211242F9379
:101080003F934F935F936F937F938F939F93AF9310
:10109000BF93EF93FF9380915101909152019C0176
:1010A000215030403093520120935101009711F5A7
:1010B00010926F00789480918100887F8160809386
:1010C000810080E197E290938900809388001092DC
:1010D0008B0010928A0081E08093020180914B0185
:1010E00090914C01009731F080915001882311F4C8
:1010F0000E94E906FF91EF91BF91AF919F918F916F
:101100007F916F915F914F913F912F910F900FBE03
:101110000F901F90189580910201882351F081E073
:1011200020914B0130914C012115310519F480E0DB
:10113000089581E008950E948B08089510926F0031
:1011400090934C0180934B0181E080934F0110926A
:101150004E010E94E90608950E949E08089581E0CC
:1011600090E06F9364E06A95F1F76F910197C9F78A
:1011700008950F931F93CF93DF931AB157985A98FE
:10118000289AC0E0D0E00E94AF085C9A0E94AF08A5
:1011900009B15C980E94AF085C9A0E94AF085C9805
:1011A00007FF11C024969E0140E050E08091570156
:1011B00090915801A0915901B0915A01281739070F
:1011C0004A075B0700F31AB9DF91CF911F910F9186
:1011D000089565B190E0AC0141705070440F551F07
:1011E0009C012670307053E0220F331F5A95E1F7AF
:1011F000242B6D7C262B25B92BB18870907034E0A0
:10120000880F991F3A95E1F72F77282B2BB95C9A15
:101210000E94AF085C980E94AF080895A2E0B0E079
:10122000E4E1F9E00C948012182F4A8369830E944C
:10123000B9090E94B908F4B005B1DAB0EBB028984A
:1012400069814A81662311F05A9A01C05A9884B183
:10125000826384B9579A413029F0812F82958F702B
:101260000E94E908812F8F700E94E908DAB8EBB874
:10127000F4B805B92296E7E00C949C1260E042E0D5
:101280000E940E09089561E042E00E940E0908954F
:10129000EF92FF921F93DF93CF930F92CDB7DEB7FC
:1012A000660F660F660F482F592F7A0110E0812FC5
:1012B000860F806469830E943E09F70184910E9431
:1012C00043091F5F0894E11CF11C6981183079F70C
:1012D0000F90CF91DF911F91FF90EF9008950E94A2
:1012E000480908950E944309089560E041E00E9482
:1012F0000E09089580E197E2A0E0B0E080935701E5
:1013000090935801A0935901B0935A01529A209A90
:10131000549A8EE190E00E94370C83E00E94750998
:1013200086E090E00E94370C83E00E94750982E01D
:1013300090E00E94370C83E00E94750982E090E003
:101340000E94370C82E00E94750982E090E00E94C2
:10135000370C88E20E943E0988E00E943E0981E045
:101360000E943E0986E00E943E098CE00E943E09F0
:10137000089580915B01882329F481E080935B01CB
:101380000E947A09089581E00E943E0980915301EC
:1013900090915401009711F1A0E0B0E208C0E091F3
:1013A0005301F0915401E20FF31FB083AF5F2A2F76
:1013B00030E08091240190E001976091250170E078
:1013C000869FA001879F500D969F500D11242417D2
:1013D00035072CF3109256011092550108950E9482
:1013E000C3090895EF92FF92CF93DF93E82EE701B0
:1013F0007E01F92EE70102C00E94430989918823EA
:10140000D9F7DF91CF91FF90EF9008950E94F209F4
:101410000895CF93DF93EC0103C00E944309219606
:10142000FE0184918823C9F7DF91CF9108950E942E
:10143000090A0895AAE0B0E0E0E2FAE00C947D1217
:101440009B01AC011AE0EAE0CE2ED12CE12CF12C6C
:101450005E010894A11CB11C022FCA01B901A701A9
:1014600096010E9429121150F501E10FF11D005D56
:10147000922F990F892F880F880F890F081B0083DF
:10148000211531054105510539F708C0F601E10F75
:10149000F11D80810E9443091F5F04C06E01089402
:1014A000C11CD11C1A3090F32A96EAE00C949912D0
:1014B000EF92FF920F931F937B018C0197FF0BC05C
:1014C00010950095F094E094E11CF11C011D111D94
:1014D0008DE20E944309C801B7010E941A0A1F91B8
:1014E0000F91FF90EF9008950E94580A0895A5E08B
:1014F000B0E0EDE7FAE00C948412182F80E88983BD
:1015000080EC8A8384E98B8384ED8C83FE01E60F73
:10151000F11D8181810F6D830E943E091093560158
:101520006D81609355012596E3E00C94A0120E9412
:10153000770A0895FC0111821082138212821582AB
:1015400014821682683068F489E290E09183808387
:101550008BE290E0938382838AE290E09583848398
:1015600011C06E30C0F483E290E09183808385E205
:1015700090E09383828384E290E09583848370E09B
:101580006850704081E090E002C0880F991F6A9512
:10159000E2F7868308956531B8F486E290E091839E
:1015A000808388E290E09383828387E290E0958352
:1015B000848370E06E50704081E090E002C0880F3C
:1015C000991F6A95E2F786830895FC01A481B5818D
:1015D0008681662321F09C91982B9C9308959C9181
:1015E000809589238C930895FC016F3F31F4A2818B
:1015F000B3818C91968189270CC0A281B3818681A9
:10160000662321F09C91982B9C9308959C91809542
:1016100089238C930895A7E0B0E0E1E1FBE00C940E
:101620008212282FF62E8E010F5F1F4FC801622FE6
:101630000E949A0AC8016F2D0E94F40AC80161E055
:101640000E94E50A2796E5E00C949E12E0EBF0E09C
:1016500083EF8083808184BDE1EBF0E082E08083D2
:10166000808185BDE4EBF0E010828081E3EBF0E067
:101670008083808188BD88B587BD86E060E00E9458
:101680000B0B85E060E00E940B0B8BE060E00E949A
:101690000B0B83E060E00E940B0B089580915C01CE
:1016A000882329F481E080935C010E94260B089531
:1016B000CF93DF93EC010E944E0BD7FF05C0D0956E
:1016C000C195DF4F81E001C080E0CF3FD10519F027
:1016D00014F0CFEFD0E0882319F018BCC7BD02C0CA
:1016E000C8BD17BCDF91CF910895CF93DF93EC0174
:1016F0000E944E0BD7FF05C0D095C195DF4F81E00A
:1017000001C080E0CF3FD10519F014F0CFEFD0E059
:10171000882329F01092B400C093B30004C0C09392
:10172000B4001092B300DF91CF910895CF93DF936F
:10173000EB010E94580BCE010E94750BDF91CF91F7
:1017400008950E94960B089584B18D7C84B985B16B
:10175000826385B985E090E06F9364E06A95F1F764
:101760006F910197C9F7089580915D01882329F44D
:1017700081E080935D010E94A40B08951F93182FB0
:101780000E94B40B83B18123E9F38AE090E00E94C8
:10179000370C83B18123B1F383B181231F91089565
:1017A0000E94BE0B0895A1E0B0E0E9EDFBE00C94CF
:1017B000851289830E94B40B93B190958981892306
:1017C0002196E2E00C94A1120E94D30B08956F932E
:1017D00064E06A95F1F76F910197C9F708952F9228
:1017E0008F939F932FB680916B0190916C0101961E
:1017F00080936B0190936C0190E080916D01891F43
:1018000080936D01909173019C5F9093730180911F
:10181000720180519742C0F09093730180937201DE
:1018200080916E0190916F01019680936E0190936B
:101830006F0190E080917001891F80937001809109
:101840007101891F809371012FBE9F918F912F90FD
:101850001895CF93DF93EC0105C088EE93E00E94CA
:10186000E70B21972097C9F7DF91CF9108950E9448
:10187000290C0895E0E7F0E080818E7F8083A0EB63
:10188000B0E08C9183608C93A1EBB0E08C91807F71
:101890008C938C9182608C93B89A808181608083D4
:1018A0007894089580917401882329F481E08093CD
:1018B00074010E943A0C08950E94520CE0E7F0E097
:1018C00080818E7F808310926E0110926F01109242
:1018D0007001109271011092730110927201808157
:1018E000816080830895682F85E791E00E94A311AD
:1018F00008959C01462F85E791E0B90120E00E9400
:10190000011008950F93DF93CF9300D000D00F9272
:10191000CDB7DEB79C01962FDE011196E6E2F1E02D
:1019200085E001900D928150E1F7BE016F5F7F4F1E
:10193000992329F085E791E045E00FEF04C085E7A2
:1019400091E045E003E10E941C0D85E791E00E94D3
:10195000F30C0E945C0C0F900F900F900F900F9063
:10196000CF91DF910F91089560E00E94820C08955D
:10197000089585E791E00E94C71108956F9364E090
:101980006A95F1F76F910197C9F70895A7E0B0E064
:10199000ECECFCE00C9483128C01FC0111821082AF
:1019A000138212821582148217821682613118F016
:1019B00080E1808702C0FC016087F801208BCE01A6
:1019C0000196642F0E949A0A8F81F80181878B818A
:1019D0009C81938782878D819E81958784872796B6
:1019E000E4E00C949F12FC01A485B585109779F072
:1019F0008C919185892B8C93A285B3859C9181854F
:101A0000809589238C9388EC90E00E94BE0C089509
:101A1000FC01A485B585109771F08C919185892B77
:101A20008C93A285B3858C919185892B8C9388ECBE
:101A300090E00E94BE0C0895A7E0B0E0E2E2FDE075
:101A40000C9475127C011B01642F3901402F20E09A
:101A50000E94C60C97012F5B3F4FF9011082D701FE
:101A6000AE5BBF4F1C92C7018D5B9F4FFC01108284
:101A7000F7017786668666242E010894411C511C66
:101A80006C015D01490129C0062D10E0F101E00F54
:101A9000F11FC20160810E949A0A2F81F701E00FB5
:101AA000F11F218B89819A81F801EE0FFF1FEE0D46
:101AB000FF1D92A381A38332910511F4F40109C0A3
:101AC0008632910511F4F50104C08932910521F4A3
:101AD000F6018081822B80836394F70180856816EC
:101AE00098F22796E2E10C949112A0E0B0E0EBE7C7
:101AF000FDE00C947A12EC015B01FC01EF5BFF4FFF
:101B00009080FC01EE5BFF4F8080FC01ED5BFF4F9E
:101B1000708080E009C0E82FF0E0EE0FFF1FEA0DB3
:101B2000FB1D118210828F5F98858917A0F384B105
:101B300021E4E22EF12CEC0EFD1ED7019C91892BA5
:101B400084B987B18E010E5B1F4FF8019081892BFC
:101B500087B98AB193E4C92ED12CCC0EDD1ED601F3
:101B60009C91892B8AB985B1F7019081892B85B920
:101B700088B1D8019C91892B88B98BB1F6019081ED
:101B8000892B8BB98AE090E00E94BE0C94B1D701FA
:101B90008C918095892384B997B1F80180818095D3
:101BA000892387B99AB1D6018C91809589238AB906
:101BB00095B1F70180818095892385B998B1D801C5
:101BC0008C918095892388B99BB1F601808180959D
:101BD00089238BB9C090B000E090B1008091B00033
:101BE00083608093B00082E08093B1000091B200E6
:101BF00080E090E039C02091B200201B820F911D3F
:101C0000020FF3B0F91409F04DC096B0981409F022
:101C100049C029B1271509F045C024C0212F30E063
:101C2000A901440F551FF501E40FF51F6081718173
:101C30006115710599F44C0F5D1FDA0191964D9174
:101C40005C919297DA014C912C0F3D1FD90151966E
:101C50002C915197422311F4918380831F5F288533
:101C60001217E0F2892C9F2C2E853F85821793074F
:101C700010F2C092B000E092B10020E00FC0E22F5D
:101C8000F0E0EE0FFF1FEA0DFB1D808191810097B0
:101C900021F48E859F85918380832F5F8885281707
:101CA00070F305C0F3B096B079B010E0D8CFCDB7DF
:101CB000DEB7EDE00C949612EF92FF920F931F9314
:101CC000CF93DF93FC019B0100917C0010917A007F
:101CD000E7B0F8B080917A0086FDFCCF80E00AC0C2
:101CE000A82FB0E0AA0FBB1FA20FB31F11961C9222
:101CF0001E928F5F9085891798F397B182A1809586
:101D0000892387B998B182A18095892388B987E80A
:101D100080937A0070E029C0DF01A60FB11D5196B3
:101D20008C915197806480937C0080917A008064CC
:101D300080937A0080917A0086FDFCCFA62FB0E0D8
:101D4000AA0FBB1FA20FB31F4091780050917900DA
:101D50008D919C911197840F951F11969C938E9352
:101D60006F5F80856817C0F27F5F81A1781710F4DC
:101D700060E0F7CF40E014C0C42FD0E0CC0FDD1FEF
:101D8000C20FD31F61A170E0CB0195958795A88103
:101D9000B9818A0F9B1F0E940112798368834F5F6C
:101DA0008085481748F300937C0010937A00F8B8B8
:101DB000E7B8CDB7DEB7E6E00C949D12A0E2B0E044
:101DC000E4EEFEE00C9480128C017B01D42E842F73
:101DD0008150823018F4C8010E94080DD801509635
:101DE0008C915097882389F4C801B7010E94750D22
:101DF000C8010E94F30CBD2DB230D9F5C801BE0157
:101E00006F5F7F4F0E94750D10C0C801B7010E941F
:101E10005C0EC8010E94F30CED2DE23051F5C801B3
:101E2000BE016F5F7F4F0E945C0E60E0AE014F5FAE
:101E30005F4F1BC0862F90E0880F991FF701E80FB6
:101E4000F91F840F951FD8011E962D913C911F9765
:101E5000DC018D919C911197281B390B8081918118
:101E6000820F931F918380836F5FF80180856817CD
:101E700008F3A096E7E00C949C128F929F92AF9289
:101E8000BF92CF92DF92FF920F931F93CF93DF9376
:101E9000EC01C62E072FF42E423011F0FF2051F432
:101EA0008C819D81009709F4A0C08E819F8100974D
:101EB00009F49BC08F2D8150823050F48881998124
:101EC000009709F492C08A819B81009709F48DC024
:101ED000CE016C2D702F4F2D0E94DE0EAC2CB02E3B
:101EE00000E010E0882499247AC08F2D813059F4C5
:101EF000EA81FB81E00FF11FC080D180E881F98188
:101F0000E00FF11F0DC08C819D81FF2061F4EE81F7
:101F1000FF81E00FF11FC080D180800F911FFC0175
:101F2000408151812BC0800F911FFC0180819181E4
:101F3000E881F981E00FF11F40815181CE84DF8477
:101F40008417950710F4A60104C04C0D5D1D481BB5
:101F5000590BEE81FF81E00FF11F80819181EA81B1
:101F6000FB81E00FF11F20813181CE84DF84821755
:101F7000930720F0C20ED31EC81AD90AC41AD50A74
:101F8000D1F0F5016081718180E090E09A0140E03C
:101F900050E0621B730B840B950B28EE33E040E09E
:101FA00050E00E94E511960140E050E00E944B1283
:101FB00037FD0AC002C020E030E0F3E0293E3F07D1
:101FC0002CF028EE33E002C020E030E0F501219350
:101FD00031935F010894811C911C0E5F1F4F88850F
:101FE00090E0881699060CF480CFDF91CF911F9175
:101FF0000F91FF90DF90CF90BF90AF909F908F9008
:102000000895A5E0B0E0E7E0F0E10C9475124C0112
:10201000C62EE72E2D830E943D0FD40118964C90BA
:102020001897DE2C642D70E080E090E028EE33E01D
:1020300040E050E00E94E51169837A838B839C83A2
:10204000EE24FF24870166247724882499245401F0
:10205000552436C0F6013081218142E0242E312CF6
:10206000C20CD31CC901492F582F1A012D812223DC
:1020700029F088EE93E0821993091C0199EC291646
:1020800031042CF4A3E32A16310494F002C0552441
:102090005394B101882777FD8095982FA801970167
:1020A0000E94E511860E971EA81EB91E620C731CB5
:1020B00088EE93E0A0E0B0E0E80EF91E0A1F1B1FB7
:1020C00089819A81AB81BC81E816F9060A071B0752
:1020D00009F65520F1F4552408944108510824EFDD
:1020E00031E0429EC001439E900D529E900D1124FE
:1020F0002091B9013091BA0128173907B4F088EE60
:1021000093E0489E9001499E300D589E300D112459
:102110000EC0930140E050E0C501B4010E942912B5
:102120002093B9013093BA0102C020E030E0C90128
:102130002596E2E10C949112A7E6B0E0E2EAF0E124
:102140000C9475128C014B016A01A6962FAFA697CD
:10215000DA018D919C9111970097E9F4F80180853F
:1021600090E0880F991F0E94C112D60111969C938E
:102170008E93009709F4E2C0FC0180E090E003C078
:10218000119211920196D80118962C91189730E06F
:1021900082179307ACF3F40180819181009789F055
:1021A000EE24FF245E010894A11CB11CB1E46B2E47
:1021B000712C6C0E7D1EA1E24A2E512C4C0E5D1E20
:1021C00023C0D80118968C9190E0880F991F0E9427
:1021D000C112F40191838083009709F4AFC0FC0120
:1021E00080E090E0D80107C01E962D913C911F978A
:1021F00021933193019618962C91189730E082170D
:10220000930794F38D01CCCFC801B501A6964FADCD
:10221000A6970E94DE0ED80118968C911897E82F89
:10222000F0E0A596FFAFEEAFA5971301F501A396D9
:102230005FAE4EAEA397930140E050E0A8965FAE2C
:102240004EAEA89737C0E114F10461F0A896AEAD88
:10225000BFADA8976D917C9111978081918168178E
:10226000790760F480819181A896AEADBFADA89743
:1022700011969C938E93E114F10449F0D9016D916C
:102280007C911197808191818617970728F480812E
:102290009181D9018D939C934F5F5F4F2E5F3F4F8C
:1022A0003296A8968EAD9FADA8970296A8969FAF3E
:1022B0008EAFA897A596AEADBFADA5974A175B07A1
:1022C00014F20894E11CF11CBAE0EB16F10409F0D9
:1022D0009BCF80E090E02CC0F101419151911F0112
:1022E000BC01660F771FD601ED91FC911197E60FA7
:1022F000F71F208131812417350710F45183408363
:10230000A396EEADFFADA39741915191A396FFAF78
:10231000EEAFA397D401ED91FC911197E60FF71F53
:10232000208131814217530710F451834083019675
:10233000F801208530E08217930774F2C959DF4F06
:10234000E2E10C9491121F93CF93DF93EC01162FCF
:10235000862F8150823058F4AE014E5F5F4FCE0120
:10236000BE0121E00E949C10123019F00CC06623BF
:1023700051F4BE016C5F7F4FAE014A5F5F4FCE01EB
:1023800020E00E949C10DF91CF911F910895CF9380
:10239000DF93EC018A819B81009711F00E94591311
:1023A0008E819F81009711F00E9459138881998135
:1023B000009711F00E9459138C819D81009711F0B4
:1023C0000E945913DF91CF910895DB018F939F9362
:1023D0000E946A12BF91AF91A29F800D911DA39F91
:1023E000900DB29F900D11240895991B79E004C0BF
:1023F000991F961708F0961B881F7A95C9F7809544
:102400000895AA1BBB1B51E107C0AA1FBB1FA6173B
:10241000B70710F0A61BB70B881F991F5A95A9F78D
:1024200080959095BC01CD01089597FB072E16F479
:10243000009407D077FD09D00E94011207FC05D057
:102440003EF4909581959F4F0895709561957F4FCB
:102450000895A1E21A2EAA1BBB1BFD010DC0AA1FE5
:10246000BB1FEE1FFF1FA217B307E407F50720F0FD
:10247000A21BB30BE40BF50B661F771F881F991F78
:102480001A9469F760957095809590959B01AC01C1
:10249000BD01CF010895052E97FB1EF400940E9404
:1024A000621257FD07D00E94291207FC03D04EF498
:1024B0000C94621250954095309521953F4F4F4FA7
:1024C0005F4F089590958095709561957F4F8F4FE0
:1024D0009F4F08950E94B212A59F900DB49F900D3A
:1024E000A49F800D911D112408952F923F924F9229
:1024F0005F926F927F928F929F92AF92BF92CF9294
:10250000DF92EF92FF920F931F93CF93DF93CDB79C
:10251000DEB7CA1BDB0B0FB6F894DEBF0FBECDBF14
:1025200009942A88398848885F846E847D848C84E5
:102530009B84AA84B984C884DF80EE80FD800C81EE
:102540001B81AA81B981CE0FD11D0FB6F894DEBFD1
:102550000FBECDBFED010895EE0FFF1F0590F49162
:10256000E02D0994A29FB001B39FC001A39F700DFD
:10257000811D1124911DB29F700D811D1124911D8B
:102580000895CF93DF938230910510F482E090E0BC
:10259000E091BF01F091C00120E030E0A0E0B0E0A8
:1025A000309739F14081518148175907B8F04817E1
:1025B000590771F482819381109729F013969C93A7
:1025C0008E9312972CC09093C0018093BF0127C0B7
:1025D0002115310531F04217530718F0A901DB012D
:1025E00001C0EF019A01BD01DF010280F381E02DFE
:1025F000D7CF21153105F9F0281B390B24303105CF
:1026000080F48A819B816115710521F0FB01938320
:10261000828304C09093C0018093BF01FE01329673
:1026200044C0FE01E20FF31F8193919322503109C0
:10263000398328833AC02091BD013091BE01232BFC
:1026400041F420912D0130912E013093BE01209351
:10265000BD0120912B0130912C012115310541F450
:102660002DB73EB740912F0150913001241B350BFF
:10267000E091BD01F091BE01E217F307A0F42E1B1B
:102680003F0B2817390778F0AC014E5F5F4F2417D6
:10269000350748F04E0F5F1F5093BE014093BD01B8
:1026A0008193919302C0E0E0F0E0CF01DF91CF9100
:1026B0000895CF93DF93009709F487C0FC01329708
:1026C00013821282C091BF01D091C001209781F482
:1026D00020813181280F391F8091BD019091BE0169
:1026E0008217930779F5F093BE01E093BD016DC0A9
:1026F000DE0120E030E0AE17BF0750F412964D9196
:102700005C9113979D014115510509F1DA01F3CF51
:10271000B383A28340815181840F951F8A179B0741
:1027200071F48D919C911197840F951F029691835E
:10273000808312968D919C911397938382832115A8
:10274000310529F4F093C001E093BF013EC0D901E7
:102750001396FC93EE9312974D915D91A40FB51FC4
:10276000EA17FB0779F480819181840F951F029607
:10277000D90111969C938E938281938113969C9399
:102780008E931297E0E0F0E08A819B81009719F028
:10279000FE01EC01F9CFCE01029628813981820F2A
:1027A000931F2091BD013091BE012817390769F4AC
:1027B000309729F41092C0011092BF0102C0138219
:1027C0001282D093BE01C093BD01DF91CF910895D5
:1027D00010E0CCEAD0E004C0FE010E94AE122296C6
:0A27E000CE3AD107C9F7F894FFCFF5
:1027EA00881301040400D007F4010F009C01B5010D
:1027FA00CF01EA0107022602470269028E02B502E8
:10280A00DE020A0302080E0F1011120000C1012095
:10281A0000200000010203040506FF6D56005072F5
:0A282A00657373204200476F210020
:00000001FF
